{"contracts/wTomex.sol":{"TomaxToken":{"abi":[{"inputs":[{"internalType":"address[]","name":"initialOwners","type":"address[]"},{"internalType":"address","name":"_superAdmin","type":"address"}],"stateMutability":"nonpayable","type":"constructor"},{"inputs":[{"internalType":"address","name":"spender","type":"address"},{"internalType":"uint256","name":"allowance","type":"uint256"},{"internalType":"uint256","name":"needed","type":"uint256"}],"name":"ERC20InsufficientAllowance","type":"error"},{"inputs":[{"internalType":"address","name":"sender","type":"address"},{"internalType":"uint256","name":"balance","type":"uint256"},{"internalType":"uint256","name":"needed","type":"uint256"}],"name":"ERC20InsufficientBalance","type":"error"},{"inputs":[{"internalType":"address","name":"approver","type":"address"}],"name":"ERC20InvalidApprover","type":"error"},{"inputs":[{"internalType":"address","name":"receiver","type":"address"}],"name":"ERC20InvalidReceiver","type":"error"},{"inputs":[{"internalType":"address","name":"sender","type":"address"}],"name":"ERC20InvalidSender","type":"error"},{"inputs":[{"internalType":"address","name":"spender","type":"address"}],"name":"ERC20InvalidSpender","type":"error"},{"inputs":[],"name":"ReentrancyGuardReentrantCall","type":"error"},{"anonymous":false,"inputs":[{"indexed":true,"internalType":"address","name":"owner","type":"address"},{"indexed":true,"internalType":"address","name":"spender","type":"address"},{"indexed":false,"internalType":"uint256","name":"value","type":"uint256"}],"name":"Approval","type":"event"},{"anonymous":false,"inputs":[{"indexed":true,"internalType":"address","name":"owner","type":"address"},{"indexed":false,"internalType":"bytes32","name":"requestHash","type":"bytes32"}],"name":"OwnerApproved","type":"event"},{"anonymous":false,"inputs":[{"indexed":true,"internalType":"address","name":"oldSuperAdmin","type":"address"},{"indexed":true,"internalType":"address","name":"newSuperAdmin","type":"address"}],"name":"SuperAdminChanged","type":"event"},{"anonymous":false,"inputs":[{"indexed":false,"internalType":"uint256","name":"year","type":"uint256"},{"indexed":false,"internalType":"uint256","name":"amountReleased","type":"uint256"},{"indexed":false,"internalType":"uint256","name":"remainingLockedSupply","type":"uint256"}],"name":"TokensReleased","type":"event"},{"anonymous":false,"inputs":[{"indexed":true,"internalType":"address","name":"from","type":"address"},{"indexed":true,"internalType":"address","name":"to","type":"address"},{"indexed":false,"internalType":"uint256","name":"value","type":"uint256"}],"name":"Transfer","type":"event"},{"anonymous":false,"inputs":[{"indexed":true,"internalType":"address","name":"user","type":"address"},{"indexed":false,"internalType":"uint256","name":"amount","type":"uint256"}],"name":"Unwrapped","type":"event"},{"anonymous":false,"inputs":[{"indexed":true,"internalType":"address","name":"user","type":"address"},{"indexed":false,"internalType":"uint256","name":"amount","type":"uint256"}],"name":"Wrapped","type":"event"},{"inputs":[],"name":"INITIAL_CIRCULATING_SUPPLY","outputs":[{"internalType":"uint256","name":"","type":"uint256"}],"stateMutability":"view","type":"function"},{"inputs":[],"name":"REQUIRED_APPROVALS","outputs":[{"internalType":"uint256","name":"","type":"uint256"}],"stateMutability":"view","type":"function"},{"inputs":[],"name":"TOTAL_SUPPLY","outputs":[{"internalType":"uint256","name":"","type":"uint256"}],"stateMutability":"view","type":"function"},{"inputs":[{"internalType":"address","name":"owner","type":"address"},{"internalType":"address","name":"spender","type":"address"}],"name":"allowance","outputs":[{"internalType":"uint256","name":"","type":"uint256"}],"stateMutability":"view","type":"function"},{"inputs":[{"internalType":"bytes32","name":"","type":"bytes32"},{"internalType":"address","name":"","type":"address"}],"name":"approvals","outputs":[{"internalType":"bool","name":"","type":"bool"}],"stateMutability":"view","type":"function"},{"inputs":[{"internalType":"address","name":"spender","type":"address"},{"internalType":"uint256","name":"value","type":"uint256"}],"name":"approve","outputs":[{"internalType":"bool","name":"","type":"bool"}],"stateMutability":"nonpayable","type":"function"},{"inputs":[{"internalType":"string","name":"functionName","type":"string"}],"name":"approveRequest","outputs":[],"stateMutability":"nonpayable","type":"function"},{"inputs":[{"internalType":"string","name":"functionName","type":"string"},{"internalType":"address","name":"ownerToRemove","type":"address"},{"internalType":"address","name":"newOwner","type":"address"}],"name":"approveRequestForOwnerChange","outputs":[],"stateMutability":"nonpayable","type":"function"},{"inputs":[{"internalType":"string","name":"functionName","type":"string"},{"internalType":"uint256","name":"amount","type":"uint256"}],"name":"approveRequestForWithdrawals","outputs":[],"stateMutability":"nonpayable","type":"function"},{"inputs":[{"internalType":"uint256","name":"amount","type":"uint256"}],"name":"approveWithdraw","outputs":[],"stateMutability":"nonpayable","type":"function"},{"inputs":[{"internalType":"address","name":"account","type":"address"}],"name":"balanceOf","outputs":[{"internalType":"uint256","name":"","type":"uint256"}],"stateMutability":"view","type":"function"},{"inputs":[{"internalType":"address","name":"ownerToRemove","type":"address"},{"internalType":"address","name":"newOwner","type":"address"}],"name":"changeOwner","outputs":[],"stateMutability":"nonpayable","type":"function"},{"inputs":[{"internalType":"address","name":"newSuperAdmin","type":"address"}],"name":"changeSuperAdmin","outputs":[],"stateMutability":"nonpayable","type":"function"},{"inputs":[],"name":"currentYear","outputs":[{"internalType":"uint256","name":"","type":"uint256"}],"stateMutability":"view","type":"function"},{"inputs":[],"name":"decimals","outputs":[{"internalType":"uint8","name":"","type":"uint8"}],"stateMutability":"view","type":"function"},{"inputs":[{"internalType":"address","name":"_tokenAddr","type":"address"},{"internalType":"address","name":"_recoverAddr","type":"address"},{"internalType":"uint256","name":"_amount","type":"uint256"}],"name":"foreignTokenRecover","outputs":[],"stateMutability":"nonpayable","type":"function"},{"inputs":[{"internalType":"address","name":"","type":"address"}],"name":"isOwner","outputs":[{"internalType":"bool","name":"","type":"bool"}],"stateMutability":"view","type":"function"},{"inputs":[],"name":"lockedSupply","outputs":[{"internalType":"uint256","name":"","type":"uint256"}],"stateMutability":"view","type":"function"},{"inputs":[],"name":"name","outputs":[{"internalType":"string","name":"","type":"string"}],"stateMutability":"view","type":"function"},{"inputs":[{"internalType":"uint256","name":"","type":"uint256"}],"name":"owners","outputs":[{"internalType":"address","name":"","type":"address"}],"stateMutability":"view","type":"function"},{"inputs":[],"name":"pause","outputs":[],"stateMutability":"nonpayable","type":"function"},{"inputs":[],"name":"paused","outputs":[{"internalType":"bool","name":"","type":"bool"}],"stateMutability":"view","type":"function"},{"inputs":[],"name":"releasePercentage","outputs":[{"internalType":"uint256","name":"","type":"uint256"}],"stateMutability":"view","type":"function"},{"inputs":[],"name":"releaseTokens","outputs":[],"stateMutability":"nonpayable","type":"function"},{"inputs":[],"name":"superAdmin","outputs":[{"internalType":"address","name":"","type":"address"}],"stateMutability":"view","type":"function"},{"inputs":[],"name":"symbol","outputs":[{"internalType":"string","name":"","type":"string"}],"stateMutability":"view","type":"function"},{"inputs":[],"name":"totalSupply","outputs":[{"internalType":"uint256","name":"","type":"uint256"}],"stateMutability":"view","type":"function"},{"inputs":[{"internalType":"address","name":"to","type":"address"},{"internalType":"uint256","name":"value","type":"uint256"}],"name":"transfer","outputs":[{"internalType":"bool","name":"","type":"bool"}],"stateMutability":"nonpayable","type":"function"},{"inputs":[{"internalType":"address","name":"from","type":"address"},{"internalType":"address","name":"to","type":"address"},{"internalType":"uint256","name":"value","type":"uint256"}],"name":"transferFrom","outputs":[{"internalType":"bool","name":"","type":"bool"}],"stateMutability":"nonpayable","type":"function"},{"inputs":[],"name":"unpause","outputs":[],"stateMutability":"nonpayable","type":"function"},{"inputs":[{"internalType":"uint256","name":"amount","type":"uint256"}],"name":"unwrap","outputs":[],"stateMutability":"nonpayable","type":"function"},{"inputs":[],"name":"wrap","outputs":[],"stateMutability":"payable","type":"function"},{"stateMutability":"payable","type":"receive"}],"evm":{"bytecode":{"linkReferences":{},"object":"60806040526a05ca4ec2a79a7f670000006a14adf4b7320334b900000062000028919062000a23565b600655600160085560056009553480156200004257600080fd5b5060405162008bc438038062008bc4833981810160405281019062000068919062000c4c565b6040518060400160405280600581526020017f546f6d61780000000000000000000000000000000000000000000000000000008152506040518060400160405280600581526020017f544f4d41580000000000000000000000000000000000000000000000000000008152508160039081620000e5919062000ef3565b508060049081620000f7919062000ef3565b50505060016005819055506200011e677cd59686f663e98f60c01b6200072a60201b60201c565b6200013a67bad5d7b8912c015d60c01b6200072a60201b60201c565b6200015667fc70b83c4818248f60c01b6200072a60201b60201c565b6200017267e9ff9b3fbe1de21260c01b6200072a60201b60201c565b6005825114620001b9576040517f08c379a0000000000000000000000000000000000000000000000000000000008152600401620001b0906200103b565b60405180910390fd5b620001d567672818ef94e5014c60c01b6200072a60201b60201c565b620001f16711c30f7c491eb7bc60c01b6200072a60201b60201c565b6200020d67e3734b848e8196c860c01b6200072a60201b60201c565b60005b82518110156200058d576200023667494f04b9b82c6bc260c01b6200072a60201b60201c565b62000252676d14571cf585762060c01b6200072a60201b60201c565b6200026e6710bfd80256bb8b5c60c01b6200072a60201b60201c565b600073ffffffffffffffffffffffffffffffffffffffff168382815181106200029c576200029b6200105d565b5b602002602001015173ffffffffffffffffffffffffffffffffffffffff1603620002fd576040517f08c379a0000000000000000000000000000000000000000000000000000000008152600401620002f490620010dc565b60405180910390fd5b62000319678671a4f7ccc659f760c01b6200072a60201b60201c565b62000335672c97266e1d9bd8ef60c01b6200072a60201b60201c565b6200035167a764870d801d03d560c01b6200072a60201b60201c565b6200036d673b27ec54b169eba760c01b6200072a60201b60201c565b600c60008483815181106200038757620003866200105d565b5b602002602001015173ffffffffffffffffffffffffffffffffffffffff1673ffffffffffffffffffffffffffffffffffffffff16815260200190815260200160002060009054906101000a900460ff16156200041a576040517f08c379a000000000000000000000000000000000000000000000000000000000815260040162000411906200114e565b60405180910390fd5b62000436672197b988f9c8dd8360c01b6200072a60201b60201c565b6200045267ac6473441aaa12c260c01b6200072a60201b60201c565b6200046e67acb6b6f0761373d260c01b6200072a60201b60201c565b600b8382815181106200048657620004856200105d565b5b60200260200101519080600181540180825580915050600190039060005260206000200160009091909190916101000a81548173ffffffffffffffffffffffffffffffffffffffff021916908373ffffffffffffffffffffffffffffffffffffffff1602179055506200050a672cd6b1f2bf284db860c01b6200072a60201b60201c565b6001600c60008584815181106200052657620005256200105d565b5b602002602001015173ffffffffffffffffffffffffffffffffffffffff1673ffffffffffffffffffffffffffffffffffffffff16815260200190815260200160002060006101000a81548160ff021916908315150217905550808060010191505062000210565b50620005aa67c71a3c946cee85cd60c01b6200072a60201b60201c565b620005c66751abb84b9e34de4960c01b6200072a60201b60201c565b620005e267fb8f0231fa60807960c01b6200072a60201b60201c565b600073ffffffffffffffffffffffffffffffffffffffff168173ffffffffffffffffffffffffffffffffffffffff160362000654576040517f08c379a00000000000000000000000000000000000000000000000000000000081526004016200064b90620011c0565b60405180910390fd5b6200067067a9931d8a1187770a60c01b6200072a60201b60201c565b6200068c6760558ab30cfd076a60c01b6200072a60201b60201c565b80600d60006101000a81548173ffffffffffffffffffffffffffffffffffffffff021916908373ffffffffffffffffffffffffffffffffffffffff160217905550620006e9672a08ccb0cecf431160c01b6200072a60201b60201c565b62000705670fe0f19479086e3360c01b6200072a60201b60201c565b62000722336a05ca4ec2a79a7f670000006200072d60201b60201c565b5050620012b6565b50565b600073ffffffffffffffffffffffffffffffffffffffff168273ffffffffffffffffffffffffffffffffffffffff1603620007a25760006040517fec442f05000000000000000000000000000000000000000000000000000000008152600401620007999190620011f3565b60405180910390fd5b620007b660008383620007ba60201b60201c565b5050565b600073ffffffffffffffffffffffffffffffffffffffff168373ffffffffffffffffffffffffffffffffffffffff16036200081057806002600082825462000803919062001210565b92505081905550620008e6565b60008060008573ffffffffffffffffffffffffffffffffffffffff1673ffffffffffffffffffffffffffffffffffffffff168152602001908152602001600020549050818110156200089f578381836040517fe450d38c00000000000000000000000000000000000000000000000000000000815260040162000896939291906200125c565b60405180910390fd5b8181036000808673ffffffffffffffffffffffffffffffffffffffff1673ffffffffffffffffffffffffffffffffffffffff16815260200190815260200160002081905550505b600073ffffffffffffffffffffffffffffffffffffffff168273ffffffffffffffffffffffffffffffffffffffff16036200093157806002600082825403925050819055506200097e565b806000808473ffffffffffffffffffffffffffffffffffffffff1673ffffffffffffffffffffffffffffffffffffffff168152602001908152602001600020600082825401925050819055505b8173ffffffffffffffffffffffffffffffffffffffff168373ffffffffffffffffffffffffffffffffffffffff167fddf252ad1be2c89b69c2b068fc378daa952ba7f163c4a11628f55a4df523b3ef83604051620009dd919062001299565b60405180910390a3505050565b6000819050919050565b7f4e487b7100000000000000000000000000000000000000000000000000000000600052601160045260246000fd5b600062000a3082620009ea565b915062000a3d83620009ea565b925082820390508181111562000a585762000a57620009f4565b5b92915050565b6000604051905090565b600080fd5b600080fd5b600080fd5b6000601f19601f8301169050919050565b7f4e487b7100000000000000000000000000000000000000000000000000000000600052604160045260246000fd5b62000ac28262000a77565b810181811067ffffffffffffffff8211171562000ae45762000ae362000a88565b5b80604052505050565b600062000af962000a5e565b905062000b07828262000ab7565b919050565b600067ffffffffffffffff82111562000b2a5762000b2962000a88565b5b602082029050602081019050919050565b600080fd5b600073ffffffffffffffffffffffffffffffffffffffff82169050919050565b600062000b6d8262000b40565b9050919050565b62000b7f8162000b60565b811462000b8b57600080fd5b50565b60008151905062000b9f8162000b74565b92915050565b600062000bbc62000bb68462000b0c565b62000aed565b9050808382526020820190506020840283018581111562000be25762000be162000b3b565b5b835b8181101562000c0f578062000bfa888262000b8e565b84526020840193505060208101905062000be4565b5050509392505050565b600082601f83011262000c315762000c3062000a72565b5b815162000c4384826020860162000ba5565b91505092915050565b6000806040838503121562000c665762000c6562000a68565b5b600083015167ffffffffffffffff81111562000c875762000c8662000a6d565b5b62000c958582860162000c19565b925050602062000ca88582860162000b8e565b9150509250929050565b600081519050919050565b7f4e487b7100000000000000000000000000000000000000000000000000000000600052602260045260246000fd5b6000600282049050600182168062000d0557607f821691505b60208210810362000d1b5762000d1a62000cbd565b5b50919050565b60008190508160005260206000209050919050565b60006020601f8301049050919050565b600082821b905092915050565b60006008830262000d857fffffffffffffffffffffffffffffffffffffffffffffffffffffffffffffffff8262000d46565b62000d91868362000d46565b95508019841693508086168417925050509392505050565b6000819050919050565b600062000dd462000dce62000dc884620009ea565b62000da9565b620009ea565b9050919050565b6000819050919050565b62000df08362000db3565b62000e0862000dff8262000ddb565b84845462000d53565b825550505050565b600090565b62000e1f62000e10565b62000e2c81848462000de5565b505050565b5b8181101562000e545762000e4860008262000e15565b60018101905062000e32565b5050565b601f82111562000ea35762000e6d8162000d21565b62000e788462000d36565b8101602085101562000e88578190505b62000ea062000e978562000d36565b83018262000e31565b50505b505050565b600082821c905092915050565b600062000ec86000198460080262000ea8565b1980831691505092915050565b600062000ee3838362000eb5565b9150826002028217905092915050565b62000efe8262000cb2565b67ffffffffffffffff81111562000f1a5762000f1962000a88565b5b62000f26825462000cec565b62000f3382828562000e58565b600060209050601f83116001811462000f6b576000841562000f56578287015190505b62000f62858262000ed5565b86555062000fd2565b601f19841662000f7b8662000d21565b60005b8281101562000fa55784890151825560018201915060208501945060208101905062000f7e565b8683101562000fc5578489015162000fc1601f89168262000eb5565b8355505b6001600288020188555050505b505050505050565b600082825260208201905092915050565b7f5468657265206d7573742062652065786163746c792035206f776e6572732e00600082015250565b600062001023601f8362000fda565b9150620010308262000feb565b602082019050919050565b60006020820190508181036000830152620010568162001014565b9050919050565b7f4e487b7100000000000000000000000000000000000000000000000000000000600052603260045260246000fd5b7f496e76616c6964206f776e657220616464726573732e00000000000000000000600082015250565b6000620010c460168362000fda565b9150620010d1826200108c565b602082019050919050565b60006020820190508181036000830152620010f781620010b5565b9050919050565b7f4475706c6963617465206f776e657220616464726573732e0000000000000000600082015250565b60006200113660188362000fda565b91506200114382620010fe565b602082019050919050565b60006020820190508181036000830152620011698162001127565b9050919050565b7f496e76616c69642053757065722041646d696e20616464726573732e00000000600082015250565b6000620011a8601c8362000fda565b9150620011b58262001170565b602082019050919050565b60006020820190508181036000830152620011db8162001199565b9050919050565b620011ed8162000b60565b82525050565b60006020820190506200120a6000830184620011e2565b92915050565b60006200121d82620009ea565b91506200122a83620009ea565b9250828201905080821115620012455762001244620009f4565b5b92915050565b6200125681620009ea565b82525050565b6000606082019050620012736000830186620011e2565b6200128260208301856200124b565b6200129160408301846200124b565b949350505050565b6000602082019050620012b060008301846200124b565b92915050565b6178fe80620012c66000396000f3fe6080604052600436106101e75760003560e01c80635c975abb11610102578063a96f866811610095578063dd62ed3e11610064578063dd62ed3e146106da578063de0e9a3e14610717578063ec4673d114610740578063f00d4b5d146107695761020a565b8063a96f866814610663578063afb0c4a11461067a578063ca5c7b91146106a5578063d46eb119146106d05761020a565b8063902d55a5116100d1578063902d55a5146105a757806395d89b41146105d2578063a30a7c5a146105fd578063a9059cbb146106265761020a565b80635c975abb146104ff57806370a082311461052a578063775ef854146105675780638456cb59146105905761020a565b806324f6c7761161017a57806332f82f6d1161014957806332f82f6d1461046b5780633f4ba83a1461049457806341858c4b146104ab578063599c5533146104d45761020a565b806324f6c7761461039b57806329575f6a146103d85780632f54bf6e14610403578063313ce567146104405761020a565b8063165e5934116101b6578063165e5934146102df57806318160ddd1461030a5780631e0715df1461033557806323b872dd1461035e5761020a565b8063025e7c271461020f57806306fdde031461024c578063095ea7b3146102775780630b5a006b146102b45761020a565b3661020a5761020067e93160ca0f39274660c01b610792565b610208610795565b005b600080fd5b34801561021b57600080fd5b506102366004803603810190610231919061630b565b610b72565b6040516102439190616379565b60405180910390f35b34801561025857600080fd5b50610261610bb1565b60405161026e9190616424565b60405180910390f35b34801561028357600080fd5b5061029e60048036038101906102999190616472565b610c43565b6040516102ab91906164cd565b60405180910390f35b3480156102c057600080fd5b506102c9610c66565b6040516102d691906164f7565b60405180910390f35b3480156102eb57600080fd5b506102f4610c6c565b60405161030191906164f7565b60405180910390f35b34801561031657600080fd5b5061031f610c72565b60405161032c91906164f7565b60405180910390f35b34801561034157600080fd5b5061035c60048036038101906103579190616647565b610c7c565b005b34801561036a57600080fd5b5061038560048036038101906103809190616690565b611088565b60405161039291906164cd565b60405180910390f35b3480156103a757600080fd5b506103c260048036038101906103bd9190616719565b6110b7565b6040516103cf91906164cd565b60405180910390f35b3480156103e457600080fd5b506103ed6110e6565b6040516103fa9190616379565b60405180910390f35b34801561040f57600080fd5b5061042a60048036038101906104259190616759565b61110c565b60405161043791906164cd565b60405180910390f35b34801561044c57600080fd5b5061045561112c565b60405161046291906167a2565b60405180910390f35b34801561047757600080fd5b50610492600480360381019061048d91906167bd565b611135565b005b3480156104a057600080fd5b506104a961153f565b005b3480156104b757600080fd5b506104d260048036038101906104cd9190616759565b611798565b005b3480156104e057600080fd5b506104e9611c60565b6040516104f691906164f7565b60405180910390f35b34801561050b57600080fd5b50610514611c65565b60405161052191906164cd565b60405180910390f35b34801561053657600080fd5b50610551600480360381019061054c9190616759565b611c78565b60405161055e91906164f7565b60405180910390f35b34801561057357600080fd5b5061058e60048036038101906105899190616690565b611cc0565b005b34801561059c57600080fd5b506105a56120ea565b005b3480156105b357600080fd5b506105bc612343565b6040516105c991906164f7565b60405180910390f35b3480156105de57600080fd5b506105e7612352565b6040516105f49190616424565b60405180910390f35b34801561060957600080fd5b50610624600480360381019061061f9190616819565b6123e4565b005b34801561063257600080fd5b5061064d60048036038101906106489190616472565b6127f6565b60405161065a91906164cd565b60405180910390f35b34801561066f57600080fd5b50610678612819565b005b34801561068657600080fd5b5061068f612c20565b60405161069c91906164f7565b60405180910390f35b3480156106b157600080fd5b506106ba612c2f565b6040516106c791906164f7565b60405180910390f35b6106d8610795565b005b3480156106e657600080fd5b5061070160048036038101906106fc9190616888565b612c35565b60405161070e91906164f7565b60405180910390f35b34801561072357600080fd5b5061073e6004803603810190610739919061630b565b612cbc565b005b34801561074c57600080fd5b506107676004803603810190610762919061630b565b613121565b005b34801561077557600080fd5b50610790600480360381019061078b9190616888565b613528565b005b50565b6107a967a80917ba1658f9bd60c01b610792565b6107bd675dae3de08ba7c53560c01b610792565b6107d16791fe1c0f1a4130b860c01b610792565b6107e567cbe892841bba226460c01b610792565b6107f96772d8c4ac89b1de5e60c01b610792565b3373ffffffffffffffffffffffffffffffffffffffff163273ffffffffffffffffffffffffffffffffffffffff1614610867576040517f08c379a000000000000000000000000000000000000000000000000000000000815260040161085e9061693a565b60405180910390fd5b61087b67124e087cb3c716cb60c01b610792565b61088f671f4b3e3afb31fba360c01b610792565b6108a3679c810256f8ac1f1760c01b610792565b6108b7676dd203e1cc12325660c01b610792565b600a60009054906101000a900460ff1615610907576040517f08c379a00000000000000000000000000000000000000000000000000000000081526004016108fe906169a6565b60405180910390fd5b61091b671ed9acc05548656760c01b610792565b61092f6772a1c8d3d238e9b260c01b610792565b610943672bc37aa94aa835b260c01b610792565b6109576735691fb7ba44fe9660c01b610792565b61096b67b383fb381833a39960c01b610792565b61097f673832a2c3723bb4c760c01b610792565b610993674d60942a59dceb0860c01b610792565b600034116109d6576040517f08c379a00000000000000000000000000000000000000000000000000000000081526004016109cd90616a12565b60405180910390fd5b6109ea67cffce7c50f54db3760c01b610792565b6109fe673b181a9c3761794060c01b610792565b610a1267b061ed4d7ee679e260c01b610792565b6000610a1c610c72565b9050610a3267eb872b156dc1434760c01b610792565b610a46676e1676474bd34b1760c01b610792565b610a5a67b3ff45d5ae2c845460c01b610792565b6a14adf4b7320334b90000003482610a729190616a61565b1115610ab3576040517f08c379a0000000000000000000000000000000000000000000000000000000008152600401610aaa90616b07565b60405180910390fd5b610ac7675fe428c02d77631460c01b610792565b610adb67d291e4bb5e8d043460c01b610792565b610aef6798a4416407a8ba3b60c01b610792565b610af93334613baf565b610b0d67b12d5dd0f7e743b060c01b610792565b610b2167e1fd696924c98f3160c01b610792565b3373ffffffffffffffffffffffffffffffffffffffff167f4700c1726b4198077cd40320a32c45265a1910521eb0ef713dd1d8412413d7fc34604051610b6791906164f7565b60405180910390a250565b600b8181548110610b8257600080fd5b906000526020600020016000915054906101000a900473ffffffffffffffffffffffffffffffffffffffff1681565b606060038054610bc090616b56565b80601f0160208091040260200160405190810160405280929190818152602001828054610bec90616b56565b8015610c395780601f10610c0e57610100808354040283529160200191610c39565b820191906000526020600020905b815481529060010190602001808311610c1c57829003601f168201915b5050505050905090565b600080610c4e613c31565b9050610c5b818585613c39565b600191505092915050565b60085481565b60095481565b6000600254905090565b610c9067ca72bfdea0f74a7060c01b610792565b610ca4676625b41eef717a9c60c01b610792565b610cb867424edd69aaa529f760c01b610792565b610ccc675f2c499d40ff854d60c01b610792565b610ce067b0e70c159cad0b7260c01b610792565b600c60003373ffffffffffffffffffffffffffffffffffffffff1673ffffffffffffffffffffffffffffffffffffffff16815260200190815260200160002060009054906101000a900460ff168015610d495750610d486775caa2ba275f4d2860c01b613c4b565b5b80610dbd5750600d60009054906101000a900473ffffffffffffffffffffffffffffffffffffffff1673ffffffffffffffffffffffffffffffffffffffff163373ffffffffffffffffffffffffffffffffffffffff16148015610dbc5750610dbb67d45bcfc309163b9f60c01b613c4b565b5b5b610dfc576040517f08c379a0000000000000000000000000000000000000000000000000000000008152600401610df390616bd3565b60405180910390fd5b610e1067f8eb90a27a1a02ed60c01b610792565b610e2467606f5bf6ad621b2f60c01b610792565b610e3867c95529260a0311e960c01b610792565b610e4c67a96eb41b93e546c860c01b610792565b610e60675f20a5ff53aa709560c01b610792565b610e7467a29adfe700affba260c01b610792565b600081600854604051602001610e8b929190616c50565b604051602081830303815290604052805190602001209050610eb76725212ce6a6ef67a560c01b610792565b610ecb67240f72353483d26560c01b610792565b610edf67e487b4adbf12637b60c01b610792565b600e600082815260200190815260200160002060003373ffffffffffffffffffffffffffffffffffffffff1673ffffffffffffffffffffffffffffffffffffffff16815260200190815260200160002060009054906101000a900460ff1615610f7d576040517f08c379a0000000000000000000000000000000000000000000000000000000008152600401610f7490616cea565b60405180910390fd5b610f91679408751d25f69a6e60c01b610792565b610fa5674997f6edf2bc7f4160c01b610792565b6001600e600083815260200190815260200160002060003373ffffffffffffffffffffffffffffffffffffffff1673ffffffffffffffffffffffffffffffffffffffff16815260200190815260200160002060006101000a81548160ff0219169083151502179055506110226729fad7117a58a4d560c01b610792565b611036676895b147a3af5be260c01b610792565b3373ffffffffffffffffffffffffffffffffffffffff167f712d53ab219462e032d2ff05d9215a37b882fa592cca6e29c3d8c6a2bdc27b248260405161107c9190616d19565b60405180910390a25050565b600080611093613c31565b90506110a0858285613c56565b6110ab858585613ceb565b60019150509392505050565b600e6020528160005260406000206020528060005260406000206000915091509054906101000a900460ff1681565b600d60009054906101000a900473ffffffffffffffffffffffffffffffffffffffff1681565b600c6020528060005260406000206000915054906101000a900460ff1681565b60006012905090565b61114967ffd97c363e2664ce60c01b610792565b61115d676625b41eef717a9c60c01b610792565b61117167424edd69aaa529f760c01b610792565b611185675f2c499d40ff854d60c01b610792565b61119967b0e70c159cad0b7260c01b610792565b600c60003373ffffffffffffffffffffffffffffffffffffffff1673ffffffffffffffffffffffffffffffffffffffff16815260200190815260200160002060009054906101000a900460ff16801561120257506112016775caa2ba275f4d2860c01b613c4b565b5b806112765750600d60009054906101000a900473ffffffffffffffffffffffffffffffffffffffff1673ffffffffffffffffffffffffffffffffffffffff163373ffffffffffffffffffffffffffffffffffffffff16148015611275575061127467d45bcfc309163b9f60c01b613c4b565b5b5b6112b5576040517f08c379a00000000000000000000000000000000000000000000000000000000081526004016112ac90616bd3565b60405180910390fd5b6112c967f8eb90a27a1a02ed60c01b610792565b6112dd67606f5bf6ad621b2f60c01b610792565b6112f167f2d3abac4363837d60c01b610792565b61130567c74565c7a1edc70a60c01b610792565b611319674fb972c0746477d760c01b610792565b61132d67e1c79941880d78d160c01b610792565b60008282604051602001611342929190616c50565b60405160208183030381529060405280519060200120905061136e67f1927111124fae3660c01b610792565b61138267257e863d4816c48a60c01b610792565b611395664fb584648819b160c01b610792565b600e600082815260200190815260200160002060003373ffffffffffffffffffffffffffffffffffffffff1673ffffffffffffffffffffffffffffffffffffffff16815260200190815260200160002060009054906101000a900460ff1615611433576040517f08c379a000000000000000000000000000000000000000000000000000000000815260040161142a90616cea565b60405180910390fd5b61144767d83774a1d72a796960c01b610792565b61145b672c3b681548e74cdb60c01b610792565b6001600e600083815260200190815260200160002060003373ffffffffffffffffffffffffffffffffffffffff1673ffffffffffffffffffffffffffffffffffffffff16815260200190815260200160002060006101000a81548160ff0219169083151502179055506114d867a7b904cd13f8184060c01b610792565b6114ec6725f7c794a4d9911260c01b610792565b3373ffffffffffffffffffffffffffffffffffffffff167f712d53ab219462e032d2ff05d9215a37b882fa592cca6e29c3d8c6a2bdc27b24826040516115329190616d19565b60405180910390a2505050565b6115536774926bb01ae3311460c01b610792565b611567676625b41eef717a9c60c01b610792565b61157b67424edd69aaa529f760c01b610792565b61158f675f2c499d40ff854d60c01b610792565b6115a367b0e70c159cad0b7260c01b610792565b600c60003373ffffffffffffffffffffffffffffffffffffffff1673ffffffffffffffffffffffffffffffffffffffff16815260200190815260200160002060009054906101000a900460ff16801561160c575061160b6775caa2ba275f4d2860c01b613c4b565b5b806116805750600d60009054906101000a900473ffffffffffffffffffffffffffffffffffffffff1673ffffffffffffffffffffffffffffffffffffffff163373ffffffffffffffffffffffffffffffffffffffff1614801561167f575061167e67d45bcfc309163b9f60c01b613c4b565b5b5b6116bf576040517f08c379a00000000000000000000000000000000000000000000000000000000081526004016116b690616bd3565b60405180910390fd5b6116d367f8eb90a27a1a02ed60c01b610792565b6116e767606f5bf6ad621b2f60c01b610792565b6116fb67bc80bb8d10792b2460c01b610792565b61170f67d31a633661282e5560c01b610792565b61172367237a013425077d1260c01b610792565b61173767df232878139c9fc260c01b610792565b600060085460405160200161174c9190616d80565b604051602081830303815290604052805190602001209050611778671a03897566f4de6060c01b610792565b61178c67c63116f91bd06e3b60c01b610792565b61179581613ddf565b50565b6117ac67edeee75875e3087b60c01b610792565b6117c0676625b41eef717a9c60c01b610792565b6117d467424edd69aaa529f760c01b610792565b6117e8675f2c499d40ff854d60c01b610792565b6117fc67b0e70c159cad0b7260c01b610792565b600c60003373ffffffffffffffffffffffffffffffffffffffff1673ffffffffffffffffffffffffffffffffffffffff16815260200190815260200160002060009054906101000a900460ff16801561186557506118646775caa2ba275f4d2860c01b613c4b565b5b806118d95750600d60009054906101000a900473ffffffffffffffffffffffffffffffffffffffff1673ffffffffffffffffffffffffffffffffffffffff163373ffffffffffffffffffffffffffffffffffffffff161480156118d857506118d767d45bcfc309163b9f60c01b613c4b565b5b5b611918576040517f08c379a000000000000000000000000000000000000000000000000000000000815260040161190f90616bd3565b60405180910390fd5b61192c67f8eb90a27a1a02ed60c01b610792565b61194067606f5bf6ad621b2f60c01b610792565b6119546718f7d493bd8d571f60c01b610792565b6119686748cda4911a5cfaf360c01b610792565b61197c675dae3de08ba7c53560c01b610792565b6119906791fe1c0f1a4130b860c01b610792565b6119a467cbe892841bba226460c01b610792565b6119b86772d8c4ac89b1de5e60c01b610792565b3373ffffffffffffffffffffffffffffffffffffffff163273ffffffffffffffffffffffffffffffffffffffff1614611a26576040517f08c379a0000000000000000000000000000000000000000000000000000000008152600401611a1d9061693a565b60405180910390fd5b611a3a67124e087cb3c716cb60c01b610792565b611a4e671f4b3e3afb31fba360c01b610792565b611a62679c810256f8ac1f1760c01b610792565b611a76676dd203e1cc12325660c01b610792565b600a60009054906101000a900460ff1615611ac6576040517f08c379a0000000000000000000000000000000000000000000000000000000008152600401611abd906169a6565b60405180910390fd5b611ada671ed9acc05548656760c01b610792565b611aee6772a1c8d3d238e9b260c01b610792565b611b02671d7a21d536f08d1960c01b610792565b611b16671d503f6381ebc4c660c01b610792565b611b2a67b52ce6223055a52e60c01b610792565b611b3e67d999644cc10b9f0a60c01b610792565b611b52676b0eaaa78a72400960c01b610792565b600073ffffffffffffffffffffffffffffffffffffffff168173ffffffffffffffffffffffffffffffffffffffff1603611bc1576040517f08c379a0000000000000000000000000000000000000000000000000000000008152600401611bb890616df2565b60405180910390fd5b611bd56782283ba0c85dda7060c01b610792565b611be96746bffae4d4fb2d4760c01b610792565b611bfd6788a075aec6106f8b60c01b610792565b6000600854604051602001611c129190616e5e565b604051602081830303815290604052805190602001209050611c3e6730ae85200eeddb1a60c01b610792565b611c5267f32936a061fff3a960c01b610792565b611c5c82826141ec565b5050565b600381565b600a60009054906101000a900460ff1681565b60008060008373ffffffffffffffffffffffffffffffffffffffff1673ffffffffffffffffffffffffffffffffffffffff168152602001908152602001600020549050919050565b611cd4672a01ab65794edbe160c01b610792565b611ce8676625b41eef717a9c60c01b610792565b611cfc67424edd69aaa529f760c01b610792565b611d10675f2c499d40ff854d60c01b610792565b611d2467b0e70c159cad0b7260c01b610792565b600c60003373ffffffffffffffffffffffffffffffffffffffff1673ffffffffffffffffffffffffffffffffffffffff16815260200190815260200160002060009054906101000a900460ff168015611d8d5750611d8c6775caa2ba275f4d2860c01b613c4b565b5b80611e015750600d60009054906101000a900473ffffffffffffffffffffffffffffffffffffffff1673ffffffffffffffffffffffffffffffffffffffff163373ffffffffffffffffffffffffffffffffffffffff16148015611e005750611dff67d45bcfc309163b9f60c01b613c4b565b5b5b611e40576040517f08c379a0000000000000000000000000000000000000000000000000000000008152600401611e3790616bd3565b60405180910390fd5b611e5467f8eb90a27a1a02ed60c01b610792565b611e6867606f5bf6ad621b2f60c01b610792565b611e7c676823529b7e1f266660c01b610792565b611e9067aa91e8da59f99ec860c01b610792565b611ea4675dae3de08ba7c53560c01b610792565b611eb86791fe1c0f1a4130b860c01b610792565b611ecc67cbe892841bba226460c01b610792565b611ee06772d8c4ac89b1de5e60c01b610792565b3373ffffffffffffffffffffffffffffffffffffffff163273ffffffffffffffffffffffffffffffffffffffff1614611f4e576040517f08c379a0000000000000000000000000000000000000000000000000000000008152600401611f459061693a565b60405180910390fd5b611f6267124e087cb3c716cb60c01b610792565b611f76671f4b3e3afb31fba360c01b610792565b611f8a679c810256f8ac1f1760c01b610792565b611f9e676dd203e1cc12325660c01b610792565b600a60009054906101000a900460ff1615611fee576040517f08c379a0000000000000000000000000000000000000000000000000000000008152600401611fe5906169a6565b60405180910390fd5b612002671ed9acc05548656760c01b610792565b6120166772a1c8d3d238e9b260c01b610792565b61202a67f1405bc17c4c621160c01b610792565b61203e678c16ad112f92fe2160c01b610792565b6120526796ad47cf811e730060c01b610792565b61206667c37b425cd665a91e60c01b610792565b8273ffffffffffffffffffffffffffffffffffffffff1663a9059cbb83836040518363ffffffff1660e01b81526004016120a1929190616e84565b6020604051808303816000875af11580156120c0573d6000803e3d6000fd5b505050506040513d601f19601f820116820180604052508101906120e49190616ed9565b50505050565b6120fe6758abf98b14aab9b560c01b610792565b612112676625b41eef717a9c60c01b610792565b61212667424edd69aaa529f760c01b610792565b61213a675f2c499d40ff854d60c01b610792565b61214e67b0e70c159cad0b7260c01b610792565b600c60003373ffffffffffffffffffffffffffffffffffffffff1673ffffffffffffffffffffffffffffffffffffffff16815260200190815260200160002060009054906101000a900460ff1680156121b757506121b66775caa2ba275f4d2860c01b613c4b565b5b8061222b5750600d60009054906101000a900473ffffffffffffffffffffffffffffffffffffffff1673ffffffffffffffffffffffffffffffffffffffff163373ffffffffffffffffffffffffffffffffffffffff1614801561222a575061222967d45bcfc309163b9f60c01b613c4b565b5b5b61226a576040517f08c379a000000000000000000000000000000000000000000000000000000000815260040161226190616bd3565b60405180910390fd5b61227e67f8eb90a27a1a02ed60c01b610792565b61229267606f5bf6ad621b2f60c01b610792565b6122a667a10103c64400e55460c01b610792565b6122ba67930ec3820c73ae0f60c01b610792565b6122ce67ff777472d94139ed60c01b610792565b6122e267a2ba6be43b6bb25060c01b610792565b60006008546040516020016122f79190616f52565b60405160208183030381529060405280519060200120905061232367d3075ea004bd8ad760c01b610792565b61233767ccec26435615a3bd60c01b610792565b61234081614653565b50565b6a14adf4b7320334b900000081565b60606004805461236190616b56565b80601f016020809104026020016040519081016040528092919081815260200182805461238d90616b56565b80156123da5780601f106123af576101008083540402835291602001916123da565b820191906000526020600020905b8154815290600101906020018083116123bd57829003601f168201915b5050505050905090565b6123f867f31b54b04d546a1c60c01b610792565b61240c676625b41eef717a9c60c01b610792565b61242067424edd69aaa529f760c01b610792565b612434675f2c499d40ff854d60c01b610792565b61244867b0e70c159cad0b7260c01b610792565b600c60003373ffffffffffffffffffffffffffffffffffffffff1673ffffffffffffffffffffffffffffffffffffffff16815260200190815260200160002060009054906101000a900460ff1680156124b157506124b06775caa2ba275f4d2860c01b613c4b565b5b806125255750600d60009054906101000a900473ffffffffffffffffffffffffffffffffffffffff1673ffffffffffffffffffffffffffffffffffffffff163373ffffffffffffffffffffffffffffffffffffffff16148015612524575061252367d45bcfc309163b9f60c01b613c4b565b5b5b612564576040517f08c379a000000000000000000000000000000000000000000000000000000000815260040161255b90616bd3565b60405180910390fd5b61257867f8eb90a27a1a02ed60c01b610792565b61258c67606f5bf6ad621b2f60c01b610792565b6125a067d353276c7b15b7db60c01b610792565b6125b467658332a3062f29f160c01b610792565b6125c867a9a1b586fbc9799260c01b610792565b6125dc675913315bd665309c60c01b610792565b60008383836008546040516020016125f79493929190616fc0565b604051602081830303815290604052805190602001209050612623679c6488c9c0f147f560c01b610792565b6126376732626da591016b0060c01b610792565b61264b6793e581729d17e6e260c01b610792565b600e600082815260200190815260200160002060003373ffffffffffffffffffffffffffffffffffffffff1673ffffffffffffffffffffffffffffffffffffffff16815260200190815260200160002060009054906101000a900460ff16156126e9576040517f08c379a00000000000000000000000000000000000000000000000000000000081526004016126e090616cea565b60405180910390fd5b6126fd67e3fb6857225d971560c01b610792565b61271167037bf7a241bfb5a860c01b610792565b6001600e600083815260200190815260200160002060003373ffffffffffffffffffffffffffffffffffffffff1673ffffffffffffffffffffffffffffffffffffffff16815260200190815260200160002060006101000a81548160ff02191690831515021790555061278e6777fa04d2eb610fec60c01b610792565b6127a2672a756012afd93f9060c01b610792565b3373ffffffffffffffffffffffffffffffffffffffff167f712d53ab219462e032d2ff05d9215a37b882fa592cca6e29c3d8c6a2bdc27b24826040516127e89190616d19565b60405180910390a250505050565b600080612801613c31565b905061280e818585613ceb565b600191505092915050565b61282d671cbf2b6bb2565f2d60c01b610792565b612841676625b41eef717a9c60c01b610792565b61285567424edd69aaa529f760c01b610792565b612869675f2c499d40ff854d60c01b610792565b61287d67b0e70c159cad0b7260c01b610792565b600c60003373ffffffffffffffffffffffffffffffffffffffff1673ffffffffffffffffffffffffffffffffffffffff16815260200190815260200160002060009054906101000a900460ff1680156128e657506128e56775caa2ba275f4d2860c01b613c4b565b5b8061295a5750600d60009054906101000a900473ffffffffffffffffffffffffffffffffffffffff1673ffffffffffffffffffffffffffffffffffffffff163373ffffffffffffffffffffffffffffffffffffffff16148015612959575061295867d45bcfc309163b9f60c01b613c4b565b5b5b612999576040517f08c379a000000000000000000000000000000000000000000000000000000000815260040161299090616bd3565b60405180910390fd5b6129ad67f8eb90a27a1a02ed60c01b610792565b6129c167606f5bf6ad621b2f60c01b610792565b6129d5675623eb0dd1894f4960c01b610792565b6129e967c723b6ff98607f3a60c01b610792565b6129fd675dae3de08ba7c53560c01b610792565b612a116791fe1c0f1a4130b860c01b610792565b612a2567cbe892841bba226460c01b610792565b612a396772d8c4ac89b1de5e60c01b610792565b3373ffffffffffffffffffffffffffffffffffffffff163273ffffffffffffffffffffffffffffffffffffffff1614612aa7576040517f08c379a0000000000000000000000000000000000000000000000000000000008152600401612a9e9061693a565b60405180910390fd5b612abb67124e087cb3c716cb60c01b610792565b612acf671f4b3e3afb31fba360c01b610792565b612ae3679c810256f8ac1f1760c01b610792565b612af7676dd203e1cc12325660c01b610792565b600a60009054906101000a900460ff1615612b47576040517f08c379a0000000000000000000000000000000000000000000000000000000008152600401612b3e906169a6565b60405180910390fd5b612b5b671ed9acc05548656760c01b610792565b612b6f6772a1c8d3d238e9b260c01b610792565b612b8367a399cdd84c56c7d160c01b610792565b612b976704e34d6659411d3760c01b610792565b612bab67b92fb37cd4f7a11360c01b610792565b612bbf679e4d54e965a9e32060c01b610792565b6000600854604051602001612bd49190617056565b604051602081830303815290604052805190602001209050612c0067c7d461ddad3ffa5360c01b610792565b612c14675cfaa2ea8a596d7d60c01b610792565b612c1d81614a61565b50565b6a05ca4ec2a79a7f6700000081565b60065481565b6000600160008473ffffffffffffffffffffffffffffffffffffffff1673ffffffffffffffffffffffffffffffffffffffff16815260200190815260200160002060008373ffffffffffffffffffffffffffffffffffffffff1673ffffffffffffffffffffffffffffffffffffffff16815260200190815260200160002054905092915050565b612cd0679bdfe230d361dfff60c01b610792565b612cd8615112565b612cec67cf17b872fd4dd76960c01b610792565b612d00673ff85676657fb2ac60c01b610792565b612d14675dae3de08ba7c53560c01b610792565b612d286791fe1c0f1a4130b860c01b610792565b612d3c67cbe892841bba226460c01b610792565b612d506772d8c4ac89b1de5e60c01b610792565b3373ffffffffffffffffffffffffffffffffffffffff163273ffffffffffffffffffffffffffffffffffffffff1614612dbe576040517f08c379a0000000000000000000000000000000000000000000000000000000008152600401612db59061693a565b60405180910390fd5b612dd267124e087cb3c716cb60c01b610792565b612de6671f4b3e3afb31fba360c01b610792565b612dfa679c810256f8ac1f1760c01b610792565b612e0e676dd203e1cc12325660c01b610792565b600a60009054906101000a900460ff1615612e5e576040517f08c379a0000000000000000000000000000000000000000000000000000000008152600401612e55906169a6565b60405180910390fd5b612e72671ed9acc05548656760c01b610792565b612e866772a1c8d3d238e9b260c01b610792565b612e9a6758d18726ae16e02e60c01b610792565b612eae6703a7f8946c72589860c01b610792565b612ec267eb37b39075baeb4960c01b610792565b612ed667fcd1b79d8f440ed460c01b610792565b612eea679b0e6ba60a126b3360c01b610792565b80612ef433611c78565b1015612f35576040517f08c379a0000000000000000000000000000000000000000000000000000000008152600401612f2c906170c8565b60405180910390fd5b612f496724add6411f43d02760c01b610792565b612f5d67faf08b0deb7cf57460c01b610792565b612f71672ce9e4d41e398afb60c01b610792565b612f7b3382615158565b612f8f676cb302631725f59560c01b610792565b612fa3670610216805d699f960c01b610792565b60003373ffffffffffffffffffffffffffffffffffffffff1682604051612fc990617119565b60006040518083038185875af1925050503d8060008114613006576040519150601f19603f3d011682016040523d82523d6000602084013e61300b565b606091505b50509050613023675f47385aa1000e1f60c01b610792565b6130376730c45b10dab45e2e60c01b610792565b61304b6798fd5a88fb0feb9060c01b610792565b8061308b576040517f08c379a00000000000000000000000000000000000000000000000000000000081526004016130829061717a565b60405180910390fd5b61309f672f69415c45890f0960c01b610792565b6130b367cc9820d7cda5f89060c01b610792565b6130c76791dcccd56486141c60c01b610792565b3373ffffffffffffffffffffffffffffffffffffffff167f95ae649bfaaef9def56a52f4fb2d9e8fa5496bb7082930e442c74cc76b03dcb38360405161310d91906164f7565b60405180910390a25061311e6151da565b50565b61313567f44bdba4669db51a60c01b610792565b613149676625b41eef717a9c60c01b610792565b61315d67424edd69aaa529f760c01b610792565b613171675f2c499d40ff854d60c01b610792565b61318567b0e70c159cad0b7260c01b610792565b600c60003373ffffffffffffffffffffffffffffffffffffffff1673ffffffffffffffffffffffffffffffffffffffff16815260200190815260200160002060009054906101000a900460ff1680156131ee57506131ed6775caa2ba275f4d2860c01b613c4b565b5b806132625750600d60009054906101000a900473ffffffffffffffffffffffffffffffffffffffff1673ffffffffffffffffffffffffffffffffffffffff163373ffffffffffffffffffffffffffffffffffffffff16148015613261575061326067d45bcfc309163b9f60c01b613c4b565b5b5b6132a1576040517f08c379a000000000000000000000000000000000000000000000000000000000815260040161329890616bd3565b60405180910390fd5b6132b567f8eb90a27a1a02ed60c01b610792565b6132c967606f5bf6ad621b2f60c01b610792565b6132dd6787a367cafaaff60960c01b610792565b6132f1673a6af0f2cdec756d60c01b610792565b613305675dae3de08ba7c53560c01b610792565b6133196791fe1c0f1a4130b860c01b610792565b61332d67cbe892841bba226460c01b610792565b6133416772d8c4ac89b1de5e60c01b610792565b3373ffffffffffffffffffffffffffffffffffffffff163273ffffffffffffffffffffffffffffffffffffffff16146133af576040517f08c379a00000000000000000000000000000000000000000000000000000000081526004016133a69061693a565b60405180910390fd5b6133c367124e087cb3c716cb60c01b610792565b6133d7671f4b3e3afb31fba360c01b610792565b6133eb679c810256f8ac1f1760c01b610792565b6133ff676dd203e1cc12325660c01b610792565b600a60009054906101000a900460ff161561344f576040517f08c379a0000000000000000000000000000000000000000000000000000000008152600401613446906169a6565b60405180910390fd5b613463671ed9acc05548656760c01b610792565b6134776772a1c8d3d238e9b260c01b610792565b61348b67e9f9178e83d7ac2860c01b610792565b61349f6705ff4c8d3e8cffcb60c01b610792565b6134b36768cd1153f45e975060c01b610792565b6134c76769ababaa8a8506b260c01b610792565b6000816040516020016134da91906171e6565b60405160208183030381529060405280519060200120905061350667cc8f162159e004fa60c01b610792565b61351a67cabf96746ec6830a60c01b610792565b61352482826151e4565b5050565b61353c6708e0ae6431cd357560c01b610792565b613550676625b41eef717a9c60c01b610792565b61356467424edd69aaa529f760c01b610792565b613578675f2c499d40ff854d60c01b610792565b61358c67b0e70c159cad0b7260c01b610792565b600c60003373ffffffffffffffffffffffffffffffffffffffff1673ffffffffffffffffffffffffffffffffffffffff16815260200190815260200160002060009054906101000a900460ff1680156135f557506135f46775caa2ba275f4d2860c01b613c4b565b5b806136695750600d60009054906101000a900473ffffffffffffffffffffffffffffffffffffffff1673ffffffffffffffffffffffffffffffffffffffff163373ffffffffffffffffffffffffffffffffffffffff16148015613668575061366767d45bcfc309163b9f60c01b613c4b565b5b5b6136a8576040517f08c379a000000000000000000000000000000000000000000000000000000000815260040161369f90616bd3565b60405180910390fd5b6136bc67f8eb90a27a1a02ed60c01b610792565b6136d067606f5bf6ad621b2f60c01b610792565b6136e4676c991369ad6e7e9760c01b610792565b6136f867b0cc9cc9633ce68360c01b610792565b61370c675dae3de08ba7c53560c01b610792565b6137206791fe1c0f1a4130b860c01b610792565b61373467cbe892841bba226460c01b610792565b6137486772d8c4ac89b1de5e60c01b610792565b3373ffffffffffffffffffffffffffffffffffffffff163273ffffffffffffffffffffffffffffffffffffffff16146137b6576040517f08c379a00000000000000000000000000000000000000000000000000000000081526004016137ad9061693a565b60405180910390fd5b6137ca67124e087cb3c716cb60c01b610792565b6137de671f4b3e3afb31fba360c01b610792565b6137f2679c810256f8ac1f1760c01b610792565b613806676dd203e1cc12325660c01b610792565b600a60009054906101000a900460ff1615613856576040517f08c379a000000000000000000000000000000000000000000000000000000000815260040161384d906169a6565b60405180910390fd5b61386a671ed9acc05548656760c01b610792565b61387e6772a1c8d3d238e9b260c01b610792565b61389267dab815637319b34960c01b610792565b6138a667da12d573507e397760c01b610792565b6138ba67485bbddceae27c7560c01b610792565b6138ce6756f7bb087a10c67a60c01b610792565b6138e26741abf3b6cde4187c60c01b610792565b600073ffffffffffffffffffffffffffffffffffffffff168173ffffffffffffffffffffffffffffffffffffffff1603613951576040517f08c379a000000000000000000000000000000000000000000000000000000000815260040161394890617258565b60405180910390fd5b613965673892d7a2d1589bd460c01b610792565b61397967d06939ff10ccffb960c01b610792565b61398d675b491a89625196c260c01b610792565b6139a167cbd68e2fcfaf1d7760c01b610792565b600c60008373ffffffffffffffffffffffffffffffffffffffff1673ffffffffffffffffffffffffffffffffffffffff16815260200190815260200160002060009054906101000a900460ff16613a2d576040517f08c379a0000000000000000000000000000000000000000000000000000000008152600401613a24906172ea565b60405180910390fd5b613a41673a029e9d9e1e6e8060c01b610792565b613a5567c4740c0b39ade0f360c01b610792565b613a6967a4126e5eff97fa6460c01b610792565b613a7d671546d25fdb9bb80d60c01b610792565b600c60008273ffffffffffffffffffffffffffffffffffffffff1673ffffffffffffffffffffffffffffffffffffffff16815260200190815260200160002060009054906101000a900460ff1615613b0a576040517f08c379a0000000000000000000000000000000000000000000000000000000008152600401613b019061737c565b60405180910390fd5b613b1e6742c8f651ced40d8f60c01b610792565b613b3267859470f39383b9b260c01b610792565b613b4667c8655aa1c514b8b160c01b610792565b60008282600854604051602001613b5f939291906173e8565b604051602081830303815290604052805190602001209050613b8b676064c3e9c1bcbd9160c01b610792565b613b9f6760c1d36def58b58760c01b610792565b613baa8383836156fe565b505050565b600073ffffffffffffffffffffffffffffffffffffffff168273ffffffffffffffffffffffffffffffffffffffff1603613c215760006040517fec442f05000000000000000000000000000000000000000000000000000000008152600401613c189190616379565b60405180910390fd5b613c2d60008383615e67565b5050565b600033905090565b613c46838383600161608c565b505050565b600060019050919050565b6000613c628484612c35565b90507fffffffffffffffffffffffffffffffffffffffffffffffffffffffffffffffff811015613ce55781811015613cd5578281836040517ffb8f41b2000000000000000000000000000000000000000000000000000000008152600401613ccc93929190617430565b60405180910390fd5b613ce48484848403600061608c565b5b50505050565b600073ffffffffffffffffffffffffffffffffffffffff168373ffffffffffffffffffffffffffffffffffffffff1603613d5d5760006040517f96c6fd1e000000000000000000000000000000000000000000000000000000008152600401613d549190616379565b60405180910390fd5b600073ffffffffffffffffffffffffffffffffffffffff168273ffffffffffffffffffffffffffffffffffffffff1603613dcf5760006040517fec442f05000000000000000000000000000000000000000000000000000000008152600401613dc69190616379565b60405180910390fd5b613dda838383615e67565b505050565b613df3670f2af68fc90c7a6360c01b610792565b80613e086756606941532d998460c01b610792565b613e1c670f39dd7affb1e7ed60c01b610792565b613e3067daf59751d71be97b60c01b610792565b60005b600b8054905081101561402b57613e54675af11efd55f94a7f60c01b610792565b613e6867e3a9b4aaa548389660c01b610792565b600e60008381526020019081526020016000206000600b8381548110613e9157613e90617467565b5b9060005260206000200160009054906101000a900473ffffffffffffffffffffffffffffffffffffffff1673ffffffffffffffffffffffffffffffffffffffff1673ffffffffffffffffffffffffffffffffffffffff16815260200190815260200160002060009054906101000a900460ff161561400957613f1d67dc80be5e32efe35260c01b610792565b613f3167c5b29a0bac47e40d60c01b610792565b60076000815480929190613f4490617496565b9190505550613f5d67fbc274b6d354cbc060c01b610792565b6000600e60008481526020019081526020016000206000600b8481548110613f8857613f87617467565b5b9060005260206000200160009054906101000a900473ffffffffffffffffffffffffffffffffffffffff1673ffffffffffffffffffffffffffffffffffffffff1673ffffffffffffffffffffffffffffffffffffffff16815260200190815260200160002060006101000a81548160ff02191690831515021790555061401e565b61401d67ab943f2e161a045660c01b610792565b5b8080600101915050613e33565b5061404067cf835adf38c86f7c60c01b610792565b61405467c52128a66f52237360c01b610792565b61406867c34569649db67a3c60c01b610792565b600360075410156140ae576040517f08c379a00000000000000000000000000000000000000000000000000000000081526004016140a590617550565b60405180910390fd5b6140c2675d44daa520fcc46060c01b610792565b6140d667891eefe4c1d9c2a860c01b610792565b60006007819055506140f2676fba0bc18282fc7960c01b610792565b61410667f95c539545f0bd9160c01b610792565b61411a67d7962eaf02f7ce9a60c01b610792565b61412e679ba50675b7dcd50260c01b610792565b61414267cc53ac31f8f9b14760c01b610792565b61415667d3f769099b65408760c01b610792565b600a60009054906101000a900460ff166141a5576040517f08c379a000000000000000000000000000000000000000000000000000000000815260040161419c906175bc565b60405180910390fd5b6141b967f53c6e8b9c3658a560c01b610792565b6141cd67d38b99286e7ff2c360c01b610792565b6000600a60006101000a81548160ff0219169083151502179055505050565b61420067ba27d1679d0b2d7460c01b610792565b806142156756606941532d998460c01b610792565b614229670f39dd7affb1e7ed60c01b610792565b61423d67daf59751d71be97b60c01b610792565b60005b600b8054905081101561443857614261675af11efd55f94a7f60c01b610792565b61427567e3a9b4aaa548389660c01b610792565b600e60008381526020019081526020016000206000600b838154811061429e5761429d617467565b5b9060005260206000200160009054906101000a900473ffffffffffffffffffffffffffffffffffffffff1673ffffffffffffffffffffffffffffffffffffffff1673ffffffffffffffffffffffffffffffffffffffff16815260200190815260200160002060009054906101000a900460ff16156144165761432a67dc80be5e32efe35260c01b610792565b61433e67c5b29a0bac47e40d60c01b610792565b6007600081548092919061435190617496565b919050555061436a67fbc274b6d354cbc060c01b610792565b6000600e60008481526020019081526020016000206000600b848154811061439557614394617467565b5b9060005260206000200160009054906101000a900473ffffffffffffffffffffffffffffffffffffffff1673ffffffffffffffffffffffffffffffffffffffff1673ffffffffffffffffffffffffffffffffffffffff16815260200190815260200160002060006101000a81548160ff02191690831515021790555061442b565b61442a67ab943f2e161a045660c01b610792565b5b8080600101915050614240565b5061444d67cf835adf38c86f7c60c01b610792565b61446167c52128a66f52237360c01b610792565b61447567c34569649db67a3c60c01b610792565b600360075410156144bb576040517f08c379a00000000000000000000000000000000000000000000000000000000081526004016144b290617550565b60405180910390fd5b6144cf675d44daa520fcc46060c01b610792565b6144e367891eefe4c1d9c2a860c01b610792565b60006007819055506144ff676fba0bc18282fc7960c01b610792565b6145136708dd4bccf047567f60c01b610792565b614527679b4285ce71fcf5ac60c01b610792565b61453b67c0fe9092e4646cd260c01b610792565b61454f670711dda847991a0160c01b610792565b6000600d60009054906101000a900473ffffffffffffffffffffffffffffffffffffffff16905061458a6790b70ac8305b57ff60c01b610792565b83600d60006101000a81548173ffffffffffffffffffffffffffffffffffffffff021916908373ffffffffffffffffffffffffffffffffffffffff1602179055506145df6731cb5c42cbdc90a260c01b610792565b6145f3675d6032dd9b9330cf60c01b610792565b8373ffffffffffffffffffffffffffffffffffffffff168173ffffffffffffffffffffffffffffffffffffffff167f6a7fb6694616d75391385b86c21a1cc2628072753f9c7da9731e7b1b083a55e460405160405180910390a350505050565b61466767f87b20af442fe2c160c01b610792565b8061467c6756606941532d998460c01b610792565b614690670f39dd7affb1e7ed60c01b610792565b6146a467daf59751d71be97b60c01b610792565b60005b600b8054905081101561489f576146c8675af11efd55f94a7f60c01b610792565b6146dc67e3a9b4aaa548389660c01b610792565b600e60008381526020019081526020016000206000600b838154811061470557614704617467565b5b9060005260206000200160009054906101000a900473ffffffffffffffffffffffffffffffffffffffff1673ffffffffffffffffffffffffffffffffffffffff1673ffffffffffffffffffffffffffffffffffffffff16815260200190815260200160002060009054906101000a900460ff161561487d5761479167dc80be5e32efe35260c01b610792565b6147a567c5b29a0bac47e40d60c01b610792565b600760008154809291906147b890617496565b91905055506147d167fbc274b6d354cbc060c01b610792565b6000600e60008481526020019081526020016000206000600b84815481106147fc576147fb617467565b5b9060005260206000200160009054906101000a900473ffffffffffffffffffffffffffffffffffffffff1673ffffffffffffffffffffffffffffffffffffffff1673ffffffffffffffffffffffffffffffffffffffff16815260200190815260200160002060006101000a81548160ff021916908315150217905550614892565b61489167ab943f2e161a045660c01b610792565b5b80806001019150506146a7565b506148b467cf835adf38c86f7c60c01b610792565b6148c867c52128a66f52237360c01b610792565b6148dc67c34569649db67a3c60c01b610792565b60036007541015614922576040517f08c379a000000000000000000000000000000000000000000000000000000000815260040161491990617550565b60405180910390fd5b614936675d44daa520fcc46060c01b610792565b61494a67891eefe4c1d9c2a860c01b610792565b6000600781905550614966676fba0bc18282fc7960c01b610792565b61497a67cfe1dfee1bbb351160c01b610792565b61498e67e802134d9fe1412b60c01b610792565b6149a267992aab34699ce83460c01b610792565b6149b667690ca890915e24ab60c01b610792565b6149ca677f4897ae5cb1dede60c01b610792565b600a60009054906101000a900460ff1615614a1a576040517f08c379a0000000000000000000000000000000000000000000000000000000008152600401614a1190617628565b60405180910390fd5b614a2e679724082e47b170a660c01b610792565b614a4267157a7ced3446f11e60c01b610792565b6001600a60006101000a81548160ff0219169083151502179055505050565b614a7567b208207aea55cfc160c01b610792565b80614a8a6756606941532d998460c01b610792565b614a9e670f39dd7affb1e7ed60c01b610792565b614ab267daf59751d71be97b60c01b610792565b60005b600b80549050811015614cad57614ad6675af11efd55f94a7f60c01b610792565b614aea67e3a9b4aaa548389660c01b610792565b600e60008381526020019081526020016000206000600b8381548110614b1357614b12617467565b5b9060005260206000200160009054906101000a900473ffffffffffffffffffffffffffffffffffffffff1673ffffffffffffffffffffffffffffffffffffffff1673ffffffffffffffffffffffffffffffffffffffff16815260200190815260200160002060009054906101000a900460ff1615614c8b57614b9f67dc80be5e32efe35260c01b610792565b614bb367c5b29a0bac47e40d60c01b610792565b60076000815480929190614bc690617496565b9190505550614bdf67fbc274b6d354cbc060c01b610792565b6000600e60008481526020019081526020016000206000600b8481548110614c0a57614c09617467565b5b9060005260206000200160009054906101000a900473ffffffffffffffffffffffffffffffffffffffff1673ffffffffffffffffffffffffffffffffffffffff1673ffffffffffffffffffffffffffffffffffffffff16815260200190815260200160002060006101000a81548160ff021916908315150217905550614ca0565b614c9f67ab943f2e161a045660c01b610792565b5b8080600101915050614ab5565b50614cc267cf835adf38c86f7c60c01b610792565b614cd667c52128a66f52237360c01b610792565b614cea67c34569649db67a3c60c01b610792565b60036007541015614d30576040517f08c379a0000000000000000000000000000000000000000000000000000000008152600401614d2790617550565b60405180910390fd5b614d44675d44daa520fcc46060c01b610792565b614d5867891eefe4c1d9c2a860c01b610792565b6000600781905550614d74676fba0bc18282fc7960c01b610792565b614d886789f0208254fb672960c01b610792565b614d9c67ecd0d76b395a896160c01b610792565b614db06726c18f3ab1ef7db360c01b610792565b614dc4678e61767d195c29f460c01b610792565b614dd8672624fd97727bdfb760c01b610792565b600060065411614e1d576040517f08c379a0000000000000000000000000000000000000000000000000000000008152600401614e1490617694565b60405180910390fd5b614e3167dc01542a04997c9760c01b610792565b614e456790ff334f6cf7b87160c01b610792565b614e59673903dcdf589b41d460c01b610792565b6000614e6f67e99e37c92cf7fb5f60c01b610792565b614e836729f0b569a62c587060c01b610792565b600560085411614ec257614ea1671d722a167a32bd1c60c01b610792565b614eb5676a2ff2914fdbc0a360c01b610792565b6005600981905550614f5b565b614ed6678d284cb4c1ef1fb960c01b610792565b614eea6706217a51b936a58f60c01b610792565b600760085411614f2957614f08679f4b4f8d028e72c360c01b610792565b614f1c6765766744425d934160c01b610792565b6004600981905550614f5a565b614f3d6779122d1c2a258d1360c01b610792565b614f5167ba4bbfe3682f107f60c01b610792565b60036009819055505b5b614f6f67924af14dddf3e51960c01b610792565b614f7d600654600954616263565b9050614f9367430971ad01e9352260c01b610792565b614fa7678cb7b42f494e0a7360c01b610792565b600654811115614fe357614fc56779d626307f2a1bc160c01b610792565b614fd967fa4096ee9c3ff95660c01b610792565b6006549050614ff8565b614ff7673cc1a87695b4ecaf60c01b610792565b5b61500b66b9b9f6f95a56c260c01b610792565b806006600082825461501d91906176b4565b92505081905550615038674cbb6f83431e179e60c01b610792565b61504c67c0ad75393b13d11160c01b610792565b615078600d60009054906101000a900473ffffffffffffffffffffffffffffffffffffffff1682613baf565b61508c67902aecaa81ec1e8160c01b610792565b6150a067ca10402d1bdd7c0660c01b610792565b7fea91ec69d9ab5a214205bad93781970df8c1f8fa5321a97b10a6cbbe99c29d9c600854826006546040516150d7939291906176e8565b60405180910390a16150f3670bc3ad082702358660c01b610792565b6001600860008282546151069190616a61565b92505081905550505050565b60026005540361514e576040517f3ee5aeb500000000000000000000000000000000000000000000000000000000815260040160405180910390fd5b6002600581905550565b600073ffffffffffffffffffffffffffffffffffffffff168273ffffffffffffffffffffffffffffffffffffffff16036151ca5760006040517f96c6fd1e0000000000000000000000000000000000000000000000000000000081526004016151c19190616379565b60405180910390fd5b6151d682600083615e67565b5050565b6001600581905550565b6151f8675a3eec0e91c0df5e60c01b610792565b8061520d6756606941532d998460c01b610792565b615221670f39dd7affb1e7ed60c01b610792565b61523567daf59751d71be97b60c01b610792565b60005b600b8054905081101561543057615259675af11efd55f94a7f60c01b610792565b61526d67e3a9b4aaa548389660c01b610792565b600e60008381526020019081526020016000206000600b838154811061529657615295617467565b5b9060005260206000200160009054906101000a900473ffffffffffffffffffffffffffffffffffffffff1673ffffffffffffffffffffffffffffffffffffffff1673ffffffffffffffffffffffffffffffffffffffff16815260200190815260200160002060009054906101000a900460ff161561540e5761532267dc80be5e32efe35260c01b610792565b61533667c5b29a0bac47e40d60c01b610792565b6007600081548092919061534990617496565b919050555061536267fbc274b6d354cbc060c01b610792565b6000600e60008481526020019081526020016000206000600b848154811061538d5761538c617467565b5b9060005260206000200160009054906101000a900473ffffffffffffffffffffffffffffffffffffffff1673ffffffffffffffffffffffffffffffffffffffff1673ffffffffffffffffffffffffffffffffffffffff16815260200190815260200160002060006101000a81548160ff021916908315150217905550615423565b61542267ab943f2e161a045660c01b610792565b5b8080600101915050615238565b5061544567cf835adf38c86f7c60c01b610792565b61545967c52128a66f52237360c01b610792565b61546d67c34569649db67a3c60c01b610792565b600360075410156154b3576040517f08c379a00000000000000000000000000000000000000000000000000000000081526004016154aa90617550565b60405180910390fd5b6154c7675d44daa520fcc46060c01b610792565b6154db67891eefe4c1d9c2a860c01b610792565b60006007819055506154f7676fba0bc18282fc7960c01b610792565b61550b67f8b356c7f45afcb060c01b610792565b61551f6772ad7f816725791160c01b610792565b6155336735e9e753a7b2c6f860c01b610792565b615547670b22c6978f62d75860c01b610792565b61555b677f91ce31434683f260c01b610792565b8247101561559e576040517f08c379a00000000000000000000000000000000000000000000000000000000081526004016155959061776b565b60405180910390fd5b6155b2672183c9de2ca72f1760c01b610792565b6155c667e9733ef43cf4390160c01b610792565b6155da67f8c5a797ae49ff0860c01b610792565b6000600d60009054906101000a900473ffffffffffffffffffffffffffffffffffffffff1673ffffffffffffffffffffffffffffffffffffffff168460405161562290617119565b60006040518083038185875af1925050503d806000811461565f576040519150601f19603f3d011682016040523d82523d6000602084013e615664565b606091505b5050905061567c67473337ce172f696e60c01b610792565b61569067c5ec8a090b4652c360c01b610792565b6156a4673ad12e7f743355b360c01b610792565b806156e4576040517f08c379a00000000000000000000000000000000000000000000000000000000081526004016156db906177d7565b60405180910390fd5b6156f867ed9813edfe3c32b360c01b610792565b50505050565b61571267bfeafa24d691c2b660c01b610792565b806157276756606941532d998460c01b610792565b61573b670f39dd7affb1e7ed60c01b610792565b61574f67daf59751d71be97b60c01b610792565b60005b600b8054905081101561594a57615773675af11efd55f94a7f60c01b610792565b61578767e3a9b4aaa548389660c01b610792565b600e60008381526020019081526020016000206000600b83815481106157b0576157af617467565b5b9060005260206000200160009054906101000a900473ffffffffffffffffffffffffffffffffffffffff1673ffffffffffffffffffffffffffffffffffffffff1673ffffffffffffffffffffffffffffffffffffffff16815260200190815260200160002060009054906101000a900460ff16156159285761583c67dc80be5e32efe35260c01b610792565b61585067c5b29a0bac47e40d60c01b610792565b6007600081548092919061586390617496565b919050555061587c67fbc274b6d354cbc060c01b610792565b6000600e60008481526020019081526020016000206000600b84815481106158a7576158a6617467565b5b9060005260206000200160009054906101000a900473ffffffffffffffffffffffffffffffffffffffff1673ffffffffffffffffffffffffffffffffffffffff1673ffffffffffffffffffffffffffffffffffffffff16815260200190815260200160002060006101000a81548160ff02191690831515021790555061593d565b61593c67ab943f2e161a045660c01b610792565b5b8080600101915050615752565b5061595f67cf835adf38c86f7c60c01b610792565b61597367c52128a66f52237360c01b610792565b61598767c34569649db67a3c60c01b610792565b600360075410156159cd576040517f08c379a00000000000000000000000000000000000000000000000000000000081526004016159c490617550565b60405180910390fd5b6159e1675d44daa520fcc46060c01b610792565b6159f567891eefe4c1d9c2a860c01b610792565b6000600781905550615a11676fba0bc18282fc7960c01b610792565b615a2567295d0602c27ce01760c01b610792565b615a39678e20e8e749d2d1ea60c01b610792565b615a4d67f827e6c514ce9e5f60c01b610792565b615a6167ab8619196f9d33fc60c01b610792565b60005b600b80549050811015615c8757615a856732224beff8d8a6db60c01b610792565b615a9967a2ce619d4632200960c01b610792565b8473ffffffffffffffffffffffffffffffffffffffff16600b8281548110615ac457615ac3617467565b5b9060005260206000200160009054906101000a900473ffffffffffffffffffffffffffffffffffffffff1673ffffffffffffffffffffffffffffffffffffffff1603615c6657615b1e672c0141406d284d0160c01b610792565b615b32676d8a63443760074d60c01b610792565b600b6001600b80549050615b4691906176b4565b81548110615b5757615b56617467565b5b9060005260206000200160009054906101000a900473ffffffffffffffffffffffffffffffffffffffff16600b8281548110615b9657615b95617467565b5b9060005260206000200160006101000a81548173ffffffffffffffffffffffffffffffffffffffff021916908373ffffffffffffffffffffffffffffffffffffffff160217905550615bf267a4e657901b12e64460c01b610792565b615c0667e299ed22ccf9727760c01b610792565b600b805480615c1857615c176177f7565b5b6001900381819060005260206000200160006101000a81549073ffffffffffffffffffffffffffffffffffffffff02191690559055615c6167d5a377552edf22e160c01b610792565b615c87565b615c7a67afabb4b7b558d73460c01b610792565b8080600101915050615a64565b50615c9c6703d67852edff180660c01b610792565b6000600c60008673ffffffffffffffffffffffffffffffffffffffff1673ffffffffffffffffffffffffffffffffffffffff16815260200190815260200160002060006101000a81548160ff021916908315150217905550615d0867c7359f24d722b1dc60c01b610792565b615d1c67ee7f87e95ac0325060c01b610792565b600b839080600181540180825580915050600190039060005260206000200160009091909190916101000a81548173ffffffffffffffffffffffffffffffffffffffff021916908373ffffffffffffffffffffffffffffffffffffffff160217905550615d9367df4f645d37e17f8560c01b610792565b6001600c60008573ffffffffffffffffffffffffffffffffffffffff1673ffffffffffffffffffffffffffffffffffffffff16815260200190815260200160002060006101000a81548160ff021916908315150217905550615dff673693f8a4ceae00fd60c01b610792565b615e1367cde20153dcb5108060c01b610792565b8273ffffffffffffffffffffffffffffffffffffffff167f712d53ab219462e032d2ff05d9215a37b882fa592cca6e29c3d8c6a2bdc27b2483604051615e599190616d19565b60405180910390a250505050565b600073ffffffffffffffffffffffffffffffffffffffff168373ffffffffffffffffffffffffffffffffffffffff1603615eb9578060026000828254615ead9190616a61565b92505081905550615f8c565b60008060008573ffffffffffffffffffffffffffffffffffffffff1673ffffffffffffffffffffffffffffffffffffffff16815260200190815260200160002054905081811015615f45578381836040517fe450d38c000000000000000000000000000000000000000000000000000000008152600401615f3c93929190617430565b60405180910390fd5b8181036000808673ffffffffffffffffffffffffffffffffffffffff1673ffffffffffffffffffffffffffffffffffffffff16815260200190815260200160002081905550505b600073ffffffffffffffffffffffffffffffffffffffff168273ffffffffffffffffffffffffffffffffffffffff1603615fd55780600260008282540392505081905550616022565b806000808473ffffffffffffffffffffffffffffffffffffffff1673ffffffffffffffffffffffffffffffffffffffff168152602001908152602001600020600082825401925050819055505b8173ffffffffffffffffffffffffffffffffffffffff168373ffffffffffffffffffffffffffffffffffffffff167fddf252ad1be2c89b69c2b068fc378daa952ba7f163c4a11628f55a4df523b3ef8360405161607f91906164f7565b60405180910390a3505050565b600073ffffffffffffffffffffffffffffffffffffffff168473ffffffffffffffffffffffffffffffffffffffff16036160fe5760006040517fe602df050000000000000000000000000000000000000000000000000000000081526004016160f59190616379565b60405180910390fd5b600073ffffffffffffffffffffffffffffffffffffffff168373ffffffffffffffffffffffffffffffffffffffff16036161705760006040517f94280d620000000000000000000000000000000000000000000000000000000081526004016161679190616379565b60405180910390fd5b81600160008673ffffffffffffffffffffffffffffffffffffffff1673ffffffffffffffffffffffffffffffffffffffff16815260200190815260200160002060008573ffffffffffffffffffffffffffffffffffffffff1673ffffffffffffffffffffffffffffffffffffffff16815260200190815260200160002081905550801561625d578273ffffffffffffffffffffffffffffffffffffffff168473ffffffffffffffffffffffffffffffffffffffff167f8c5be1e5ebec7d5bd14f71427d1e84f3dd0314c0f7b2291e5b200ac8c7c3b9258460405161625491906164f7565b60405180910390a35b50505050565b600061627967589f491b0910fb8a60c01b610792565b61628d6746180858fe3c796b60c01b610792565b6162a1678d8ca574efad27b660c01b610792565b606482846162af9190617826565b6162b99190617897565b905092915050565b6000604051905090565b600080fd5b600080fd5b6000819050919050565b6162e8816162d5565b81146162f357600080fd5b50565b600081359050616305816162df565b92915050565b600060208284031215616321576163206162cb565b5b600061632f848285016162f6565b91505092915050565b600073ffffffffffffffffffffffffffffffffffffffff82169050919050565b600061636382616338565b9050919050565b61637381616358565b82525050565b600060208201905061638e600083018461636a565b92915050565b600081519050919050565b600082825260208201905092915050565b60005b838110156163ce5780820151818401526020810190506163b3565b60008484015250505050565b6000601f19601f8301169050919050565b60006163f682616394565b616400818561639f565b93506164108185602086016163b0565b616419816163da565b840191505092915050565b6000602082019050818103600083015261643e81846163eb565b905092915050565b61644f81616358565b811461645a57600080fd5b50565b60008135905061646c81616446565b92915050565b60008060408385031215616489576164886162cb565b5b60006164978582860161645d565b92505060206164a8858286016162f6565b9150509250929050565b60008115159050919050565b6164c7816164b2565b82525050565b60006020820190506164e260008301846164be565b92915050565b6164f1816162d5565b82525050565b600060208201905061650c60008301846164e8565b92915050565b600080fd5b600080fd5b7f4e487b7100000000000000000000000000000000000000000000000000000000600052604160045260246000fd5b616554826163da565b810181811067ffffffffffffffff821117156165735761657261651c565b5b80604052505050565b60006165866162c1565b9050616592828261654b565b919050565b600067ffffffffffffffff8211156165b2576165b161651c565b5b6165bb826163da565b9050602081019050919050565b82818337600083830152505050565b60006165ea6165e584616597565b61657c565b90508281526020810184848401111561660657616605616517565b5b6166118482856165c8565b509392505050565b600082601f83011261662e5761662d616512565b5b813561663e8482602086016165d7565b91505092915050565b60006020828403121561665d5761665c6162cb565b5b600082013567ffffffffffffffff81111561667b5761667a6162d0565b5b61668784828501616619565b91505092915050565b6000806000606084860312156166a9576166a86162cb565b5b60006166b78682870161645d565b93505060206166c88682870161645d565b92505060406166d9868287016162f6565b9150509250925092565b6000819050919050565b6166f6816166e3565b811461670157600080fd5b50565b600081359050616713816166ed565b92915050565b600080604083850312156167305761672f6162cb565b5b600061673e85828601616704565b925050602061674f8582860161645d565b9150509250929050565b60006020828403121561676f5761676e6162cb565b5b600061677d8482850161645d565b91505092915050565b600060ff82169050919050565b61679c81616786565b82525050565b60006020820190506167b76000830184616793565b92915050565b600080604083850312156167d4576167d36162cb565b5b600083013567ffffffffffffffff8111156167f2576167f16162d0565b5b6167fe85828601616619565b925050602061680f858286016162f6565b9150509250929050565b600080600060608486031215616832576168316162cb565b5b600084013567ffffffffffffffff8111156168505761684f6162d0565b5b61685c86828701616619565b935050602061686d8682870161645d565b925050604061687e8682870161645d565b9150509250925092565b6000806040838503121561689f5761689e6162cb565b5b60006168ad8582860161645d565b92505060206168be8582860161645d565b9150509250929050565b7f4f6e6c792074686520454f412063616e2065786563757465207468697320667560008201527f6e6374696f6e0000000000000000000000000000000000000000000000000000602082015250565b600061692460268361639f565b915061692f826168c8565b604082019050919050565b6000602082019050818103600083015261695381616917565b9050919050565b7f436f6e7472616374206973207061757365642021000000000000000000000000600082015250565b600061699060148361639f565b915061699b8261695a565b602082019050919050565b600060208201905081810360008301526169bf81616983565b9050919050565b7f416d6f756e74206d7573742062652067726561746572207468616e2030000000600082015250565b60006169fc601d8361639f565b9150616a07826169c6565b602082019050919050565b60006020820190508181036000830152616a2b816169ef565b9050919050565b7f4e487b7100000000000000000000000000000000000000000000000000000000600052601160045260246000fd5b6000616a6c826162d5565b9150616a77836162d5565b9250828201905080821115616a8f57616a8e616a32565b5b92915050565b7f43616e6e6f74206d696e74206d6f7265207468616e20746f74616c207375707060008201527f6c79000000000000000000000000000000000000000000000000000000000000602082015250565b6000616af160228361639f565b9150616afc82616a95565b604082019050919050565b60006020820190508181036000830152616b2081616ae4565b9050919050565b7f4e487b7100000000000000000000000000000000000000000000000000000000600052602260045260246000fd5b60006002820490506001821680616b6e57607f821691505b602082108103616b8157616b80616b27565b5b50919050565b7f4e6f7420616e20617574686f72697a6564206163636f756e742e000000000000600082015250565b6000616bbd601a8361639f565b9150616bc882616b87565b602082019050919050565b60006020820190508181036000830152616bec81616bb0565b9050919050565b600081905092915050565b6000616c0982616394565b616c138185616bf3565b9350616c238185602086016163b0565b80840191505092915050565b6000819050919050565b616c4a616c45826162d5565b616c2f565b82525050565b6000616c5c8285616bfe565b9150616c688284616c39565b6020820191508190509392505050565b7f4f776e657220616c726561647920617070726f7665642074686973207265717560008201527f6573742e00000000000000000000000000000000000000000000000000000000602082015250565b6000616cd460248361639f565b9150616cdf82616c78565b604082019050919050565b60006020820190508181036000830152616d0381616cc7565b9050919050565b616d13816166e3565b82525050565b6000602082019050616d2e6000830184616d0a565b92915050565b7f756e706175736500000000000000000000000000000000000000000000000000600082015250565b6000616d6a600783616bf3565b9150616d7582616d34565b600782019050919050565b6000616d8b82616d5d565b9150616d978284616c39565b60208201915081905092915050565b7f496e76616c69642053757065722041646d696e20616464726573732e00000000600082015250565b6000616ddc601c8361639f565b9150616de782616da6565b602082019050919050565b60006020820190508181036000830152616e0b81616dcf565b9050919050565b7f6368616e6765537570657241646d696e00000000000000000000000000000000600082015250565b6000616e48601083616bf3565b9150616e5382616e12565b601082019050919050565b6000616e6982616e3b565b9150616e758284616c39565b60208201915081905092915050565b6000604082019050616e99600083018561636a565b616ea660208301846164e8565b9392505050565b616eb6816164b2565b8114616ec157600080fd5b50565b600081519050616ed381616ead565b92915050565b600060208284031215616eef57616eee6162cb565b5b6000616efd84828501616ec4565b91505092915050565b7f7061757365000000000000000000000000000000000000000000000000000000600082015250565b6000616f3c600583616bf3565b9150616f4782616f06565b600582019050919050565b6000616f5d82616f2f565b9150616f698284616c39565b60208201915081905092915050565b60008160601b9050919050565b6000616f9082616f78565b9050919050565b6000616fa282616f85565b9050919050565b616fba616fb582616358565b616f97565b82525050565b6000616fcc8287616bfe565b9150616fd88286616fa9565b601482019150616fe88285616fa9565b601482019150616ff88284616c39565b60208201915081905095945050505050565b7f72656c65617365546f6b656e7300000000000000000000000000000000000000600082015250565b6000617040600d83616bf3565b915061704b8261700a565b600d82019050919050565b600061706182617033565b915061706d8284616c39565b60208201915081905092915050565b7f496e73756666696369656e742077544f4d41582062616c616e63650000000000600082015250565b60006170b2601b8361639f565b91506170bd8261707c565b602082019050919050565b600060208201905081810360008301526170e1816170a5565b9050919050565b600081905092915050565b50565b60006171036000836170e8565b915061710e826170f3565b600082019050919050565b6000617124826170f6565b9150819050919050565b7f5472616e73666572206661696c65640000000000000000000000000000000000600082015250565b6000617164600f8361639f565b915061716f8261712e565b602082019050919050565b6000602082019050818103600083015261719381617157565b9050919050565b7f617070726f766557697468647261770000000000000000000000000000000000600082015250565b60006171d0600f83616bf3565b91506171db8261719a565b600f82019050919050565b60006171f1826171c3565b91506171fd8284616c39565b60208201915081905092915050565b7f496e76616c6964206e6577206f776e657220616464726573732e000000000000600082015250565b6000617242601a8361639f565b915061724d8261720c565b602082019050919050565b6000602082019050818103600083015261727181617235565b9050919050565b7f4f776e657220746f2072656d6f7665206973206e6f7420696e20746865206c6960008201527f73742e0000000000000000000000000000000000000000000000000000000000602082015250565b60006172d460238361639f565b91506172df82617278565b604082019050919050565b60006020820190508181036000830152617303816172c7565b9050919050565b7f4e6577206f776e657220697320616c726561647920696e20746865206c69737460008201527f2e00000000000000000000000000000000000000000000000000000000000000602082015250565b600061736660218361639f565b91506173718261730a565b604082019050919050565b6000602082019050818103600083015261739581617359565b9050919050565b7f6368616e67654f776e6572000000000000000000000000000000000000000000600082015250565b60006173d2600b83616bf3565b91506173dd8261739c565b600b82019050919050565b60006173f3826173c5565b91506173ff8286616fa9565b60148201915061740f8285616fa9565b60148201915061741f8284616c39565b602082019150819050949350505050565b6000606082019050617445600083018661636a565b61745260208301856164e8565b61745f60408301846164e8565b949350505050565b7f4e487b7100000000000000000000000000000000000000000000000000000000600052603260045260246000fd5b60006174a1826162d5565b91507fffffffffffffffffffffffffffffffffffffffffffffffffffffffffffffffff82036174d3576174d2616a32565b5b600182019050919050565b7f4e6f7420656e6f75676820617070726f76616c732066726f6d206f776e65727360008201527f2e00000000000000000000000000000000000000000000000000000000000000602082015250565b600061753a60218361639f565b9150617545826174de565b604082019050919050565b600060208201905081810360008301526175698161752d565b9050919050565b7f436f6e7472616374206973206e6f742070617573656400000000000000000000600082015250565b60006175a660168361639f565b91506175b182617570565b602082019050919050565b600060208201905081810360008301526175d581617599565b9050919050565b7f416c726561647920706175736564000000000000000000000000000000000000600082015250565b6000617612600e8361639f565b915061761d826175dc565b602082019050919050565b6000602082019050818103600083015261764181617605565b9050919050565b7f416c6c20746f6b656e732068617665206265656e2072656c6561736564000000600082015250565b600061767e601d8361639f565b915061768982617648565b602082019050919050565b600060208201905081810360008301526176ad81617671565b9050919050565b60006176bf826162d5565b91506176ca836162d5565b92508282039050818111156176e2576176e1616a32565b5b92915050565b60006060820190506176fd60008301866164e8565b61770a60208301856164e8565b61771760408301846164e8565b949350505050565b7f496e73756666696369656e7420636f6e74726163742062616c616e6365000000600082015250565b6000617755601d8361639f565b91506177608261771f565b602082019050919050565b6000602082019050818103600083015261778481617748565b9050919050565b7f5769746864726177616c206661696c6564000000000000000000000000000000600082015250565b60006177c160118361639f565b91506177cc8261778b565b602082019050919050565b600060208201905081810360008301526177f0816177b4565b9050919050565b7f4e487b7100000000000000000000000000000000000000000000000000000000600052603160045260246000fd5b6000617831826162d5565b915061783c836162d5565b925082820261784a816162d5565b9150828204841483151761786157617860616a32565b5b5092915050565b7f4e487b7100000000000000000000000000000000000000000000000000000000600052601260045260246000fd5b60006178a2826162d5565b91506178ad836162d5565b9250826178bd576178bc617868565b5b82820490509291505056fea2646970667358221220781716dd5a43d3e866a0257ec5f34b243e60e21cc69b01d413d815b0a3fac07464736f6c63430008180033","opcodes":"PUSH1 0x80 PUSH1 0x40 MSTORE PUSH11 0x5CA4EC2A79A7F67000000 PUSH11 0x14ADF4B7320334B9000000 PUSH3 0x28 SWAP2 SWAP1 PUSH3 0xA23 JUMP JUMPDEST PUSH1 0x6 SSTORE PUSH1 0x1 PUSH1 0x8 SSTORE PUSH1 0x5 PUSH1 0x9 SSTORE CALLVALUE DUP1 ISZERO PUSH3 0x42 JUMPI PUSH1 0x0 DUP1 REVERT JUMPDEST POP PUSH1 0x40 MLOAD PUSH3 0x8BC4 CODESIZE SUB DUP1 PUSH3 0x8BC4 DUP4 CODECOPY DUP2 DUP2 ADD PUSH1 0x40 MSTORE DUP2 ADD SWAP1 PUSH3 0x68 SWAP2 SWAP1 PUSH3 0xC4C JUMP JUMPDEST PUSH1 0x40 MLOAD DUP1 PUSH1 0x40 ADD PUSH1 0x40 MSTORE DUP1 PUSH1 0x5 DUP2 MSTORE PUSH1 0x20 ADD PUSH32 0x546F6D6178000000000000000000000000000000000000000000000000000000 DUP2 MSTORE POP PUSH1 0x40 MLOAD DUP1 PUSH1 0x40 ADD PUSH1 0x40 MSTORE DUP1 PUSH1 0x5 DUP2 MSTORE PUSH1 0x20 ADD PUSH32 0x544F4D4158000000000000000000000000000000000000000000000000000000 DUP2 MSTORE POP DUP2 PUSH1 0x3 SWAP1 DUP2 PUSH3 0xE5 SWAP2 SWAP1 PUSH3 0xEF3 JUMP JUMPDEST POP DUP1 PUSH1 0x4 SWAP1 DUP2 PUSH3 0xF7 SWAP2 SWAP1 PUSH3 0xEF3 JUMP JUMPDEST POP POP POP PUSH1 0x1 PUSH1 0x5 DUP2 SWAP1 SSTORE POP PUSH3 0x11E PUSH8 0x7CD59686F663E98F PUSH1 0xC0 SHL PUSH3 0x72A PUSH1 0x20 SHL PUSH1 0x20 SHR JUMP JUMPDEST PUSH3 0x13A PUSH8 0xBAD5D7B8912C015D PUSH1 0xC0 SHL PUSH3 0x72A PUSH1 0x20 SHL PUSH1 0x20 SHR JUMP JUMPDEST PUSH3 0x156 PUSH8 0xFC70B83C4818248F PUSH1 0xC0 SHL PUSH3 0x72A PUSH1 0x20 SHL PUSH1 0x20 SHR JUMP JUMPDEST PUSH3 0x172 PUSH8 0xE9FF9B3FBE1DE212 PUSH1 0xC0 SHL PUSH3 0x72A PUSH1 0x20 SHL PUSH1 0x20 SHR JUMP JUMPDEST PUSH1 0x5 DUP3 MLOAD EQ PUSH3 0x1B9 JUMPI PUSH1 0x40 MLOAD PUSH32 0x8C379A000000000000000000000000000000000000000000000000000000000 DUP2 MSTORE PUSH1 0x4 ADD PUSH3 0x1B0 SWAP1 PUSH3 0x103B JUMP JUMPDEST PUSH1 0x40 MLOAD DUP1 SWAP2 SUB SWAP1 REVERT JUMPDEST PUSH3 0x1D5 PUSH8 0x672818EF94E5014C PUSH1 0xC0 SHL PUSH3 0x72A PUSH1 0x20 SHL PUSH1 0x20 SHR JUMP JUMPDEST PUSH3 0x1F1 PUSH8 0x11C30F7C491EB7BC PUSH1 0xC0 SHL PUSH3 0x72A PUSH1 0x20 SHL PUSH1 0x20 SHR JUMP JUMPDEST PUSH3 0x20D PUSH8 0xE3734B848E8196C8 PUSH1 0xC0 SHL PUSH3 0x72A PUSH1 0x20 SHL PUSH1 0x20 SHR JUMP JUMPDEST PUSH1 0x0 JUMPDEST DUP3 MLOAD DUP2 LT ISZERO PUSH3 0x58D JUMPI PUSH3 0x236 PUSH8 0x494F04B9B82C6BC2 PUSH1 0xC0 SHL PUSH3 0x72A PUSH1 0x20 SHL PUSH1 0x20 SHR JUMP JUMPDEST PUSH3 0x252 PUSH8 0x6D14571CF5857620 PUSH1 0xC0 SHL PUSH3 0x72A PUSH1 0x20 SHL PUSH1 0x20 SHR JUMP JUMPDEST PUSH3 0x26E PUSH8 0x10BFD80256BB8B5C PUSH1 0xC0 SHL PUSH3 0x72A PUSH1 0x20 SHL PUSH1 0x20 SHR JUMP JUMPDEST PUSH1 0x0 PUSH20 0xFFFFFFFFFFFFFFFFFFFFFFFFFFFFFFFFFFFFFFFF AND DUP4 DUP3 DUP2 MLOAD DUP2 LT PUSH3 0x29C JUMPI PUSH3 0x29B PUSH3 0x105D JUMP JUMPDEST JUMPDEST PUSH1 0x20 MUL PUSH1 0x20 ADD ADD MLOAD PUSH20 0xFFFFFFFFFFFFFFFFFFFFFFFFFFFFFFFFFFFFFFFF AND SUB PUSH3 0x2FD JUMPI PUSH1 0x40 MLOAD PUSH32 0x8C379A000000000000000000000000000000000000000000000000000000000 DUP2 MSTORE PUSH1 0x4 ADD PUSH3 0x2F4 SWAP1 PUSH3 0x10DC JUMP JUMPDEST PUSH1 0x40 MLOAD DUP1 SWAP2 SUB SWAP1 REVERT JUMPDEST PUSH3 0x319 PUSH8 0x8671A4F7CCC659F7 PUSH1 0xC0 SHL PUSH3 0x72A PUSH1 0x20 SHL PUSH1 0x20 SHR JUMP JUMPDEST PUSH3 0x335 PUSH8 0x2C97266E1D9BD8EF PUSH1 0xC0 SHL PUSH3 0x72A PUSH1 0x20 SHL PUSH1 0x20 SHR JUMP JUMPDEST PUSH3 0x351 PUSH8 0xA764870D801D03D5 PUSH1 0xC0 SHL PUSH3 0x72A PUSH1 0x20 SHL PUSH1 0x20 SHR JUMP JUMPDEST PUSH3 0x36D PUSH8 0x3B27EC54B169EBA7 PUSH1 0xC0 SHL PUSH3 0x72A PUSH1 0x20 SHL PUSH1 0x20 SHR JUMP JUMPDEST PUSH1 0xC PUSH1 0x0 DUP5 DUP4 DUP2 MLOAD DUP2 LT PUSH3 0x387 JUMPI PUSH3 0x386 PUSH3 0x105D JUMP JUMPDEST JUMPDEST PUSH1 0x20 MUL PUSH1 0x20 ADD ADD MLOAD PUSH20 0xFFFFFFFFFFFFFFFFFFFFFFFFFFFFFFFFFFFFFFFF AND PUSH20 0xFFFFFFFFFFFFFFFFFFFFFFFFFFFFFFFFFFFFFFFF AND DUP2 MSTORE PUSH1 0x20 ADD SWAP1 DUP2 MSTORE PUSH1 0x20 ADD PUSH1 0x0 KECCAK256 PUSH1 0x0 SWAP1 SLOAD SWAP1 PUSH2 0x100 EXP SWAP1 DIV PUSH1 0xFF AND ISZERO PUSH3 0x41A JUMPI PUSH1 0x40 MLOAD PUSH32 0x8C379A000000000000000000000000000000000000000000000000000000000 DUP2 MSTORE PUSH1 0x4 ADD PUSH3 0x411 SWAP1 PUSH3 0x114E JUMP JUMPDEST PUSH1 0x40 MLOAD DUP1 SWAP2 SUB SWAP1 REVERT JUMPDEST PUSH3 0x436 PUSH8 0x2197B988F9C8DD83 PUSH1 0xC0 SHL PUSH3 0x72A PUSH1 0x20 SHL PUSH1 0x20 SHR JUMP JUMPDEST PUSH3 0x452 PUSH8 0xAC6473441AAA12C2 PUSH1 0xC0 SHL PUSH3 0x72A PUSH1 0x20 SHL PUSH1 0x20 SHR JUMP JUMPDEST PUSH3 0x46E PUSH8 0xACB6B6F0761373D2 PUSH1 0xC0 SHL PUSH3 0x72A PUSH1 0x20 SHL PUSH1 0x20 SHR JUMP JUMPDEST PUSH1 0xB DUP4 DUP3 DUP2 MLOAD DUP2 LT PUSH3 0x486 JUMPI PUSH3 0x485 PUSH3 0x105D JUMP JUMPDEST JUMPDEST PUSH1 0x20 MUL PUSH1 0x20 ADD ADD MLOAD SWAP1 DUP1 PUSH1 0x1 DUP2 SLOAD ADD DUP1 DUP3 SSTORE DUP1 SWAP2 POP POP PUSH1 0x1 SWAP1 SUB SWAP1 PUSH1 0x0 MSTORE PUSH1 0x20 PUSH1 0x0 KECCAK256 ADD PUSH1 0x0 SWAP1 SWAP2 SWAP1 SWAP2 SWAP1 SWAP2 PUSH2 0x100 EXP DUP2 SLOAD DUP2 PUSH20 0xFFFFFFFFFFFFFFFFFFFFFFFFFFFFFFFFFFFFFFFF MUL NOT AND SWAP1 DUP4 PUSH20 0xFFFFFFFFFFFFFFFFFFFFFFFFFFFFFFFFFFFFFFFF AND MUL OR SWAP1 SSTORE POP PUSH3 0x50A PUSH8 0x2CD6B1F2BF284DB8 PUSH1 0xC0 SHL PUSH3 0x72A PUSH1 0x20 SHL PUSH1 0x20 SHR JUMP JUMPDEST PUSH1 0x1 PUSH1 0xC PUSH1 0x0 DUP6 DUP5 DUP2 MLOAD DUP2 LT PUSH3 0x526 JUMPI PUSH3 0x525 PUSH3 0x105D JUMP JUMPDEST JUMPDEST PUSH1 0x20 MUL PUSH1 0x20 ADD ADD MLOAD PUSH20 0xFFFFFFFFFFFFFFFFFFFFFFFFFFFFFFFFFFFFFFFF AND PUSH20 0xFFFFFFFFFFFFFFFFFFFFFFFFFFFFFFFFFFFFFFFF AND DUP2 MSTORE PUSH1 0x20 ADD SWAP1 DUP2 MSTORE PUSH1 0x20 ADD PUSH1 0x0 KECCAK256 PUSH1 0x0 PUSH2 0x100 EXP DUP2 SLOAD DUP2 PUSH1 0xFF MUL NOT AND SWAP1 DUP4 ISZERO ISZERO MUL OR SWAP1 SSTORE POP DUP1 DUP1 PUSH1 0x1 ADD SWAP2 POP POP PUSH3 0x210 JUMP JUMPDEST POP PUSH3 0x5AA PUSH8 0xC71A3C946CEE85CD PUSH1 0xC0 SHL PUSH3 0x72A PUSH1 0x20 SHL PUSH1 0x20 SHR JUMP JUMPDEST PUSH3 0x5C6 PUSH8 0x51ABB84B9E34DE49 PUSH1 0xC0 SHL PUSH3 0x72A PUSH1 0x20 SHL PUSH1 0x20 SHR JUMP JUMPDEST PUSH3 0x5E2 PUSH8 0xFB8F0231FA608079 PUSH1 0xC0 SHL PUSH3 0x72A PUSH1 0x20 SHL PUSH1 0x20 SHR JUMP JUMPDEST PUSH1 0x0 PUSH20 0xFFFFFFFFFFFFFFFFFFFFFFFFFFFFFFFFFFFFFFFF AND DUP2 PUSH20 0xFFFFFFFFFFFFFFFFFFFFFFFFFFFFFFFFFFFFFFFF AND SUB PUSH3 0x654 JUMPI PUSH1 0x40 MLOAD PUSH32 0x8C379A000000000000000000000000000000000000000000000000000000000 DUP2 MSTORE PUSH1 0x4 ADD PUSH3 0x64B SWAP1 PUSH3 0x11C0 JUMP JUMPDEST PUSH1 0x40 MLOAD DUP1 SWAP2 SUB SWAP1 REVERT JUMPDEST PUSH3 0x670 PUSH8 0xA9931D8A1187770A PUSH1 0xC0 SHL PUSH3 0x72A PUSH1 0x20 SHL PUSH1 0x20 SHR JUMP JUMPDEST PUSH3 0x68C PUSH8 0x60558AB30CFD076A PUSH1 0xC0 SHL PUSH3 0x72A PUSH1 0x20 SHL PUSH1 0x20 SHR JUMP JUMPDEST DUP1 PUSH1 0xD PUSH1 0x0 PUSH2 0x100 EXP DUP2 SLOAD DUP2 PUSH20 0xFFFFFFFFFFFFFFFFFFFFFFFFFFFFFFFFFFFFFFFF MUL NOT AND SWAP1 DUP4 PUSH20 0xFFFFFFFFFFFFFFFFFFFFFFFFFFFFFFFFFFFFFFFF AND MUL OR SWAP1 SSTORE POP PUSH3 0x6E9 PUSH8 0x2A08CCB0CECF4311 PUSH1 0xC0 SHL PUSH3 0x72A PUSH1 0x20 SHL PUSH1 0x20 SHR JUMP JUMPDEST PUSH3 0x705 PUSH8 0xFE0F19479086E33 PUSH1 0xC0 SHL PUSH3 0x72A PUSH1 0x20 SHL PUSH1 0x20 SHR JUMP JUMPDEST PUSH3 0x722 CALLER PUSH11 0x5CA4EC2A79A7F67000000 PUSH3 0x72D PUSH1 0x20 SHL PUSH1 0x20 SHR JUMP JUMPDEST POP POP PUSH3 0x12B6 JUMP JUMPDEST POP JUMP JUMPDEST PUSH1 0x0 PUSH20 0xFFFFFFFFFFFFFFFFFFFFFFFFFFFFFFFFFFFFFFFF AND DUP3 PUSH20 0xFFFFFFFFFFFFFFFFFFFFFFFFFFFFFFFFFFFFFFFF AND SUB PUSH3 0x7A2 JUMPI PUSH1 0x0 PUSH1 0x40 MLOAD PUSH32 0xEC442F0500000000000000000000000000000000000000000000000000000000 DUP2 MSTORE PUSH1 0x4 ADD PUSH3 0x799 SWAP2 SWAP1 PUSH3 0x11F3 JUMP JUMPDEST PUSH1 0x40 MLOAD DUP1 SWAP2 SUB SWAP1 REVERT JUMPDEST PUSH3 0x7B6 PUSH1 0x0 DUP4 DUP4 PUSH3 0x7BA PUSH1 0x20 SHL PUSH1 0x20 SHR JUMP JUMPDEST POP POP JUMP JUMPDEST PUSH1 0x0 PUSH20 0xFFFFFFFFFFFFFFFFFFFFFFFFFFFFFFFFFFFFFFFF AND DUP4 PUSH20 0xFFFFFFFFFFFFFFFFFFFFFFFFFFFFFFFFFFFFFFFF AND SUB PUSH3 0x810 JUMPI DUP1 PUSH1 0x2 PUSH1 0x0 DUP3 DUP3 SLOAD PUSH3 0x803 SWAP2 SWAP1 PUSH3 0x1210 JUMP JUMPDEST SWAP3 POP POP DUP2 SWAP1 SSTORE POP PUSH3 0x8E6 JUMP JUMPDEST PUSH1 0x0 DUP1 PUSH1 0x0 DUP6 PUSH20 0xFFFFFFFFFFFFFFFFFFFFFFFFFFFFFFFFFFFFFFFF AND PUSH20 0xFFFFFFFFFFFFFFFFFFFFFFFFFFFFFFFFFFFFFFFF AND DUP2 MSTORE PUSH1 0x20 ADD SWAP1 DUP2 MSTORE PUSH1 0x20 ADD PUSH1 0x0 KECCAK256 SLOAD SWAP1 POP DUP2 DUP2 LT ISZERO PUSH3 0x89F JUMPI DUP4 DUP2 DUP4 PUSH1 0x40 MLOAD PUSH32 0xE450D38C00000000000000000000000000000000000000000000000000000000 DUP2 MSTORE PUSH1 0x4 ADD PUSH3 0x896 SWAP4 SWAP3 SWAP2 SWAP1 PUSH3 0x125C JUMP JUMPDEST PUSH1 0x40 MLOAD DUP1 SWAP2 SUB SWAP1 REVERT JUMPDEST DUP2 DUP2 SUB PUSH1 0x0 DUP1 DUP7 PUSH20 0xFFFFFFFFFFFFFFFFFFFFFFFFFFFFFFFFFFFFFFFF AND PUSH20 0xFFFFFFFFFFFFFFFFFFFFFFFFFFFFFFFFFFFFFFFF AND DUP2 MSTORE PUSH1 0x20 ADD SWAP1 DUP2 MSTORE PUSH1 0x20 ADD PUSH1 0x0 KECCAK256 DUP2 SWAP1 SSTORE POP POP JUMPDEST PUSH1 0x0 PUSH20 0xFFFFFFFFFFFFFFFFFFFFFFFFFFFFFFFFFFFFFFFF AND DUP3 PUSH20 0xFFFFFFFFFFFFFFFFFFFFFFFFFFFFFFFFFFFFFFFF AND SUB PUSH3 0x931 JUMPI DUP1 PUSH1 0x2 PUSH1 0x0 DUP3 DUP3 SLOAD SUB SWAP3 POP POP DUP2 SWAP1 SSTORE POP PUSH3 0x97E JUMP JUMPDEST DUP1 PUSH1 0x0 DUP1 DUP5 PUSH20 0xFFFFFFFFFFFFFFFFFFFFFFFFFFFFFFFFFFFFFFFF AND PUSH20 0xFFFFFFFFFFFFFFFFFFFFFFFFFFFFFFFFFFFFFFFF AND DUP2 MSTORE PUSH1 0x20 ADD SWAP1 DUP2 MSTORE PUSH1 0x20 ADD PUSH1 0x0 KECCAK256 PUSH1 0x0 DUP3 DUP3 SLOAD ADD SWAP3 POP POP DUP2 SWAP1 SSTORE POP JUMPDEST DUP2 PUSH20 0xFFFFFFFFFFFFFFFFFFFFFFFFFFFFFFFFFFFFFFFF AND DUP4 PUSH20 0xFFFFFFFFFFFFFFFFFFFFFFFFFFFFFFFFFFFFFFFF AND PUSH32 0xDDF252AD1BE2C89B69C2B068FC378DAA952BA7F163C4A11628F55A4DF523B3EF DUP4 PUSH1 0x40 MLOAD PUSH3 0x9DD SWAP2 SWAP1 PUSH3 0x1299 JUMP JUMPDEST PUSH1 0x40 MLOAD DUP1 SWAP2 SUB SWAP1 LOG3 POP POP POP JUMP JUMPDEST PUSH1 0x0 DUP2 SWAP1 POP SWAP2 SWAP1 POP JUMP JUMPDEST PUSH32 0x4E487B7100000000000000000000000000000000000000000000000000000000 PUSH1 0x0 MSTORE PUSH1 0x11 PUSH1 0x4 MSTORE PUSH1 0x24 PUSH1 0x0 REVERT JUMPDEST PUSH1 0x0 PUSH3 0xA30 DUP3 PUSH3 0x9EA JUMP JUMPDEST SWAP2 POP PUSH3 0xA3D DUP4 PUSH3 0x9EA JUMP JUMPDEST SWAP3 POP DUP3 DUP3 SUB SWAP1 POP DUP2 DUP2 GT ISZERO PUSH3 0xA58 JUMPI PUSH3 0xA57 PUSH3 0x9F4 JUMP JUMPDEST JUMPDEST SWAP3 SWAP2 POP POP JUMP JUMPDEST PUSH1 0x0 PUSH1 0x40 MLOAD SWAP1 POP SWAP1 JUMP JUMPDEST PUSH1 0x0 DUP1 REVERT JUMPDEST PUSH1 0x0 DUP1 REVERT JUMPDEST PUSH1 0x0 DUP1 REVERT JUMPDEST PUSH1 0x0 PUSH1 0x1F NOT PUSH1 0x1F DUP4 ADD AND SWAP1 POP SWAP2 SWAP1 POP JUMP JUMPDEST PUSH32 0x4E487B7100000000000000000000000000000000000000000000000000000000 PUSH1 0x0 MSTORE PUSH1 0x41 PUSH1 0x4 MSTORE PUSH1 0x24 PUSH1 0x0 REVERT JUMPDEST PUSH3 0xAC2 DUP3 PUSH3 0xA77 JUMP JUMPDEST DUP2 ADD DUP2 DUP2 LT PUSH8 0xFFFFFFFFFFFFFFFF DUP3 GT OR ISZERO PUSH3 0xAE4 JUMPI PUSH3 0xAE3 PUSH3 0xA88 JUMP JUMPDEST JUMPDEST DUP1 PUSH1 0x40 MSTORE POP POP POP JUMP JUMPDEST PUSH1 0x0 PUSH3 0xAF9 PUSH3 0xA5E JUMP JUMPDEST SWAP1 POP PUSH3 0xB07 DUP3 DUP3 PUSH3 0xAB7 JUMP JUMPDEST SWAP2 SWAP1 POP JUMP JUMPDEST PUSH1 0x0 PUSH8 0xFFFFFFFFFFFFFFFF DUP3 GT ISZERO PUSH3 0xB2A JUMPI PUSH3 0xB29 PUSH3 0xA88 JUMP JUMPDEST JUMPDEST PUSH1 0x20 DUP3 MUL SWAP1 POP PUSH1 0x20 DUP2 ADD SWAP1 POP SWAP2 SWAP1 POP JUMP JUMPDEST PUSH1 0x0 DUP1 REVERT JUMPDEST PUSH1 0x0 PUSH20 0xFFFFFFFFFFFFFFFFFFFFFFFFFFFFFFFFFFFFFFFF DUP3 AND SWAP1 POP SWAP2 SWAP1 POP JUMP JUMPDEST PUSH1 0x0 PUSH3 0xB6D DUP3 PUSH3 0xB40 JUMP JUMPDEST SWAP1 POP SWAP2 SWAP1 POP JUMP JUMPDEST PUSH3 0xB7F DUP2 PUSH3 0xB60 JUMP JUMPDEST DUP2 EQ PUSH3 0xB8B JUMPI PUSH1 0x0 DUP1 REVERT JUMPDEST POP JUMP JUMPDEST PUSH1 0x0 DUP2 MLOAD SWAP1 POP PUSH3 0xB9F DUP2 PUSH3 0xB74 JUMP JUMPDEST SWAP3 SWAP2 POP POP JUMP JUMPDEST PUSH1 0x0 PUSH3 0xBBC PUSH3 0xBB6 DUP5 PUSH3 0xB0C JUMP JUMPDEST PUSH3 0xAED JUMP JUMPDEST SWAP1 POP DUP1 DUP4 DUP3 MSTORE PUSH1 0x20 DUP3 ADD SWAP1 POP PUSH1 0x20 DUP5 MUL DUP4 ADD DUP6 DUP2 GT ISZERO PUSH3 0xBE2 JUMPI PUSH3 0xBE1 PUSH3 0xB3B JUMP JUMPDEST JUMPDEST DUP4 JUMPDEST DUP2 DUP2 LT ISZERO PUSH3 0xC0F JUMPI DUP1 PUSH3 0xBFA DUP9 DUP3 PUSH3 0xB8E JUMP JUMPDEST DUP5 MSTORE PUSH1 0x20 DUP5 ADD SWAP4 POP POP PUSH1 0x20 DUP2 ADD SWAP1 POP PUSH3 0xBE4 JUMP JUMPDEST POP POP POP SWAP4 SWAP3 POP POP POP JUMP JUMPDEST PUSH1 0x0 DUP3 PUSH1 0x1F DUP4 ADD SLT PUSH3 0xC31 JUMPI PUSH3 0xC30 PUSH3 0xA72 JUMP JUMPDEST JUMPDEST DUP2 MLOAD PUSH3 0xC43 DUP5 DUP3 PUSH1 0x20 DUP7 ADD PUSH3 0xBA5 JUMP JUMPDEST SWAP2 POP POP SWAP3 SWAP2 POP POP JUMP JUMPDEST PUSH1 0x0 DUP1 PUSH1 0x40 DUP4 DUP6 SUB SLT ISZERO PUSH3 0xC66 JUMPI PUSH3 0xC65 PUSH3 0xA68 JUMP JUMPDEST JUMPDEST PUSH1 0x0 DUP4 ADD MLOAD PUSH8 0xFFFFFFFFFFFFFFFF DUP2 GT ISZERO PUSH3 0xC87 JUMPI PUSH3 0xC86 PUSH3 0xA6D JUMP JUMPDEST JUMPDEST PUSH3 0xC95 DUP6 DUP3 DUP7 ADD PUSH3 0xC19 JUMP JUMPDEST SWAP3 POP POP PUSH1 0x20 PUSH3 0xCA8 DUP6 DUP3 DUP7 ADD PUSH3 0xB8E JUMP JUMPDEST SWAP2 POP POP SWAP3 POP SWAP3 SWAP1 POP JUMP JUMPDEST PUSH1 0x0 DUP2 MLOAD SWAP1 POP SWAP2 SWAP1 POP JUMP JUMPDEST PUSH32 0x4E487B7100000000000000000000000000000000000000000000000000000000 PUSH1 0x0 MSTORE PUSH1 0x22 PUSH1 0x4 MSTORE PUSH1 0x24 PUSH1 0x0 REVERT JUMPDEST PUSH1 0x0 PUSH1 0x2 DUP3 DIV SWAP1 POP PUSH1 0x1 DUP3 AND DUP1 PUSH3 0xD05 JUMPI PUSH1 0x7F DUP3 AND SWAP2 POP JUMPDEST PUSH1 0x20 DUP3 LT DUP2 SUB PUSH3 0xD1B JUMPI PUSH3 0xD1A PUSH3 0xCBD JUMP JUMPDEST JUMPDEST POP SWAP2 SWAP1 POP JUMP JUMPDEST PUSH1 0x0 DUP2 SWAP1 POP DUP2 PUSH1 0x0 MSTORE PUSH1 0x20 PUSH1 0x0 KECCAK256 SWAP1 POP SWAP2 SWAP1 POP JUMP JUMPDEST PUSH1 0x0 PUSH1 0x20 PUSH1 0x1F DUP4 ADD DIV SWAP1 POP SWAP2 SWAP1 POP JUMP JUMPDEST PUSH1 0x0 DUP3 DUP3 SHL SWAP1 POP SWAP3 SWAP2 POP POP JUMP JUMPDEST PUSH1 0x0 PUSH1 0x8 DUP4 MUL PUSH3 0xD85 PUSH32 0xFFFFFFFFFFFFFFFFFFFFFFFFFFFFFFFFFFFFFFFFFFFFFFFFFFFFFFFFFFFFFFFF DUP3 PUSH3 0xD46 JUMP JUMPDEST PUSH3 0xD91 DUP7 DUP4 PUSH3 0xD46 JUMP JUMPDEST SWAP6 POP DUP1 NOT DUP5 AND SWAP4 POP DUP1 DUP7 AND DUP5 OR SWAP3 POP POP POP SWAP4 SWAP3 POP POP POP JUMP JUMPDEST PUSH1 0x0 DUP2 SWAP1 POP SWAP2 SWAP1 POP JUMP JUMPDEST PUSH1 0x0 PUSH3 0xDD4 PUSH3 0xDCE PUSH3 0xDC8 DUP5 PUSH3 0x9EA JUMP JUMPDEST PUSH3 0xDA9 JUMP JUMPDEST PUSH3 0x9EA JUMP JUMPDEST SWAP1 POP SWAP2 SWAP1 POP JUMP JUMPDEST PUSH1 0x0 DUP2 SWAP1 POP SWAP2 SWAP1 POP JUMP JUMPDEST PUSH3 0xDF0 DUP4 PUSH3 0xDB3 JUMP JUMPDEST PUSH3 0xE08 PUSH3 0xDFF DUP3 PUSH3 0xDDB JUMP JUMPDEST DUP5 DUP5 SLOAD PUSH3 0xD53 JUMP JUMPDEST DUP3 SSTORE POP POP POP POP JUMP JUMPDEST PUSH1 0x0 SWAP1 JUMP JUMPDEST PUSH3 0xE1F PUSH3 0xE10 JUMP JUMPDEST PUSH3 0xE2C DUP2 DUP5 DUP5 PUSH3 0xDE5 JUMP JUMPDEST POP POP POP JUMP JUMPDEST JUMPDEST DUP2 DUP2 LT ISZERO PUSH3 0xE54 JUMPI PUSH3 0xE48 PUSH1 0x0 DUP3 PUSH3 0xE15 JUMP JUMPDEST PUSH1 0x1 DUP2 ADD SWAP1 POP PUSH3 0xE32 JUMP JUMPDEST POP POP JUMP JUMPDEST PUSH1 0x1F DUP3 GT ISZERO PUSH3 0xEA3 JUMPI PUSH3 0xE6D DUP2 PUSH3 0xD21 JUMP JUMPDEST PUSH3 0xE78 DUP5 PUSH3 0xD36 JUMP JUMPDEST DUP2 ADD PUSH1 0x20 DUP6 LT ISZERO PUSH3 0xE88 JUMPI DUP2 SWAP1 POP JUMPDEST PUSH3 0xEA0 PUSH3 0xE97 DUP6 PUSH3 0xD36 JUMP JUMPDEST DUP4 ADD DUP3 PUSH3 0xE31 JUMP JUMPDEST POP POP JUMPDEST POP POP POP JUMP JUMPDEST PUSH1 0x0 DUP3 DUP3 SHR SWAP1 POP SWAP3 SWAP2 POP POP JUMP JUMPDEST PUSH1 0x0 PUSH3 0xEC8 PUSH1 0x0 NOT DUP5 PUSH1 0x8 MUL PUSH3 0xEA8 JUMP JUMPDEST NOT DUP1 DUP4 AND SWAP2 POP POP SWAP3 SWAP2 POP POP JUMP JUMPDEST PUSH1 0x0 PUSH3 0xEE3 DUP4 DUP4 PUSH3 0xEB5 JUMP JUMPDEST SWAP2 POP DUP3 PUSH1 0x2 MUL DUP3 OR SWAP1 POP SWAP3 SWAP2 POP POP JUMP JUMPDEST PUSH3 0xEFE DUP3 PUSH3 0xCB2 JUMP JUMPDEST PUSH8 0xFFFFFFFFFFFFFFFF DUP2 GT ISZERO PUSH3 0xF1A JUMPI PUSH3 0xF19 PUSH3 0xA88 JUMP JUMPDEST JUMPDEST PUSH3 0xF26 DUP3 SLOAD PUSH3 0xCEC JUMP JUMPDEST PUSH3 0xF33 DUP3 DUP3 DUP6 PUSH3 0xE58 JUMP JUMPDEST PUSH1 0x0 PUSH1 0x20 SWAP1 POP PUSH1 0x1F DUP4 GT PUSH1 0x1 DUP2 EQ PUSH3 0xF6B JUMPI PUSH1 0x0 DUP5 ISZERO PUSH3 0xF56 JUMPI DUP3 DUP8 ADD MLOAD SWAP1 POP JUMPDEST PUSH3 0xF62 DUP6 DUP3 PUSH3 0xED5 JUMP JUMPDEST DUP7 SSTORE POP PUSH3 0xFD2 JUMP JUMPDEST PUSH1 0x1F NOT DUP5 AND PUSH3 0xF7B DUP7 PUSH3 0xD21 JUMP JUMPDEST PUSH1 0x0 JUMPDEST DUP3 DUP2 LT ISZERO PUSH3 0xFA5 JUMPI DUP5 DUP10 ADD MLOAD DUP3 SSTORE PUSH1 0x1 DUP3 ADD SWAP2 POP PUSH1 0x20 DUP6 ADD SWAP5 POP PUSH1 0x20 DUP2 ADD SWAP1 POP PUSH3 0xF7E JUMP JUMPDEST DUP7 DUP4 LT ISZERO PUSH3 0xFC5 JUMPI DUP5 DUP10 ADD MLOAD PUSH3 0xFC1 PUSH1 0x1F DUP10 AND DUP3 PUSH3 0xEB5 JUMP JUMPDEST DUP4 SSTORE POP JUMPDEST PUSH1 0x1 PUSH1 0x2 DUP9 MUL ADD DUP9 SSTORE POP POP POP JUMPDEST POP POP POP POP POP POP JUMP JUMPDEST PUSH1 0x0 DUP3 DUP3 MSTORE PUSH1 0x20 DUP3 ADD SWAP1 POP SWAP3 SWAP2 POP POP JUMP JUMPDEST PUSH32 0x5468657265206D7573742062652065786163746C792035206F776E6572732E00 PUSH1 0x0 DUP3 ADD MSTORE POP JUMP JUMPDEST PUSH1 0x0 PUSH3 0x1023 PUSH1 0x1F DUP4 PUSH3 0xFDA JUMP JUMPDEST SWAP2 POP PUSH3 0x1030 DUP3 PUSH3 0xFEB JUMP JUMPDEST PUSH1 0x20 DUP3 ADD SWAP1 POP SWAP2 SWAP1 POP JUMP JUMPDEST PUSH1 0x0 PUSH1 0x20 DUP3 ADD SWAP1 POP DUP2 DUP2 SUB PUSH1 0x0 DUP4 ADD MSTORE PUSH3 0x1056 DUP2 PUSH3 0x1014 JUMP JUMPDEST SWAP1 POP SWAP2 SWAP1 POP JUMP JUMPDEST PUSH32 0x4E487B7100000000000000000000000000000000000000000000000000000000 PUSH1 0x0 MSTORE PUSH1 0x32 PUSH1 0x4 MSTORE PUSH1 0x24 PUSH1 0x0 REVERT JUMPDEST PUSH32 0x496E76616C6964206F776E657220616464726573732E00000000000000000000 PUSH1 0x0 DUP3 ADD MSTORE POP JUMP JUMPDEST PUSH1 0x0 PUSH3 0x10C4 PUSH1 0x16 DUP4 PUSH3 0xFDA JUMP JUMPDEST SWAP2 POP PUSH3 0x10D1 DUP3 PUSH3 0x108C JUMP JUMPDEST PUSH1 0x20 DUP3 ADD SWAP1 POP SWAP2 SWAP1 POP JUMP JUMPDEST PUSH1 0x0 PUSH1 0x20 DUP3 ADD SWAP1 POP DUP2 DUP2 SUB PUSH1 0x0 DUP4 ADD MSTORE PUSH3 0x10F7 DUP2 PUSH3 0x10B5 JUMP JUMPDEST SWAP1 POP SWAP2 SWAP1 POP JUMP JUMPDEST PUSH32 0x4475706C6963617465206F776E657220616464726573732E0000000000000000 PUSH1 0x0 DUP3 ADD MSTORE POP JUMP JUMPDEST PUSH1 0x0 PUSH3 0x1136 PUSH1 0x18 DUP4 PUSH3 0xFDA JUMP JUMPDEST SWAP2 POP PUSH3 0x1143 DUP3 PUSH3 0x10FE JUMP JUMPDEST PUSH1 0x20 DUP3 ADD SWAP1 POP SWAP2 SWAP1 POP JUMP JUMPDEST PUSH1 0x0 PUSH1 0x20 DUP3 ADD SWAP1 POP DUP2 DUP2 SUB PUSH1 0x0 DUP4 ADD MSTORE PUSH3 0x1169 DUP2 PUSH3 0x1127 JUMP JUMPDEST SWAP1 POP SWAP2 SWAP1 POP JUMP JUMPDEST PUSH32 0x496E76616C69642053757065722041646D696E20616464726573732E00000000 PUSH1 0x0 DUP3 ADD MSTORE POP JUMP JUMPDEST PUSH1 0x0 PUSH3 0x11A8 PUSH1 0x1C DUP4 PUSH3 0xFDA JUMP JUMPDEST SWAP2 POP PUSH3 0x11B5 DUP3 PUSH3 0x1170 JUMP JUMPDEST PUSH1 0x20 DUP3 ADD SWAP1 POP SWAP2 SWAP1 POP JUMP JUMPDEST PUSH1 0x0 PUSH1 0x20 DUP3 ADD SWAP1 POP DUP2 DUP2 SUB PUSH1 0x0 DUP4 ADD MSTORE PUSH3 0x11DB DUP2 PUSH3 0x1199 JUMP JUMPDEST SWAP1 POP SWAP2 SWAP1 POP JUMP JUMPDEST PUSH3 0x11ED DUP2 PUSH3 0xB60 JUMP JUMPDEST DUP3 MSTORE POP POP JUMP JUMPDEST PUSH1 0x0 PUSH1 0x20 DUP3 ADD SWAP1 POP PUSH3 0x120A PUSH1 0x0 DUP4 ADD DUP5 PUSH3 0x11E2 JUMP JUMPDEST SWAP3 SWAP2 POP POP JUMP JUMPDEST PUSH1 0x0 PUSH3 0x121D DUP3 PUSH3 0x9EA JUMP JUMPDEST SWAP2 POP PUSH3 0x122A DUP4 PUSH3 0x9EA JUMP JUMPDEST SWAP3 POP DUP3 DUP3 ADD SWAP1 POP DUP1 DUP3 GT ISZERO PUSH3 0x1245 JUMPI PUSH3 0x1244 PUSH3 0x9F4 JUMP JUMPDEST JUMPDEST SWAP3 SWAP2 POP POP JUMP JUMPDEST PUSH3 0x1256 DUP2 PUSH3 0x9EA JUMP JUMPDEST DUP3 MSTORE POP POP JUMP JUMPDEST PUSH1 0x0 PUSH1 0x60 DUP3 ADD SWAP1 POP PUSH3 0x1273 PUSH1 0x0 DUP4 ADD DUP7 PUSH3 0x11E2 JUMP JUMPDEST PUSH3 0x1282 PUSH1 0x20 DUP4 ADD DUP6 PUSH3 0x124B JUMP JUMPDEST PUSH3 0x1291 PUSH1 0x40 DUP4 ADD DUP5 PUSH3 0x124B JUMP JUMPDEST SWAP5 SWAP4 POP POP POP POP JUMP JUMPDEST PUSH1 0x0 PUSH1 0x20 DUP3 ADD SWAP1 POP PUSH3 0x12B0 PUSH1 0x0 DUP4 ADD DUP5 PUSH3 0x124B JUMP JUMPDEST SWAP3 SWAP2 POP POP JUMP JUMPDEST PUSH2 0x78FE DUP1 PUSH3 0x12C6 PUSH1 0x0 CODECOPY PUSH1 0x0 RETURN INVALID PUSH1 0x80 PUSH1 0x40 MSTORE PUSH1 0x4 CALLDATASIZE LT PUSH2 0x1E7 JUMPI PUSH1 0x0 CALLDATALOAD PUSH1 0xE0 SHR DUP1 PUSH4 0x5C975ABB GT PUSH2 0x102 JUMPI DUP1 PUSH4 0xA96F8668 GT PUSH2 0x95 JUMPI DUP1 PUSH4 0xDD62ED3E GT PUSH2 0x64 JUMPI DUP1 PUSH4 0xDD62ED3E EQ PUSH2 0x6DA JUMPI DUP1 PUSH4 0xDE0E9A3E EQ PUSH2 0x717 JUMPI DUP1 PUSH4 0xEC4673D1 EQ PUSH2 0x740 JUMPI DUP1 PUSH4 0xF00D4B5D EQ PUSH2 0x769 JUMPI PUSH2 0x20A JUMP JUMPDEST DUP1 PUSH4 0xA96F8668 EQ PUSH2 0x663 JUMPI DUP1 PUSH4 0xAFB0C4A1 EQ PUSH2 0x67A JUMPI DUP1 PUSH4 0xCA5C7B91 EQ PUSH2 0x6A5 JUMPI DUP1 PUSH4 0xD46EB119 EQ PUSH2 0x6D0 JUMPI PUSH2 0x20A JUMP JUMPDEST DUP1 PUSH4 0x902D55A5 GT PUSH2 0xD1 JUMPI DUP1 PUSH4 0x902D55A5 EQ PUSH2 0x5A7 JUMPI DUP1 PUSH4 0x95D89B41 EQ PUSH2 0x5D2 JUMPI DUP1 PUSH4 0xA30A7C5A EQ PUSH2 0x5FD JUMPI DUP1 PUSH4 0xA9059CBB EQ PUSH2 0x626 JUMPI PUSH2 0x20A JUMP JUMPDEST DUP1 PUSH4 0x5C975ABB EQ PUSH2 0x4FF JUMPI DUP1 PUSH4 0x70A08231 EQ PUSH2 0x52A JUMPI DUP1 PUSH4 0x775EF854 EQ PUSH2 0x567 JUMPI DUP1 PUSH4 0x8456CB59 EQ PUSH2 0x590 JUMPI PUSH2 0x20A JUMP JUMPDEST DUP1 PUSH4 0x24F6C776 GT PUSH2 0x17A JUMPI DUP1 PUSH4 0x32F82F6D GT PUSH2 0x149 JUMPI DUP1 PUSH4 0x32F82F6D EQ PUSH2 0x46B JUMPI DUP1 PUSH4 0x3F4BA83A EQ PUSH2 0x494 JUMPI DUP1 PUSH4 0x41858C4B EQ PUSH2 0x4AB JUMPI DUP1 PUSH4 0x599C5533 EQ PUSH2 0x4D4 JUMPI PUSH2 0x20A JUMP JUMPDEST DUP1 PUSH4 0x24F6C776 EQ PUSH2 0x39B JUMPI DUP1 PUSH4 0x29575F6A EQ PUSH2 0x3D8 JUMPI DUP1 PUSH4 0x2F54BF6E EQ PUSH2 0x403 JUMPI DUP1 PUSH4 0x313CE567 EQ PUSH2 0x440 JUMPI PUSH2 0x20A JUMP JUMPDEST DUP1 PUSH4 0x165E5934 GT PUSH2 0x1B6 JUMPI DUP1 PUSH4 0x165E5934 EQ PUSH2 0x2DF JUMPI DUP1 PUSH4 0x18160DDD EQ PUSH2 0x30A JUMPI DUP1 PUSH4 0x1E0715DF EQ PUSH2 0x335 JUMPI DUP1 PUSH4 0x23B872DD EQ PUSH2 0x35E JUMPI PUSH2 0x20A JUMP JUMPDEST DUP1 PUSH4 0x25E7C27 EQ PUSH2 0x20F JUMPI DUP1 PUSH4 0x6FDDE03 EQ PUSH2 0x24C JUMPI DUP1 PUSH4 0x95EA7B3 EQ PUSH2 0x277 JUMPI DUP1 PUSH4 0xB5A006B EQ PUSH2 0x2B4 JUMPI PUSH2 0x20A JUMP JUMPDEST CALLDATASIZE PUSH2 0x20A JUMPI PUSH2 0x200 PUSH8 0xE93160CA0F392746 PUSH1 0xC0 SHL PUSH2 0x792 JUMP JUMPDEST PUSH2 0x208 PUSH2 0x795 JUMP JUMPDEST STOP JUMPDEST PUSH1 0x0 DUP1 REVERT JUMPDEST CALLVALUE DUP1 ISZERO PUSH2 0x21B JUMPI PUSH1 0x0 DUP1 REVERT JUMPDEST POP PUSH2 0x236 PUSH1 0x4 DUP1 CALLDATASIZE SUB DUP2 ADD SWAP1 PUSH2 0x231 SWAP2 SWAP1 PUSH2 0x630B JUMP JUMPDEST PUSH2 0xB72 JUMP JUMPDEST PUSH1 0x40 MLOAD PUSH2 0x243 SWAP2 SWAP1 PUSH2 0x6379 JUMP JUMPDEST PUSH1 0x40 MLOAD DUP1 SWAP2 SUB SWAP1 RETURN JUMPDEST CALLVALUE DUP1 ISZERO PUSH2 0x258 JUMPI PUSH1 0x0 DUP1 REVERT JUMPDEST POP PUSH2 0x261 PUSH2 0xBB1 JUMP JUMPDEST PUSH1 0x40 MLOAD PUSH2 0x26E SWAP2 SWAP1 PUSH2 0x6424 JUMP JUMPDEST PUSH1 0x40 MLOAD DUP1 SWAP2 SUB SWAP1 RETURN JUMPDEST CALLVALUE DUP1 ISZERO PUSH2 0x283 JUMPI PUSH1 0x0 DUP1 REVERT JUMPDEST POP PUSH2 0x29E PUSH1 0x4 DUP1 CALLDATASIZE SUB DUP2 ADD SWAP1 PUSH2 0x299 SWAP2 SWAP1 PUSH2 0x6472 JUMP JUMPDEST PUSH2 0xC43 JUMP JUMPDEST PUSH1 0x40 MLOAD PUSH2 0x2AB SWAP2 SWAP1 PUSH2 0x64CD JUMP JUMPDEST PUSH1 0x40 MLOAD DUP1 SWAP2 SUB SWAP1 RETURN JUMPDEST CALLVALUE DUP1 ISZERO PUSH2 0x2C0 JUMPI PUSH1 0x0 DUP1 REVERT JUMPDEST POP PUSH2 0x2C9 PUSH2 0xC66 JUMP JUMPDEST PUSH1 0x40 MLOAD PUSH2 0x2D6 SWAP2 SWAP1 PUSH2 0x64F7 JUMP JUMPDEST PUSH1 0x40 MLOAD DUP1 SWAP2 SUB SWAP1 RETURN JUMPDEST CALLVALUE DUP1 ISZERO PUSH2 0x2EB JUMPI PUSH1 0x0 DUP1 REVERT JUMPDEST POP PUSH2 0x2F4 PUSH2 0xC6C JUMP JUMPDEST PUSH1 0x40 MLOAD PUSH2 0x301 SWAP2 SWAP1 PUSH2 0x64F7 JUMP JUMPDEST PUSH1 0x40 MLOAD DUP1 SWAP2 SUB SWAP1 RETURN JUMPDEST CALLVALUE DUP1 ISZERO PUSH2 0x316 JUMPI PUSH1 0x0 DUP1 REVERT JUMPDEST POP PUSH2 0x31F PUSH2 0xC72 JUMP JUMPDEST PUSH1 0x40 MLOAD PUSH2 0x32C SWAP2 SWAP1 PUSH2 0x64F7 JUMP JUMPDEST PUSH1 0x40 MLOAD DUP1 SWAP2 SUB SWAP1 RETURN JUMPDEST CALLVALUE DUP1 ISZERO PUSH2 0x341 JUMPI PUSH1 0x0 DUP1 REVERT JUMPDEST POP PUSH2 0x35C PUSH1 0x4 DUP1 CALLDATASIZE SUB DUP2 ADD SWAP1 PUSH2 0x357 SWAP2 SWAP1 PUSH2 0x6647 JUMP JUMPDEST PUSH2 0xC7C JUMP JUMPDEST STOP JUMPDEST CALLVALUE DUP1 ISZERO PUSH2 0x36A JUMPI PUSH1 0x0 DUP1 REVERT JUMPDEST POP PUSH2 0x385 PUSH1 0x4 DUP1 CALLDATASIZE SUB DUP2 ADD SWAP1 PUSH2 0x380 SWAP2 SWAP1 PUSH2 0x6690 JUMP JUMPDEST PUSH2 0x1088 JUMP JUMPDEST PUSH1 0x40 MLOAD PUSH2 0x392 SWAP2 SWAP1 PUSH2 0x64CD JUMP JUMPDEST PUSH1 0x40 MLOAD DUP1 SWAP2 SUB SWAP1 RETURN JUMPDEST CALLVALUE DUP1 ISZERO PUSH2 0x3A7 JUMPI PUSH1 0x0 DUP1 REVERT JUMPDEST POP PUSH2 0x3C2 PUSH1 0x4 DUP1 CALLDATASIZE SUB DUP2 ADD SWAP1 PUSH2 0x3BD SWAP2 SWAP1 PUSH2 0x6719 JUMP JUMPDEST PUSH2 0x10B7 JUMP JUMPDEST PUSH1 0x40 MLOAD PUSH2 0x3CF SWAP2 SWAP1 PUSH2 0x64CD JUMP JUMPDEST PUSH1 0x40 MLOAD DUP1 SWAP2 SUB SWAP1 RETURN JUMPDEST CALLVALUE DUP1 ISZERO PUSH2 0x3E4 JUMPI PUSH1 0x0 DUP1 REVERT JUMPDEST POP PUSH2 0x3ED PUSH2 0x10E6 JUMP JUMPDEST PUSH1 0x40 MLOAD PUSH2 0x3FA SWAP2 SWAP1 PUSH2 0x6379 JUMP JUMPDEST PUSH1 0x40 MLOAD DUP1 SWAP2 SUB SWAP1 RETURN JUMPDEST CALLVALUE DUP1 ISZERO PUSH2 0x40F JUMPI PUSH1 0x0 DUP1 REVERT JUMPDEST POP PUSH2 0x42A PUSH1 0x4 DUP1 CALLDATASIZE SUB DUP2 ADD SWAP1 PUSH2 0x425 SWAP2 SWAP1 PUSH2 0x6759 JUMP JUMPDEST PUSH2 0x110C JUMP JUMPDEST PUSH1 0x40 MLOAD PUSH2 0x437 SWAP2 SWAP1 PUSH2 0x64CD JUMP JUMPDEST PUSH1 0x40 MLOAD DUP1 SWAP2 SUB SWAP1 RETURN JUMPDEST CALLVALUE DUP1 ISZERO PUSH2 0x44C JUMPI PUSH1 0x0 DUP1 REVERT JUMPDEST POP PUSH2 0x455 PUSH2 0x112C JUMP JUMPDEST PUSH1 0x40 MLOAD PUSH2 0x462 SWAP2 SWAP1 PUSH2 0x67A2 JUMP JUMPDEST PUSH1 0x40 MLOAD DUP1 SWAP2 SUB SWAP1 RETURN JUMPDEST CALLVALUE DUP1 ISZERO PUSH2 0x477 JUMPI PUSH1 0x0 DUP1 REVERT JUMPDEST POP PUSH2 0x492 PUSH1 0x4 DUP1 CALLDATASIZE SUB DUP2 ADD SWAP1 PUSH2 0x48D SWAP2 SWAP1 PUSH2 0x67BD JUMP JUMPDEST PUSH2 0x1135 JUMP JUMPDEST STOP JUMPDEST CALLVALUE DUP1 ISZERO PUSH2 0x4A0 JUMPI PUSH1 0x0 DUP1 REVERT JUMPDEST POP PUSH2 0x4A9 PUSH2 0x153F JUMP JUMPDEST STOP JUMPDEST CALLVALUE DUP1 ISZERO PUSH2 0x4B7 JUMPI PUSH1 0x0 DUP1 REVERT JUMPDEST POP PUSH2 0x4D2 PUSH1 0x4 DUP1 CALLDATASIZE SUB DUP2 ADD SWAP1 PUSH2 0x4CD SWAP2 SWAP1 PUSH2 0x6759 JUMP JUMPDEST PUSH2 0x1798 JUMP JUMPDEST STOP JUMPDEST CALLVALUE DUP1 ISZERO PUSH2 0x4E0 JUMPI PUSH1 0x0 DUP1 REVERT JUMPDEST POP PUSH2 0x4E9 PUSH2 0x1C60 JUMP JUMPDEST PUSH1 0x40 MLOAD PUSH2 0x4F6 SWAP2 SWAP1 PUSH2 0x64F7 JUMP JUMPDEST PUSH1 0x40 MLOAD DUP1 SWAP2 SUB SWAP1 RETURN JUMPDEST CALLVALUE DUP1 ISZERO PUSH2 0x50B JUMPI PUSH1 0x0 DUP1 REVERT JUMPDEST POP PUSH2 0x514 PUSH2 0x1C65 JUMP JUMPDEST PUSH1 0x40 MLOAD PUSH2 0x521 SWAP2 SWAP1 PUSH2 0x64CD JUMP JUMPDEST PUSH1 0x40 MLOAD DUP1 SWAP2 SUB SWAP1 RETURN JUMPDEST CALLVALUE DUP1 ISZERO PUSH2 0x536 JUMPI PUSH1 0x0 DUP1 REVERT JUMPDEST POP PUSH2 0x551 PUSH1 0x4 DUP1 CALLDATASIZE SUB DUP2 ADD SWAP1 PUSH2 0x54C SWAP2 SWAP1 PUSH2 0x6759 JUMP JUMPDEST PUSH2 0x1C78 JUMP JUMPDEST PUSH1 0x40 MLOAD PUSH2 0x55E SWAP2 SWAP1 PUSH2 0x64F7 JUMP JUMPDEST PUSH1 0x40 MLOAD DUP1 SWAP2 SUB SWAP1 RETURN JUMPDEST CALLVALUE DUP1 ISZERO PUSH2 0x573 JUMPI PUSH1 0x0 DUP1 REVERT JUMPDEST POP PUSH2 0x58E PUSH1 0x4 DUP1 CALLDATASIZE SUB DUP2 ADD SWAP1 PUSH2 0x589 SWAP2 SWAP1 PUSH2 0x6690 JUMP JUMPDEST PUSH2 0x1CC0 JUMP JUMPDEST STOP JUMPDEST CALLVALUE DUP1 ISZERO PUSH2 0x59C JUMPI PUSH1 0x0 DUP1 REVERT JUMPDEST POP PUSH2 0x5A5 PUSH2 0x20EA JUMP JUMPDEST STOP JUMPDEST CALLVALUE DUP1 ISZERO PUSH2 0x5B3 JUMPI PUSH1 0x0 DUP1 REVERT JUMPDEST POP PUSH2 0x5BC PUSH2 0x2343 JUMP JUMPDEST PUSH1 0x40 MLOAD PUSH2 0x5C9 SWAP2 SWAP1 PUSH2 0x64F7 JUMP JUMPDEST PUSH1 0x40 MLOAD DUP1 SWAP2 SUB SWAP1 RETURN JUMPDEST CALLVALUE DUP1 ISZERO PUSH2 0x5DE JUMPI PUSH1 0x0 DUP1 REVERT JUMPDEST POP PUSH2 0x5E7 PUSH2 0x2352 JUMP JUMPDEST PUSH1 0x40 MLOAD PUSH2 0x5F4 SWAP2 SWAP1 PUSH2 0x6424 JUMP JUMPDEST PUSH1 0x40 MLOAD DUP1 SWAP2 SUB SWAP1 RETURN JUMPDEST CALLVALUE DUP1 ISZERO PUSH2 0x609 JUMPI PUSH1 0x0 DUP1 REVERT JUMPDEST POP PUSH2 0x624 PUSH1 0x4 DUP1 CALLDATASIZE SUB DUP2 ADD SWAP1 PUSH2 0x61F SWAP2 SWAP1 PUSH2 0x6819 JUMP JUMPDEST PUSH2 0x23E4 JUMP JUMPDEST STOP JUMPDEST CALLVALUE DUP1 ISZERO PUSH2 0x632 JUMPI PUSH1 0x0 DUP1 REVERT JUMPDEST POP PUSH2 0x64D PUSH1 0x4 DUP1 CALLDATASIZE SUB DUP2 ADD SWAP1 PUSH2 0x648 SWAP2 SWAP1 PUSH2 0x6472 JUMP JUMPDEST PUSH2 0x27F6 JUMP JUMPDEST PUSH1 0x40 MLOAD PUSH2 0x65A SWAP2 SWAP1 PUSH2 0x64CD JUMP JUMPDEST PUSH1 0x40 MLOAD DUP1 SWAP2 SUB SWAP1 RETURN JUMPDEST CALLVALUE DUP1 ISZERO PUSH2 0x66F JUMPI PUSH1 0x0 DUP1 REVERT JUMPDEST POP PUSH2 0x678 PUSH2 0x2819 JUMP JUMPDEST STOP JUMPDEST CALLVALUE DUP1 ISZERO PUSH2 0x686 JUMPI PUSH1 0x0 DUP1 REVERT JUMPDEST POP PUSH2 0x68F PUSH2 0x2C20 JUMP JUMPDEST PUSH1 0x40 MLOAD PUSH2 0x69C SWAP2 SWAP1 PUSH2 0x64F7 JUMP JUMPDEST PUSH1 0x40 MLOAD DUP1 SWAP2 SUB SWAP1 RETURN JUMPDEST CALLVALUE DUP1 ISZERO PUSH2 0x6B1 JUMPI PUSH1 0x0 DUP1 REVERT JUMPDEST POP PUSH2 0x6BA PUSH2 0x2C2F JUMP JUMPDEST PUSH1 0x40 MLOAD PUSH2 0x6C7 SWAP2 SWAP1 PUSH2 0x64F7 JUMP JUMPDEST PUSH1 0x40 MLOAD DUP1 SWAP2 SUB SWAP1 RETURN JUMPDEST PUSH2 0x6D8 PUSH2 0x795 JUMP JUMPDEST STOP JUMPDEST CALLVALUE DUP1 ISZERO PUSH2 0x6E6 JUMPI PUSH1 0x0 DUP1 REVERT JUMPDEST POP PUSH2 0x701 PUSH1 0x4 DUP1 CALLDATASIZE SUB DUP2 ADD SWAP1 PUSH2 0x6FC SWAP2 SWAP1 PUSH2 0x6888 JUMP JUMPDEST PUSH2 0x2C35 JUMP JUMPDEST PUSH1 0x40 MLOAD PUSH2 0x70E SWAP2 SWAP1 PUSH2 0x64F7 JUMP JUMPDEST PUSH1 0x40 MLOAD DUP1 SWAP2 SUB SWAP1 RETURN JUMPDEST CALLVALUE DUP1 ISZERO PUSH2 0x723 JUMPI PUSH1 0x0 DUP1 REVERT JUMPDEST POP PUSH2 0x73E PUSH1 0x4 DUP1 CALLDATASIZE SUB DUP2 ADD SWAP1 PUSH2 0x739 SWAP2 SWAP1 PUSH2 0x630B JUMP JUMPDEST PUSH2 0x2CBC JUMP JUMPDEST STOP JUMPDEST CALLVALUE DUP1 ISZERO PUSH2 0x74C JUMPI PUSH1 0x0 DUP1 REVERT JUMPDEST POP PUSH2 0x767 PUSH1 0x4 DUP1 CALLDATASIZE SUB DUP2 ADD SWAP1 PUSH2 0x762 SWAP2 SWAP1 PUSH2 0x630B JUMP JUMPDEST PUSH2 0x3121 JUMP JUMPDEST STOP JUMPDEST CALLVALUE DUP1 ISZERO PUSH2 0x775 JUMPI PUSH1 0x0 DUP1 REVERT JUMPDEST POP PUSH2 0x790 PUSH1 0x4 DUP1 CALLDATASIZE SUB DUP2 ADD SWAP1 PUSH2 0x78B SWAP2 SWAP1 PUSH2 0x6888 JUMP JUMPDEST PUSH2 0x3528 JUMP JUMPDEST STOP JUMPDEST POP JUMP JUMPDEST PUSH2 0x7A9 PUSH8 0xA80917BA1658F9BD PUSH1 0xC0 SHL PUSH2 0x792 JUMP JUMPDEST PUSH2 0x7BD PUSH8 0x5DAE3DE08BA7C535 PUSH1 0xC0 SHL PUSH2 0x792 JUMP JUMPDEST PUSH2 0x7D1 PUSH8 0x91FE1C0F1A4130B8 PUSH1 0xC0 SHL PUSH2 0x792 JUMP JUMPDEST PUSH2 0x7E5 PUSH8 0xCBE892841BBA2264 PUSH1 0xC0 SHL PUSH2 0x792 JUMP JUMPDEST PUSH2 0x7F9 PUSH8 0x72D8C4AC89B1DE5E PUSH1 0xC0 SHL PUSH2 0x792 JUMP JUMPDEST CALLER PUSH20 0xFFFFFFFFFFFFFFFFFFFFFFFFFFFFFFFFFFFFFFFF AND ORIGIN PUSH20 0xFFFFFFFFFFFFFFFFFFFFFFFFFFFFFFFFFFFFFFFF AND EQ PUSH2 0x867 JUMPI PUSH1 0x40 MLOAD PUSH32 0x8C379A000000000000000000000000000000000000000000000000000000000 DUP2 MSTORE PUSH1 0x4 ADD PUSH2 0x85E SWAP1 PUSH2 0x693A JUMP JUMPDEST PUSH1 0x40 MLOAD DUP1 SWAP2 SUB SWAP1 REVERT JUMPDEST PUSH2 0x87B PUSH8 0x124E087CB3C716CB PUSH1 0xC0 SHL PUSH2 0x792 JUMP JUMPDEST PUSH2 0x88F PUSH8 0x1F4B3E3AFB31FBA3 PUSH1 0xC0 SHL PUSH2 0x792 JUMP JUMPDEST PUSH2 0x8A3 PUSH8 0x9C810256F8AC1F17 PUSH1 0xC0 SHL PUSH2 0x792 JUMP JUMPDEST PUSH2 0x8B7 PUSH8 0x6DD203E1CC123256 PUSH1 0xC0 SHL PUSH2 0x792 JUMP JUMPDEST PUSH1 0xA PUSH1 0x0 SWAP1 SLOAD SWAP1 PUSH2 0x100 EXP SWAP1 DIV PUSH1 0xFF AND ISZERO PUSH2 0x907 JUMPI PUSH1 0x40 MLOAD PUSH32 0x8C379A000000000000000000000000000000000000000000000000000000000 DUP2 MSTORE PUSH1 0x4 ADD PUSH2 0x8FE SWAP1 PUSH2 0x69A6 JUMP JUMPDEST PUSH1 0x40 MLOAD DUP1 SWAP2 SUB SWAP1 REVERT JUMPDEST PUSH2 0x91B PUSH8 0x1ED9ACC055486567 PUSH1 0xC0 SHL PUSH2 0x792 JUMP JUMPDEST PUSH2 0x92F PUSH8 0x72A1C8D3D238E9B2 PUSH1 0xC0 SHL PUSH2 0x792 JUMP JUMPDEST PUSH2 0x943 PUSH8 0x2BC37AA94AA835B2 PUSH1 0xC0 SHL PUSH2 0x792 JUMP JUMPDEST PUSH2 0x957 PUSH8 0x35691FB7BA44FE96 PUSH1 0xC0 SHL PUSH2 0x792 JUMP JUMPDEST PUSH2 0x96B PUSH8 0xB383FB381833A399 PUSH1 0xC0 SHL PUSH2 0x792 JUMP JUMPDEST PUSH2 0x97F PUSH8 0x3832A2C3723BB4C7 PUSH1 0xC0 SHL PUSH2 0x792 JUMP JUMPDEST PUSH2 0x993 PUSH8 0x4D60942A59DCEB08 PUSH1 0xC0 SHL PUSH2 0x792 JUMP JUMPDEST PUSH1 0x0 CALLVALUE GT PUSH2 0x9D6 JUMPI PUSH1 0x40 MLOAD PUSH32 0x8C379A000000000000000000000000000000000000000000000000000000000 DUP2 MSTORE PUSH1 0x4 ADD PUSH2 0x9CD SWAP1 PUSH2 0x6A12 JUMP JUMPDEST PUSH1 0x40 MLOAD DUP1 SWAP2 SUB SWAP1 REVERT JUMPDEST PUSH2 0x9EA PUSH8 0xCFFCE7C50F54DB37 PUSH1 0xC0 SHL PUSH2 0x792 JUMP JUMPDEST PUSH2 0x9FE PUSH8 0x3B181A9C37617940 PUSH1 0xC0 SHL PUSH2 0x792 JUMP JUMPDEST PUSH2 0xA12 PUSH8 0xB061ED4D7EE679E2 PUSH1 0xC0 SHL PUSH2 0x792 JUMP JUMPDEST PUSH1 0x0 PUSH2 0xA1C PUSH2 0xC72 JUMP JUMPDEST SWAP1 POP PUSH2 0xA32 PUSH8 0xEB872B156DC14347 PUSH1 0xC0 SHL PUSH2 0x792 JUMP JUMPDEST PUSH2 0xA46 PUSH8 0x6E1676474BD34B17 PUSH1 0xC0 SHL PUSH2 0x792 JUMP JUMPDEST PUSH2 0xA5A PUSH8 0xB3FF45D5AE2C8454 PUSH1 0xC0 SHL PUSH2 0x792 JUMP JUMPDEST PUSH11 0x14ADF4B7320334B9000000 CALLVALUE DUP3 PUSH2 0xA72 SWAP2 SWAP1 PUSH2 0x6A61 JUMP JUMPDEST GT ISZERO PUSH2 0xAB3 JUMPI PUSH1 0x40 MLOAD PUSH32 0x8C379A000000000000000000000000000000000000000000000000000000000 DUP2 MSTORE PUSH1 0x4 ADD PUSH2 0xAAA SWAP1 PUSH2 0x6B07 JUMP JUMPDEST PUSH1 0x40 MLOAD DUP1 SWAP2 SUB SWAP1 REVERT JUMPDEST PUSH2 0xAC7 PUSH8 0x5FE428C02D776314 PUSH1 0xC0 SHL PUSH2 0x792 JUMP JUMPDEST PUSH2 0xADB PUSH8 0xD291E4BB5E8D0434 PUSH1 0xC0 SHL PUSH2 0x792 JUMP JUMPDEST PUSH2 0xAEF PUSH8 0x98A4416407A8BA3B PUSH1 0xC0 SHL PUSH2 0x792 JUMP JUMPDEST PUSH2 0xAF9 CALLER CALLVALUE PUSH2 0x3BAF JUMP JUMPDEST PUSH2 0xB0D PUSH8 0xB12D5DD0F7E743B0 PUSH1 0xC0 SHL PUSH2 0x792 JUMP JUMPDEST PUSH2 0xB21 PUSH8 0xE1FD696924C98F31 PUSH1 0xC0 SHL PUSH2 0x792 JUMP JUMPDEST CALLER PUSH20 0xFFFFFFFFFFFFFFFFFFFFFFFFFFFFFFFFFFFFFFFF AND PUSH32 0x4700C1726B4198077CD40320A32C45265A1910521EB0EF713DD1D8412413D7FC CALLVALUE PUSH1 0x40 MLOAD PUSH2 0xB67 SWAP2 SWAP1 PUSH2 0x64F7 JUMP JUMPDEST PUSH1 0x40 MLOAD DUP1 SWAP2 SUB SWAP1 LOG2 POP JUMP JUMPDEST PUSH1 0xB DUP2 DUP2 SLOAD DUP2 LT PUSH2 0xB82 JUMPI PUSH1 0x0 DUP1 REVERT JUMPDEST SWAP1 PUSH1 0x0 MSTORE PUSH1 0x20 PUSH1 0x0 KECCAK256 ADD PUSH1 0x0 SWAP2 POP SLOAD SWAP1 PUSH2 0x100 EXP SWAP1 DIV PUSH20 0xFFFFFFFFFFFFFFFFFFFFFFFFFFFFFFFFFFFFFFFF AND DUP2 JUMP JUMPDEST PUSH1 0x60 PUSH1 0x3 DUP1 SLOAD PUSH2 0xBC0 SWAP1 PUSH2 0x6B56 JUMP JUMPDEST DUP1 PUSH1 0x1F ADD PUSH1 0x20 DUP1 SWAP2 DIV MUL PUSH1 0x20 ADD PUSH1 0x40 MLOAD SWAP1 DUP2 ADD PUSH1 0x40 MSTORE DUP1 SWAP3 SWAP2 SWAP1 DUP2 DUP2 MSTORE PUSH1 0x20 ADD DUP3 DUP1 SLOAD PUSH2 0xBEC SWAP1 PUSH2 0x6B56 JUMP JUMPDEST DUP1 ISZERO PUSH2 0xC39 JUMPI DUP1 PUSH1 0x1F LT PUSH2 0xC0E JUMPI PUSH2 0x100 DUP1 DUP4 SLOAD DIV MUL DUP4 MSTORE SWAP2 PUSH1 0x20 ADD SWAP2 PUSH2 0xC39 JUMP JUMPDEST DUP3 ADD SWAP2 SWAP1 PUSH1 0x0 MSTORE PUSH1 0x20 PUSH1 0x0 KECCAK256 SWAP1 JUMPDEST DUP2 SLOAD DUP2 MSTORE SWAP1 PUSH1 0x1 ADD SWAP1 PUSH1 0x20 ADD DUP1 DUP4 GT PUSH2 0xC1C JUMPI DUP3 SWAP1 SUB PUSH1 0x1F AND DUP3 ADD SWAP2 JUMPDEST POP POP POP POP POP SWAP1 POP SWAP1 JUMP JUMPDEST PUSH1 0x0 DUP1 PUSH2 0xC4E PUSH2 0x3C31 JUMP JUMPDEST SWAP1 POP PUSH2 0xC5B DUP2 DUP6 DUP6 PUSH2 0x3C39 JUMP JUMPDEST PUSH1 0x1 SWAP2 POP POP SWAP3 SWAP2 POP POP JUMP JUMPDEST PUSH1 0x8 SLOAD DUP2 JUMP JUMPDEST PUSH1 0x9 SLOAD DUP2 JUMP JUMPDEST PUSH1 0x0 PUSH1 0x2 SLOAD SWAP1 POP SWAP1 JUMP JUMPDEST PUSH2 0xC90 PUSH8 0xCA72BFDEA0F74A70 PUSH1 0xC0 SHL PUSH2 0x792 JUMP JUMPDEST PUSH2 0xCA4 PUSH8 0x6625B41EEF717A9C PUSH1 0xC0 SHL PUSH2 0x792 JUMP JUMPDEST PUSH2 0xCB8 PUSH8 0x424EDD69AAA529F7 PUSH1 0xC0 SHL PUSH2 0x792 JUMP JUMPDEST PUSH2 0xCCC PUSH8 0x5F2C499D40FF854D PUSH1 0xC0 SHL PUSH2 0x792 JUMP JUMPDEST PUSH2 0xCE0 PUSH8 0xB0E70C159CAD0B72 PUSH1 0xC0 SHL PUSH2 0x792 JUMP JUMPDEST PUSH1 0xC PUSH1 0x0 CALLER PUSH20 0xFFFFFFFFFFFFFFFFFFFFFFFFFFFFFFFFFFFFFFFF AND PUSH20 0xFFFFFFFFFFFFFFFFFFFFFFFFFFFFFFFFFFFFFFFF AND DUP2 MSTORE PUSH1 0x20 ADD SWAP1 DUP2 MSTORE PUSH1 0x20 ADD PUSH1 0x0 KECCAK256 PUSH1 0x0 SWAP1 SLOAD SWAP1 PUSH2 0x100 EXP SWAP1 DIV PUSH1 0xFF AND DUP1 ISZERO PUSH2 0xD49 JUMPI POP PUSH2 0xD48 PUSH8 0x75CAA2BA275F4D28 PUSH1 0xC0 SHL PUSH2 0x3C4B JUMP JUMPDEST JUMPDEST DUP1 PUSH2 0xDBD JUMPI POP PUSH1 0xD PUSH1 0x0 SWAP1 SLOAD SWAP1 PUSH2 0x100 EXP SWAP1 DIV PUSH20 0xFFFFFFFFFFFFFFFFFFFFFFFFFFFFFFFFFFFFFFFF AND PUSH20 0xFFFFFFFFFFFFFFFFFFFFFFFFFFFFFFFFFFFFFFFF AND CALLER PUSH20 0xFFFFFFFFFFFFFFFFFFFFFFFFFFFFFFFFFFFFFFFF AND EQ DUP1 ISZERO PUSH2 0xDBC JUMPI POP PUSH2 0xDBB PUSH8 0xD45BCFC309163B9F PUSH1 0xC0 SHL PUSH2 0x3C4B JUMP JUMPDEST JUMPDEST JUMPDEST PUSH2 0xDFC JUMPI PUSH1 0x40 MLOAD PUSH32 0x8C379A000000000000000000000000000000000000000000000000000000000 DUP2 MSTORE PUSH1 0x4 ADD PUSH2 0xDF3 SWAP1 PUSH2 0x6BD3 JUMP JUMPDEST PUSH1 0x40 MLOAD DUP1 SWAP2 SUB SWAP1 REVERT JUMPDEST PUSH2 0xE10 PUSH8 0xF8EB90A27A1A02ED PUSH1 0xC0 SHL PUSH2 0x792 JUMP JUMPDEST PUSH2 0xE24 PUSH8 0x606F5BF6AD621B2F PUSH1 0xC0 SHL PUSH2 0x792 JUMP JUMPDEST PUSH2 0xE38 PUSH8 0xC95529260A0311E9 PUSH1 0xC0 SHL PUSH2 0x792 JUMP JUMPDEST PUSH2 0xE4C PUSH8 0xA96EB41B93E546C8 PUSH1 0xC0 SHL PUSH2 0x792 JUMP JUMPDEST PUSH2 0xE60 PUSH8 0x5F20A5FF53AA7095 PUSH1 0xC0 SHL PUSH2 0x792 JUMP JUMPDEST PUSH2 0xE74 PUSH8 0xA29ADFE700AFFBA2 PUSH1 0xC0 SHL PUSH2 0x792 JUMP JUMPDEST PUSH1 0x0 DUP2 PUSH1 0x8 SLOAD PUSH1 0x40 MLOAD PUSH1 0x20 ADD PUSH2 0xE8B SWAP3 SWAP2 SWAP1 PUSH2 0x6C50 JUMP JUMPDEST PUSH1 0x40 MLOAD PUSH1 0x20 DUP2 DUP4 SUB SUB DUP2 MSTORE SWAP1 PUSH1 0x40 MSTORE DUP1 MLOAD SWAP1 PUSH1 0x20 ADD KECCAK256 SWAP1 POP PUSH2 0xEB7 PUSH8 0x25212CE6A6EF67A5 PUSH1 0xC0 SHL PUSH2 0x792 JUMP JUMPDEST PUSH2 0xECB PUSH8 0x240F72353483D265 PUSH1 0xC0 SHL PUSH2 0x792 JUMP JUMPDEST PUSH2 0xEDF PUSH8 0xE487B4ADBF12637B PUSH1 0xC0 SHL PUSH2 0x792 JUMP JUMPDEST PUSH1 0xE PUSH1 0x0 DUP3 DUP2 MSTORE PUSH1 0x20 ADD SWAP1 DUP2 MSTORE PUSH1 0x20 ADD PUSH1 0x0 KECCAK256 PUSH1 0x0 CALLER PUSH20 0xFFFFFFFFFFFFFFFFFFFFFFFFFFFFFFFFFFFFFFFF AND PUSH20 0xFFFFFFFFFFFFFFFFFFFFFFFFFFFFFFFFFFFFFFFF AND DUP2 MSTORE PUSH1 0x20 ADD SWAP1 DUP2 MSTORE PUSH1 0x20 ADD PUSH1 0x0 KECCAK256 PUSH1 0x0 SWAP1 SLOAD SWAP1 PUSH2 0x100 EXP SWAP1 DIV PUSH1 0xFF AND ISZERO PUSH2 0xF7D JUMPI PUSH1 0x40 MLOAD PUSH32 0x8C379A000000000000000000000000000000000000000000000000000000000 DUP2 MSTORE PUSH1 0x4 ADD PUSH2 0xF74 SWAP1 PUSH2 0x6CEA JUMP JUMPDEST PUSH1 0x40 MLOAD DUP1 SWAP2 SUB SWAP1 REVERT JUMPDEST PUSH2 0xF91 PUSH8 0x9408751D25F69A6E PUSH1 0xC0 SHL PUSH2 0x792 JUMP JUMPDEST PUSH2 0xFA5 PUSH8 0x4997F6EDF2BC7F41 PUSH1 0xC0 SHL PUSH2 0x792 JUMP JUMPDEST PUSH1 0x1 PUSH1 0xE PUSH1 0x0 DUP4 DUP2 MSTORE PUSH1 0x20 ADD SWAP1 DUP2 MSTORE PUSH1 0x20 ADD PUSH1 0x0 KECCAK256 PUSH1 0x0 CALLER PUSH20 0xFFFFFFFFFFFFFFFFFFFFFFFFFFFFFFFFFFFFFFFF AND PUSH20 0xFFFFFFFFFFFFFFFFFFFFFFFFFFFFFFFFFFFFFFFF AND DUP2 MSTORE PUSH1 0x20 ADD SWAP1 DUP2 MSTORE PUSH1 0x20 ADD PUSH1 0x0 KECCAK256 PUSH1 0x0 PUSH2 0x100 EXP DUP2 SLOAD DUP2 PUSH1 0xFF MUL NOT AND SWAP1 DUP4 ISZERO ISZERO MUL OR SWAP1 SSTORE POP PUSH2 0x1022 PUSH8 0x29FAD7117A58A4D5 PUSH1 0xC0 SHL PUSH2 0x792 JUMP JUMPDEST PUSH2 0x1036 PUSH8 0x6895B147A3AF5BE2 PUSH1 0xC0 SHL PUSH2 0x792 JUMP JUMPDEST CALLER PUSH20 0xFFFFFFFFFFFFFFFFFFFFFFFFFFFFFFFFFFFFFFFF AND PUSH32 0x712D53AB219462E032D2FF05D9215A37B882FA592CCA6E29C3D8C6A2BDC27B24 DUP3 PUSH1 0x40 MLOAD PUSH2 0x107C SWAP2 SWAP1 PUSH2 0x6D19 JUMP JUMPDEST PUSH1 0x40 MLOAD DUP1 SWAP2 SUB SWAP1 LOG2 POP POP JUMP JUMPDEST PUSH1 0x0 DUP1 PUSH2 0x1093 PUSH2 0x3C31 JUMP JUMPDEST SWAP1 POP PUSH2 0x10A0 DUP6 DUP3 DUP6 PUSH2 0x3C56 JUMP JUMPDEST PUSH2 0x10AB DUP6 DUP6 DUP6 PUSH2 0x3CEB JUMP JUMPDEST PUSH1 0x1 SWAP2 POP POP SWAP4 SWAP3 POP POP POP JUMP JUMPDEST PUSH1 0xE PUSH1 0x20 MSTORE DUP2 PUSH1 0x0 MSTORE PUSH1 0x40 PUSH1 0x0 KECCAK256 PUSH1 0x20 MSTORE DUP1 PUSH1 0x0 MSTORE PUSH1 0x40 PUSH1 0x0 KECCAK256 PUSH1 0x0 SWAP2 POP SWAP2 POP SWAP1 SLOAD SWAP1 PUSH2 0x100 EXP SWAP1 DIV PUSH1 0xFF AND DUP2 JUMP JUMPDEST PUSH1 0xD PUSH1 0x0 SWAP1 SLOAD SWAP1 PUSH2 0x100 EXP SWAP1 DIV PUSH20 0xFFFFFFFFFFFFFFFFFFFFFFFFFFFFFFFFFFFFFFFF AND DUP2 JUMP JUMPDEST PUSH1 0xC PUSH1 0x20 MSTORE DUP1 PUSH1 0x0 MSTORE PUSH1 0x40 PUSH1 0x0 KECCAK256 PUSH1 0x0 SWAP2 POP SLOAD SWAP1 PUSH2 0x100 EXP SWAP1 DIV PUSH1 0xFF AND DUP2 JUMP JUMPDEST PUSH1 0x0 PUSH1 0x12 SWAP1 POP SWAP1 JUMP JUMPDEST PUSH2 0x1149 PUSH8 0xFFD97C363E2664CE PUSH1 0xC0 SHL PUSH2 0x792 JUMP JUMPDEST PUSH2 0x115D PUSH8 0x6625B41EEF717A9C PUSH1 0xC0 SHL PUSH2 0x792 JUMP JUMPDEST PUSH2 0x1171 PUSH8 0x424EDD69AAA529F7 PUSH1 0xC0 SHL PUSH2 0x792 JUMP JUMPDEST PUSH2 0x1185 PUSH8 0x5F2C499D40FF854D PUSH1 0xC0 SHL PUSH2 0x792 JUMP JUMPDEST PUSH2 0x1199 PUSH8 0xB0E70C159CAD0B72 PUSH1 0xC0 SHL PUSH2 0x792 JUMP JUMPDEST PUSH1 0xC PUSH1 0x0 CALLER PUSH20 0xFFFFFFFFFFFFFFFFFFFFFFFFFFFFFFFFFFFFFFFF AND PUSH20 0xFFFFFFFFFFFFFFFFFFFFFFFFFFFFFFFFFFFFFFFF AND DUP2 MSTORE PUSH1 0x20 ADD SWAP1 DUP2 MSTORE PUSH1 0x20 ADD PUSH1 0x0 KECCAK256 PUSH1 0x0 SWAP1 SLOAD SWAP1 PUSH2 0x100 EXP SWAP1 DIV PUSH1 0xFF AND DUP1 ISZERO PUSH2 0x1202 JUMPI POP PUSH2 0x1201 PUSH8 0x75CAA2BA275F4D28 PUSH1 0xC0 SHL PUSH2 0x3C4B JUMP JUMPDEST JUMPDEST DUP1 PUSH2 0x1276 JUMPI POP PUSH1 0xD PUSH1 0x0 SWAP1 SLOAD SWAP1 PUSH2 0x100 EXP SWAP1 DIV PUSH20 0xFFFFFFFFFFFFFFFFFFFFFFFFFFFFFFFFFFFFFFFF AND PUSH20 0xFFFFFFFFFFFFFFFFFFFFFFFFFFFFFFFFFFFFFFFF AND CALLER PUSH20 0xFFFFFFFFFFFFFFFFFFFFFFFFFFFFFFFFFFFFFFFF AND EQ DUP1 ISZERO PUSH2 0x1275 JUMPI POP PUSH2 0x1274 PUSH8 0xD45BCFC309163B9F PUSH1 0xC0 SHL PUSH2 0x3C4B JUMP JUMPDEST JUMPDEST JUMPDEST PUSH2 0x12B5 JUMPI PUSH1 0x40 MLOAD PUSH32 0x8C379A000000000000000000000000000000000000000000000000000000000 DUP2 MSTORE PUSH1 0x4 ADD PUSH2 0x12AC SWAP1 PUSH2 0x6BD3 JUMP JUMPDEST PUSH1 0x40 MLOAD DUP1 SWAP2 SUB SWAP1 REVERT JUMPDEST PUSH2 0x12C9 PUSH8 0xF8EB90A27A1A02ED PUSH1 0xC0 SHL PUSH2 0x792 JUMP JUMPDEST PUSH2 0x12DD PUSH8 0x606F5BF6AD621B2F PUSH1 0xC0 SHL PUSH2 0x792 JUMP JUMPDEST PUSH2 0x12F1 PUSH8 0xF2D3ABAC4363837D PUSH1 0xC0 SHL PUSH2 0x792 JUMP JUMPDEST PUSH2 0x1305 PUSH8 0xC74565C7A1EDC70A PUSH1 0xC0 SHL PUSH2 0x792 JUMP JUMPDEST PUSH2 0x1319 PUSH8 0x4FB972C0746477D7 PUSH1 0xC0 SHL PUSH2 0x792 JUMP JUMPDEST PUSH2 0x132D PUSH8 0xE1C79941880D78D1 PUSH1 0xC0 SHL PUSH2 0x792 JUMP JUMPDEST PUSH1 0x0 DUP3 DUP3 PUSH1 0x40 MLOAD PUSH1 0x20 ADD PUSH2 0x1342 SWAP3 SWAP2 SWAP1 PUSH2 0x6C50 JUMP JUMPDEST PUSH1 0x40 MLOAD PUSH1 0x20 DUP2 DUP4 SUB SUB DUP2 MSTORE SWAP1 PUSH1 0x40 MSTORE DUP1 MLOAD SWAP1 PUSH1 0x20 ADD KECCAK256 SWAP1 POP PUSH2 0x136E PUSH8 0xF1927111124FAE36 PUSH1 0xC0 SHL PUSH2 0x792 JUMP JUMPDEST PUSH2 0x1382 PUSH8 0x257E863D4816C48A PUSH1 0xC0 SHL PUSH2 0x792 JUMP JUMPDEST PUSH2 0x1395 PUSH7 0x4FB584648819B1 PUSH1 0xC0 SHL PUSH2 0x792 JUMP JUMPDEST PUSH1 0xE PUSH1 0x0 DUP3 DUP2 MSTORE PUSH1 0x20 ADD SWAP1 DUP2 MSTORE PUSH1 0x20 ADD PUSH1 0x0 KECCAK256 PUSH1 0x0 CALLER PUSH20 0xFFFFFFFFFFFFFFFFFFFFFFFFFFFFFFFFFFFFFFFF AND PUSH20 0xFFFFFFFFFFFFFFFFFFFFFFFFFFFFFFFFFFFFFFFF AND DUP2 MSTORE PUSH1 0x20 ADD SWAP1 DUP2 MSTORE PUSH1 0x20 ADD PUSH1 0x0 KECCAK256 PUSH1 0x0 SWAP1 SLOAD SWAP1 PUSH2 0x100 EXP SWAP1 DIV PUSH1 0xFF AND ISZERO PUSH2 0x1433 JUMPI PUSH1 0x40 MLOAD PUSH32 0x8C379A000000000000000000000000000000000000000000000000000000000 DUP2 MSTORE PUSH1 0x4 ADD PUSH2 0x142A SWAP1 PUSH2 0x6CEA JUMP JUMPDEST PUSH1 0x40 MLOAD DUP1 SWAP2 SUB SWAP1 REVERT JUMPDEST PUSH2 0x1447 PUSH8 0xD83774A1D72A7969 PUSH1 0xC0 SHL PUSH2 0x792 JUMP JUMPDEST PUSH2 0x145B PUSH8 0x2C3B681548E74CDB PUSH1 0xC0 SHL PUSH2 0x792 JUMP JUMPDEST PUSH1 0x1 PUSH1 0xE PUSH1 0x0 DUP4 DUP2 MSTORE PUSH1 0x20 ADD SWAP1 DUP2 MSTORE PUSH1 0x20 ADD PUSH1 0x0 KECCAK256 PUSH1 0x0 CALLER PUSH20 0xFFFFFFFFFFFFFFFFFFFFFFFFFFFFFFFFFFFFFFFF AND PUSH20 0xFFFFFFFFFFFFFFFFFFFFFFFFFFFFFFFFFFFFFFFF AND DUP2 MSTORE PUSH1 0x20 ADD SWAP1 DUP2 MSTORE PUSH1 0x20 ADD PUSH1 0x0 KECCAK256 PUSH1 0x0 PUSH2 0x100 EXP DUP2 SLOAD DUP2 PUSH1 0xFF MUL NOT AND SWAP1 DUP4 ISZERO ISZERO MUL OR SWAP1 SSTORE POP PUSH2 0x14D8 PUSH8 0xA7B904CD13F81840 PUSH1 0xC0 SHL PUSH2 0x792 JUMP JUMPDEST PUSH2 0x14EC PUSH8 0x25F7C794A4D99112 PUSH1 0xC0 SHL PUSH2 0x792 JUMP JUMPDEST CALLER PUSH20 0xFFFFFFFFFFFFFFFFFFFFFFFFFFFFFFFFFFFFFFFF AND PUSH32 0x712D53AB219462E032D2FF05D9215A37B882FA592CCA6E29C3D8C6A2BDC27B24 DUP3 PUSH1 0x40 MLOAD PUSH2 0x1532 SWAP2 SWAP1 PUSH2 0x6D19 JUMP JUMPDEST PUSH1 0x40 MLOAD DUP1 SWAP2 SUB SWAP1 LOG2 POP POP POP JUMP JUMPDEST PUSH2 0x1553 PUSH8 0x74926BB01AE33114 PUSH1 0xC0 SHL PUSH2 0x792 JUMP JUMPDEST PUSH2 0x1567 PUSH8 0x6625B41EEF717A9C PUSH1 0xC0 SHL PUSH2 0x792 JUMP JUMPDEST PUSH2 0x157B PUSH8 0x424EDD69AAA529F7 PUSH1 0xC0 SHL PUSH2 0x792 JUMP JUMPDEST PUSH2 0x158F PUSH8 0x5F2C499D40FF854D PUSH1 0xC0 SHL PUSH2 0x792 JUMP JUMPDEST PUSH2 0x15A3 PUSH8 0xB0E70C159CAD0B72 PUSH1 0xC0 SHL PUSH2 0x792 JUMP JUMPDEST PUSH1 0xC PUSH1 0x0 CALLER PUSH20 0xFFFFFFFFFFFFFFFFFFFFFFFFFFFFFFFFFFFFFFFF AND PUSH20 0xFFFFFFFFFFFFFFFFFFFFFFFFFFFFFFFFFFFFFFFF AND DUP2 MSTORE PUSH1 0x20 ADD SWAP1 DUP2 MSTORE PUSH1 0x20 ADD PUSH1 0x0 KECCAK256 PUSH1 0x0 SWAP1 SLOAD SWAP1 PUSH2 0x100 EXP SWAP1 DIV PUSH1 0xFF AND DUP1 ISZERO PUSH2 0x160C JUMPI POP PUSH2 0x160B PUSH8 0x75CAA2BA275F4D28 PUSH1 0xC0 SHL PUSH2 0x3C4B JUMP JUMPDEST JUMPDEST DUP1 PUSH2 0x1680 JUMPI POP PUSH1 0xD PUSH1 0x0 SWAP1 SLOAD SWAP1 PUSH2 0x100 EXP SWAP1 DIV PUSH20 0xFFFFFFFFFFFFFFFFFFFFFFFFFFFFFFFFFFFFFFFF AND PUSH20 0xFFFFFFFFFFFFFFFFFFFFFFFFFFFFFFFFFFFFFFFF AND CALLER PUSH20 0xFFFFFFFFFFFFFFFFFFFFFFFFFFFFFFFFFFFFFFFF AND EQ DUP1 ISZERO PUSH2 0x167F JUMPI POP PUSH2 0x167E PUSH8 0xD45BCFC309163B9F PUSH1 0xC0 SHL PUSH2 0x3C4B JUMP JUMPDEST JUMPDEST JUMPDEST PUSH2 0x16BF JUMPI PUSH1 0x40 MLOAD PUSH32 0x8C379A000000000000000000000000000000000000000000000000000000000 DUP2 MSTORE PUSH1 0x4 ADD PUSH2 0x16B6 SWAP1 PUSH2 0x6BD3 JUMP JUMPDEST PUSH1 0x40 MLOAD DUP1 SWAP2 SUB SWAP1 REVERT JUMPDEST PUSH2 0x16D3 PUSH8 0xF8EB90A27A1A02ED PUSH1 0xC0 SHL PUSH2 0x792 JUMP JUMPDEST PUSH2 0x16E7 PUSH8 0x606F5BF6AD621B2F PUSH1 0xC0 SHL PUSH2 0x792 JUMP JUMPDEST PUSH2 0x16FB PUSH8 0xBC80BB8D10792B24 PUSH1 0xC0 SHL PUSH2 0x792 JUMP JUMPDEST PUSH2 0x170F PUSH8 0xD31A633661282E55 PUSH1 0xC0 SHL PUSH2 0x792 JUMP JUMPDEST PUSH2 0x1723 PUSH8 0x237A013425077D12 PUSH1 0xC0 SHL PUSH2 0x792 JUMP JUMPDEST PUSH2 0x1737 PUSH8 0xDF232878139C9FC2 PUSH1 0xC0 SHL PUSH2 0x792 JUMP JUMPDEST PUSH1 0x0 PUSH1 0x8 SLOAD PUSH1 0x40 MLOAD PUSH1 0x20 ADD PUSH2 0x174C SWAP2 SWAP1 PUSH2 0x6D80 JUMP JUMPDEST PUSH1 0x40 MLOAD PUSH1 0x20 DUP2 DUP4 SUB SUB DUP2 MSTORE SWAP1 PUSH1 0x40 MSTORE DUP1 MLOAD SWAP1 PUSH1 0x20 ADD KECCAK256 SWAP1 POP PUSH2 0x1778 PUSH8 0x1A03897566F4DE60 PUSH1 0xC0 SHL PUSH2 0x792 JUMP JUMPDEST PUSH2 0x178C PUSH8 0xC63116F91BD06E3B PUSH1 0xC0 SHL PUSH2 0x792 JUMP JUMPDEST PUSH2 0x1795 DUP2 PUSH2 0x3DDF JUMP JUMPDEST POP JUMP JUMPDEST PUSH2 0x17AC PUSH8 0xEDEEE75875E3087B PUSH1 0xC0 SHL PUSH2 0x792 JUMP JUMPDEST PUSH2 0x17C0 PUSH8 0x6625B41EEF717A9C PUSH1 0xC0 SHL PUSH2 0x792 JUMP JUMPDEST PUSH2 0x17D4 PUSH8 0x424EDD69AAA529F7 PUSH1 0xC0 SHL PUSH2 0x792 JUMP JUMPDEST PUSH2 0x17E8 PUSH8 0x5F2C499D40FF854D PUSH1 0xC0 SHL PUSH2 0x792 JUMP JUMPDEST PUSH2 0x17FC PUSH8 0xB0E70C159CAD0B72 PUSH1 0xC0 SHL PUSH2 0x792 JUMP JUMPDEST PUSH1 0xC PUSH1 0x0 CALLER PUSH20 0xFFFFFFFFFFFFFFFFFFFFFFFFFFFFFFFFFFFFFFFF AND PUSH20 0xFFFFFFFFFFFFFFFFFFFFFFFFFFFFFFFFFFFFFFFF AND DUP2 MSTORE PUSH1 0x20 ADD SWAP1 DUP2 MSTORE PUSH1 0x20 ADD PUSH1 0x0 KECCAK256 PUSH1 0x0 SWAP1 SLOAD SWAP1 PUSH2 0x100 EXP SWAP1 DIV PUSH1 0xFF AND DUP1 ISZERO PUSH2 0x1865 JUMPI POP PUSH2 0x1864 PUSH8 0x75CAA2BA275F4D28 PUSH1 0xC0 SHL PUSH2 0x3C4B JUMP JUMPDEST JUMPDEST DUP1 PUSH2 0x18D9 JUMPI POP PUSH1 0xD PUSH1 0x0 SWAP1 SLOAD SWAP1 PUSH2 0x100 EXP SWAP1 DIV PUSH20 0xFFFFFFFFFFFFFFFFFFFFFFFFFFFFFFFFFFFFFFFF AND PUSH20 0xFFFFFFFFFFFFFFFFFFFFFFFFFFFFFFFFFFFFFFFF AND CALLER PUSH20 0xFFFFFFFFFFFFFFFFFFFFFFFFFFFFFFFFFFFFFFFF AND EQ DUP1 ISZERO PUSH2 0x18D8 JUMPI POP PUSH2 0x18D7 PUSH8 0xD45BCFC309163B9F PUSH1 0xC0 SHL PUSH2 0x3C4B JUMP JUMPDEST JUMPDEST JUMPDEST PUSH2 0x1918 JUMPI PUSH1 0x40 MLOAD PUSH32 0x8C379A000000000000000000000000000000000000000000000000000000000 DUP2 MSTORE PUSH1 0x4 ADD PUSH2 0x190F SWAP1 PUSH2 0x6BD3 JUMP JUMPDEST PUSH1 0x40 MLOAD DUP1 SWAP2 SUB SWAP1 REVERT JUMPDEST PUSH2 0x192C PUSH8 0xF8EB90A27A1A02ED PUSH1 0xC0 SHL PUSH2 0x792 JUMP JUMPDEST PUSH2 0x1940 PUSH8 0x606F5BF6AD621B2F PUSH1 0xC0 SHL PUSH2 0x792 JUMP JUMPDEST PUSH2 0x1954 PUSH8 0x18F7D493BD8D571F PUSH1 0xC0 SHL PUSH2 0x792 JUMP JUMPDEST PUSH2 0x1968 PUSH8 0x48CDA4911A5CFAF3 PUSH1 0xC0 SHL PUSH2 0x792 JUMP JUMPDEST PUSH2 0x197C PUSH8 0x5DAE3DE08BA7C535 PUSH1 0xC0 SHL PUSH2 0x792 JUMP JUMPDEST PUSH2 0x1990 PUSH8 0x91FE1C0F1A4130B8 PUSH1 0xC0 SHL PUSH2 0x792 JUMP JUMPDEST PUSH2 0x19A4 PUSH8 0xCBE892841BBA2264 PUSH1 0xC0 SHL PUSH2 0x792 JUMP JUMPDEST PUSH2 0x19B8 PUSH8 0x72D8C4AC89B1DE5E PUSH1 0xC0 SHL PUSH2 0x792 JUMP JUMPDEST CALLER PUSH20 0xFFFFFFFFFFFFFFFFFFFFFFFFFFFFFFFFFFFFFFFF AND ORIGIN PUSH20 0xFFFFFFFFFFFFFFFFFFFFFFFFFFFFFFFFFFFFFFFF AND EQ PUSH2 0x1A26 JUMPI PUSH1 0x40 MLOAD PUSH32 0x8C379A000000000000000000000000000000000000000000000000000000000 DUP2 MSTORE PUSH1 0x4 ADD PUSH2 0x1A1D SWAP1 PUSH2 0x693A JUMP JUMPDEST PUSH1 0x40 MLOAD DUP1 SWAP2 SUB SWAP1 REVERT JUMPDEST PUSH2 0x1A3A PUSH8 0x124E087CB3C716CB PUSH1 0xC0 SHL PUSH2 0x792 JUMP JUMPDEST PUSH2 0x1A4E PUSH8 0x1F4B3E3AFB31FBA3 PUSH1 0xC0 SHL PUSH2 0x792 JUMP JUMPDEST PUSH2 0x1A62 PUSH8 0x9C810256F8AC1F17 PUSH1 0xC0 SHL PUSH2 0x792 JUMP JUMPDEST PUSH2 0x1A76 PUSH8 0x6DD203E1CC123256 PUSH1 0xC0 SHL PUSH2 0x792 JUMP JUMPDEST PUSH1 0xA PUSH1 0x0 SWAP1 SLOAD SWAP1 PUSH2 0x100 EXP SWAP1 DIV PUSH1 0xFF AND ISZERO PUSH2 0x1AC6 JUMPI PUSH1 0x40 MLOAD PUSH32 0x8C379A000000000000000000000000000000000000000000000000000000000 DUP2 MSTORE PUSH1 0x4 ADD PUSH2 0x1ABD SWAP1 PUSH2 0x69A6 JUMP JUMPDEST PUSH1 0x40 MLOAD DUP1 SWAP2 SUB SWAP1 REVERT JUMPDEST PUSH2 0x1ADA PUSH8 0x1ED9ACC055486567 PUSH1 0xC0 SHL PUSH2 0x792 JUMP JUMPDEST PUSH2 0x1AEE PUSH8 0x72A1C8D3D238E9B2 PUSH1 0xC0 SHL PUSH2 0x792 JUMP JUMPDEST PUSH2 0x1B02 PUSH8 0x1D7A21D536F08D19 PUSH1 0xC0 SHL PUSH2 0x792 JUMP JUMPDEST PUSH2 0x1B16 PUSH8 0x1D503F6381EBC4C6 PUSH1 0xC0 SHL PUSH2 0x792 JUMP JUMPDEST PUSH2 0x1B2A PUSH8 0xB52CE6223055A52E PUSH1 0xC0 SHL PUSH2 0x792 JUMP JUMPDEST PUSH2 0x1B3E PUSH8 0xD999644CC10B9F0A PUSH1 0xC0 SHL PUSH2 0x792 JUMP JUMPDEST PUSH2 0x1B52 PUSH8 0x6B0EAAA78A724009 PUSH1 0xC0 SHL PUSH2 0x792 JUMP JUMPDEST PUSH1 0x0 PUSH20 0xFFFFFFFFFFFFFFFFFFFFFFFFFFFFFFFFFFFFFFFF AND DUP2 PUSH20 0xFFFFFFFFFFFFFFFFFFFFFFFFFFFFFFFFFFFFFFFF AND SUB PUSH2 0x1BC1 JUMPI PUSH1 0x40 MLOAD PUSH32 0x8C379A000000000000000000000000000000000000000000000000000000000 DUP2 MSTORE PUSH1 0x4 ADD PUSH2 0x1BB8 SWAP1 PUSH2 0x6DF2 JUMP JUMPDEST PUSH1 0x40 MLOAD DUP1 SWAP2 SUB SWAP1 REVERT JUMPDEST PUSH2 0x1BD5 PUSH8 0x82283BA0C85DDA70 PUSH1 0xC0 SHL PUSH2 0x792 JUMP JUMPDEST PUSH2 0x1BE9 PUSH8 0x46BFFAE4D4FB2D47 PUSH1 0xC0 SHL PUSH2 0x792 JUMP JUMPDEST PUSH2 0x1BFD PUSH8 0x88A075AEC6106F8B PUSH1 0xC0 SHL PUSH2 0x792 JUMP JUMPDEST PUSH1 0x0 PUSH1 0x8 SLOAD PUSH1 0x40 MLOAD PUSH1 0x20 ADD PUSH2 0x1C12 SWAP2 SWAP1 PUSH2 0x6E5E JUMP JUMPDEST PUSH1 0x40 MLOAD PUSH1 0x20 DUP2 DUP4 SUB SUB DUP2 MSTORE SWAP1 PUSH1 0x40 MSTORE DUP1 MLOAD SWAP1 PUSH1 0x20 ADD KECCAK256 SWAP1 POP PUSH2 0x1C3E PUSH8 0x30AE85200EEDDB1A PUSH1 0xC0 SHL PUSH2 0x792 JUMP JUMPDEST PUSH2 0x1C52 PUSH8 0xF32936A061FFF3A9 PUSH1 0xC0 SHL PUSH2 0x792 JUMP JUMPDEST PUSH2 0x1C5C DUP3 DUP3 PUSH2 0x41EC JUMP JUMPDEST POP POP JUMP JUMPDEST PUSH1 0x3 DUP2 JUMP JUMPDEST PUSH1 0xA PUSH1 0x0 SWAP1 SLOAD SWAP1 PUSH2 0x100 EXP SWAP1 DIV PUSH1 0xFF AND DUP2 JUMP JUMPDEST PUSH1 0x0 DUP1 PUSH1 0x0 DUP4 PUSH20 0xFFFFFFFFFFFFFFFFFFFFFFFFFFFFFFFFFFFFFFFF AND PUSH20 0xFFFFFFFFFFFFFFFFFFFFFFFFFFFFFFFFFFFFFFFF AND DUP2 MSTORE PUSH1 0x20 ADD SWAP1 DUP2 MSTORE PUSH1 0x20 ADD PUSH1 0x0 KECCAK256 SLOAD SWAP1 POP SWAP2 SWAP1 POP JUMP JUMPDEST PUSH2 0x1CD4 PUSH8 0x2A01AB65794EDBE1 PUSH1 0xC0 SHL PUSH2 0x792 JUMP JUMPDEST PUSH2 0x1CE8 PUSH8 0x6625B41EEF717A9C PUSH1 0xC0 SHL PUSH2 0x792 JUMP JUMPDEST PUSH2 0x1CFC PUSH8 0x424EDD69AAA529F7 PUSH1 0xC0 SHL PUSH2 0x792 JUMP JUMPDEST PUSH2 0x1D10 PUSH8 0x5F2C499D40FF854D PUSH1 0xC0 SHL PUSH2 0x792 JUMP JUMPDEST PUSH2 0x1D24 PUSH8 0xB0E70C159CAD0B72 PUSH1 0xC0 SHL PUSH2 0x792 JUMP JUMPDEST PUSH1 0xC PUSH1 0x0 CALLER PUSH20 0xFFFFFFFFFFFFFFFFFFFFFFFFFFFFFFFFFFFFFFFF AND PUSH20 0xFFFFFFFFFFFFFFFFFFFFFFFFFFFFFFFFFFFFFFFF AND DUP2 MSTORE PUSH1 0x20 ADD SWAP1 DUP2 MSTORE PUSH1 0x20 ADD PUSH1 0x0 KECCAK256 PUSH1 0x0 SWAP1 SLOAD SWAP1 PUSH2 0x100 EXP SWAP1 DIV PUSH1 0xFF AND DUP1 ISZERO PUSH2 0x1D8D JUMPI POP PUSH2 0x1D8C PUSH8 0x75CAA2BA275F4D28 PUSH1 0xC0 SHL PUSH2 0x3C4B JUMP JUMPDEST JUMPDEST DUP1 PUSH2 0x1E01 JUMPI POP PUSH1 0xD PUSH1 0x0 SWAP1 SLOAD SWAP1 PUSH2 0x100 EXP SWAP1 DIV PUSH20 0xFFFFFFFFFFFFFFFFFFFFFFFFFFFFFFFFFFFFFFFF AND PUSH20 0xFFFFFFFFFFFFFFFFFFFFFFFFFFFFFFFFFFFFFFFF AND CALLER PUSH20 0xFFFFFFFFFFFFFFFFFFFFFFFFFFFFFFFFFFFFFFFF AND EQ DUP1 ISZERO PUSH2 0x1E00 JUMPI POP PUSH2 0x1DFF PUSH8 0xD45BCFC309163B9F PUSH1 0xC0 SHL PUSH2 0x3C4B JUMP JUMPDEST JUMPDEST JUMPDEST PUSH2 0x1E40 JUMPI PUSH1 0x40 MLOAD PUSH32 0x8C379A000000000000000000000000000000000000000000000000000000000 DUP2 MSTORE PUSH1 0x4 ADD PUSH2 0x1E37 SWAP1 PUSH2 0x6BD3 JUMP JUMPDEST PUSH1 0x40 MLOAD DUP1 SWAP2 SUB SWAP1 REVERT JUMPDEST PUSH2 0x1E54 PUSH8 0xF8EB90A27A1A02ED PUSH1 0xC0 SHL PUSH2 0x792 JUMP JUMPDEST PUSH2 0x1E68 PUSH8 0x606F5BF6AD621B2F PUSH1 0xC0 SHL PUSH2 0x792 JUMP JUMPDEST PUSH2 0x1E7C PUSH8 0x6823529B7E1F2666 PUSH1 0xC0 SHL PUSH2 0x792 JUMP JUMPDEST PUSH2 0x1E90 PUSH8 0xAA91E8DA59F99EC8 PUSH1 0xC0 SHL PUSH2 0x792 JUMP JUMPDEST PUSH2 0x1EA4 PUSH8 0x5DAE3DE08BA7C535 PUSH1 0xC0 SHL PUSH2 0x792 JUMP JUMPDEST PUSH2 0x1EB8 PUSH8 0x91FE1C0F1A4130B8 PUSH1 0xC0 SHL PUSH2 0x792 JUMP JUMPDEST PUSH2 0x1ECC PUSH8 0xCBE892841BBA2264 PUSH1 0xC0 SHL PUSH2 0x792 JUMP JUMPDEST PUSH2 0x1EE0 PUSH8 0x72D8C4AC89B1DE5E PUSH1 0xC0 SHL PUSH2 0x792 JUMP JUMPDEST CALLER PUSH20 0xFFFFFFFFFFFFFFFFFFFFFFFFFFFFFFFFFFFFFFFF AND ORIGIN PUSH20 0xFFFFFFFFFFFFFFFFFFFFFFFFFFFFFFFFFFFFFFFF AND EQ PUSH2 0x1F4E JUMPI PUSH1 0x40 MLOAD PUSH32 0x8C379A000000000000000000000000000000000000000000000000000000000 DUP2 MSTORE PUSH1 0x4 ADD PUSH2 0x1F45 SWAP1 PUSH2 0x693A JUMP JUMPDEST PUSH1 0x40 MLOAD DUP1 SWAP2 SUB SWAP1 REVERT JUMPDEST PUSH2 0x1F62 PUSH8 0x124E087CB3C716CB PUSH1 0xC0 SHL PUSH2 0x792 JUMP JUMPDEST PUSH2 0x1F76 PUSH8 0x1F4B3E3AFB31FBA3 PUSH1 0xC0 SHL PUSH2 0x792 JUMP JUMPDEST PUSH2 0x1F8A PUSH8 0x9C810256F8AC1F17 PUSH1 0xC0 SHL PUSH2 0x792 JUMP JUMPDEST PUSH2 0x1F9E PUSH8 0x6DD203E1CC123256 PUSH1 0xC0 SHL PUSH2 0x792 JUMP JUMPDEST PUSH1 0xA PUSH1 0x0 SWAP1 SLOAD SWAP1 PUSH2 0x100 EXP SWAP1 DIV PUSH1 0xFF AND ISZERO PUSH2 0x1FEE JUMPI PUSH1 0x40 MLOAD PUSH32 0x8C379A000000000000000000000000000000000000000000000000000000000 DUP2 MSTORE PUSH1 0x4 ADD PUSH2 0x1FE5 SWAP1 PUSH2 0x69A6 JUMP JUMPDEST PUSH1 0x40 MLOAD DUP1 SWAP2 SUB SWAP1 REVERT JUMPDEST PUSH2 0x2002 PUSH8 0x1ED9ACC055486567 PUSH1 0xC0 SHL PUSH2 0x792 JUMP JUMPDEST PUSH2 0x2016 PUSH8 0x72A1C8D3D238E9B2 PUSH1 0xC0 SHL PUSH2 0x792 JUMP JUMPDEST PUSH2 0x202A PUSH8 0xF1405BC17C4C6211 PUSH1 0xC0 SHL PUSH2 0x792 JUMP JUMPDEST PUSH2 0x203E PUSH8 0x8C16AD112F92FE21 PUSH1 0xC0 SHL PUSH2 0x792 JUMP JUMPDEST PUSH2 0x2052 PUSH8 0x96AD47CF811E7300 PUSH1 0xC0 SHL PUSH2 0x792 JUMP JUMPDEST PUSH2 0x2066 PUSH8 0xC37B425CD665A91E PUSH1 0xC0 SHL PUSH2 0x792 JUMP JUMPDEST DUP3 PUSH20 0xFFFFFFFFFFFFFFFFFFFFFFFFFFFFFFFFFFFFFFFF AND PUSH4 0xA9059CBB DUP4 DUP4 PUSH1 0x40 MLOAD DUP4 PUSH4 0xFFFFFFFF AND PUSH1 0xE0 SHL DUP2 MSTORE PUSH1 0x4 ADD PUSH2 0x20A1 SWAP3 SWAP2 SWAP1 PUSH2 0x6E84 JUMP JUMPDEST PUSH1 0x20 PUSH1 0x40 MLOAD DUP1 DUP4 SUB DUP2 PUSH1 0x0 DUP8 GAS CALL ISZERO DUP1 ISZERO PUSH2 0x20C0 JUMPI RETURNDATASIZE PUSH1 0x0 DUP1 RETURNDATACOPY RETURNDATASIZE PUSH1 0x0 REVERT JUMPDEST POP POP POP POP PUSH1 0x40 MLOAD RETURNDATASIZE PUSH1 0x1F NOT PUSH1 0x1F DUP3 ADD AND DUP3 ADD DUP1 PUSH1 0x40 MSTORE POP DUP2 ADD SWAP1 PUSH2 0x20E4 SWAP2 SWAP1 PUSH2 0x6ED9 JUMP JUMPDEST POP POP POP POP JUMP JUMPDEST PUSH2 0x20FE PUSH8 0x58ABF98B14AAB9B5 PUSH1 0xC0 SHL PUSH2 0x792 JUMP JUMPDEST PUSH2 0x2112 PUSH8 0x6625B41EEF717A9C PUSH1 0xC0 SHL PUSH2 0x792 JUMP JUMPDEST PUSH2 0x2126 PUSH8 0x424EDD69AAA529F7 PUSH1 0xC0 SHL PUSH2 0x792 JUMP JUMPDEST PUSH2 0x213A PUSH8 0x5F2C499D40FF854D PUSH1 0xC0 SHL PUSH2 0x792 JUMP JUMPDEST PUSH2 0x214E PUSH8 0xB0E70C159CAD0B72 PUSH1 0xC0 SHL PUSH2 0x792 JUMP JUMPDEST PUSH1 0xC PUSH1 0x0 CALLER PUSH20 0xFFFFFFFFFFFFFFFFFFFFFFFFFFFFFFFFFFFFFFFF AND PUSH20 0xFFFFFFFFFFFFFFFFFFFFFFFFFFFFFFFFFFFFFFFF AND DUP2 MSTORE PUSH1 0x20 ADD SWAP1 DUP2 MSTORE PUSH1 0x20 ADD PUSH1 0x0 KECCAK256 PUSH1 0x0 SWAP1 SLOAD SWAP1 PUSH2 0x100 EXP SWAP1 DIV PUSH1 0xFF AND DUP1 ISZERO PUSH2 0x21B7 JUMPI POP PUSH2 0x21B6 PUSH8 0x75CAA2BA275F4D28 PUSH1 0xC0 SHL PUSH2 0x3C4B JUMP JUMPDEST JUMPDEST DUP1 PUSH2 0x222B JUMPI POP PUSH1 0xD PUSH1 0x0 SWAP1 SLOAD SWAP1 PUSH2 0x100 EXP SWAP1 DIV PUSH20 0xFFFFFFFFFFFFFFFFFFFFFFFFFFFFFFFFFFFFFFFF AND PUSH20 0xFFFFFFFFFFFFFFFFFFFFFFFFFFFFFFFFFFFFFFFF AND CALLER PUSH20 0xFFFFFFFFFFFFFFFFFFFFFFFFFFFFFFFFFFFFFFFF AND EQ DUP1 ISZERO PUSH2 0x222A JUMPI POP PUSH2 0x2229 PUSH8 0xD45BCFC309163B9F PUSH1 0xC0 SHL PUSH2 0x3C4B JUMP JUMPDEST JUMPDEST JUMPDEST PUSH2 0x226A JUMPI PUSH1 0x40 MLOAD PUSH32 0x8C379A000000000000000000000000000000000000000000000000000000000 DUP2 MSTORE PUSH1 0x4 ADD PUSH2 0x2261 SWAP1 PUSH2 0x6BD3 JUMP JUMPDEST PUSH1 0x40 MLOAD DUP1 SWAP2 SUB SWAP1 REVERT JUMPDEST PUSH2 0x227E PUSH8 0xF8EB90A27A1A02ED PUSH1 0xC0 SHL PUSH2 0x792 JUMP JUMPDEST PUSH2 0x2292 PUSH8 0x606F5BF6AD621B2F PUSH1 0xC0 SHL PUSH2 0x792 JUMP JUMPDEST PUSH2 0x22A6 PUSH8 0xA10103C64400E554 PUSH1 0xC0 SHL PUSH2 0x792 JUMP JUMPDEST PUSH2 0x22BA PUSH8 0x930EC3820C73AE0F PUSH1 0xC0 SHL PUSH2 0x792 JUMP JUMPDEST PUSH2 0x22CE PUSH8 0xFF777472D94139ED PUSH1 0xC0 SHL PUSH2 0x792 JUMP JUMPDEST PUSH2 0x22E2 PUSH8 0xA2BA6BE43B6BB250 PUSH1 0xC0 SHL PUSH2 0x792 JUMP JUMPDEST PUSH1 0x0 PUSH1 0x8 SLOAD PUSH1 0x40 MLOAD PUSH1 0x20 ADD PUSH2 0x22F7 SWAP2 SWAP1 PUSH2 0x6F52 JUMP JUMPDEST PUSH1 0x40 MLOAD PUSH1 0x20 DUP2 DUP4 SUB SUB DUP2 MSTORE SWAP1 PUSH1 0x40 MSTORE DUP1 MLOAD SWAP1 PUSH1 0x20 ADD KECCAK256 SWAP1 POP PUSH2 0x2323 PUSH8 0xD3075EA004BD8AD7 PUSH1 0xC0 SHL PUSH2 0x792 JUMP JUMPDEST PUSH2 0x2337 PUSH8 0xCCEC26435615A3BD PUSH1 0xC0 SHL PUSH2 0x792 JUMP JUMPDEST PUSH2 0x2340 DUP2 PUSH2 0x4653 JUMP JUMPDEST POP JUMP JUMPDEST PUSH11 0x14ADF4B7320334B9000000 DUP2 JUMP JUMPDEST PUSH1 0x60 PUSH1 0x4 DUP1 SLOAD PUSH2 0x2361 SWAP1 PUSH2 0x6B56 JUMP JUMPDEST DUP1 PUSH1 0x1F ADD PUSH1 0x20 DUP1 SWAP2 DIV MUL PUSH1 0x20 ADD PUSH1 0x40 MLOAD SWAP1 DUP2 ADD PUSH1 0x40 MSTORE DUP1 SWAP3 SWAP2 SWAP1 DUP2 DUP2 MSTORE PUSH1 0x20 ADD DUP3 DUP1 SLOAD PUSH2 0x238D SWAP1 PUSH2 0x6B56 JUMP JUMPDEST DUP1 ISZERO PUSH2 0x23DA JUMPI DUP1 PUSH1 0x1F LT PUSH2 0x23AF JUMPI PUSH2 0x100 DUP1 DUP4 SLOAD DIV MUL DUP4 MSTORE SWAP2 PUSH1 0x20 ADD SWAP2 PUSH2 0x23DA JUMP JUMPDEST DUP3 ADD SWAP2 SWAP1 PUSH1 0x0 MSTORE PUSH1 0x20 PUSH1 0x0 KECCAK256 SWAP1 JUMPDEST DUP2 SLOAD DUP2 MSTORE SWAP1 PUSH1 0x1 ADD SWAP1 PUSH1 0x20 ADD DUP1 DUP4 GT PUSH2 0x23BD JUMPI DUP3 SWAP1 SUB PUSH1 0x1F AND DUP3 ADD SWAP2 JUMPDEST POP POP POP POP POP SWAP1 POP SWAP1 JUMP JUMPDEST PUSH2 0x23F8 PUSH8 0xF31B54B04D546A1C PUSH1 0xC0 SHL PUSH2 0x792 JUMP JUMPDEST PUSH2 0x240C PUSH8 0x6625B41EEF717A9C PUSH1 0xC0 SHL PUSH2 0x792 JUMP JUMPDEST PUSH2 0x2420 PUSH8 0x424EDD69AAA529F7 PUSH1 0xC0 SHL PUSH2 0x792 JUMP JUMPDEST PUSH2 0x2434 PUSH8 0x5F2C499D40FF854D PUSH1 0xC0 SHL PUSH2 0x792 JUMP JUMPDEST PUSH2 0x2448 PUSH8 0xB0E70C159CAD0B72 PUSH1 0xC0 SHL PUSH2 0x792 JUMP JUMPDEST PUSH1 0xC PUSH1 0x0 CALLER PUSH20 0xFFFFFFFFFFFFFFFFFFFFFFFFFFFFFFFFFFFFFFFF AND PUSH20 0xFFFFFFFFFFFFFFFFFFFFFFFFFFFFFFFFFFFFFFFF AND DUP2 MSTORE PUSH1 0x20 ADD SWAP1 DUP2 MSTORE PUSH1 0x20 ADD PUSH1 0x0 KECCAK256 PUSH1 0x0 SWAP1 SLOAD SWAP1 PUSH2 0x100 EXP SWAP1 DIV PUSH1 0xFF AND DUP1 ISZERO PUSH2 0x24B1 JUMPI POP PUSH2 0x24B0 PUSH8 0x75CAA2BA275F4D28 PUSH1 0xC0 SHL PUSH2 0x3C4B JUMP JUMPDEST JUMPDEST DUP1 PUSH2 0x2525 JUMPI POP PUSH1 0xD PUSH1 0x0 SWAP1 SLOAD SWAP1 PUSH2 0x100 EXP SWAP1 DIV PUSH20 0xFFFFFFFFFFFFFFFFFFFFFFFFFFFFFFFFFFFFFFFF AND PUSH20 0xFFFFFFFFFFFFFFFFFFFFFFFFFFFFFFFFFFFFFFFF AND CALLER PUSH20 0xFFFFFFFFFFFFFFFFFFFFFFFFFFFFFFFFFFFFFFFF AND EQ DUP1 ISZERO PUSH2 0x2524 JUMPI POP PUSH2 0x2523 PUSH8 0xD45BCFC309163B9F PUSH1 0xC0 SHL PUSH2 0x3C4B JUMP JUMPDEST JUMPDEST JUMPDEST PUSH2 0x2564 JUMPI PUSH1 0x40 MLOAD PUSH32 0x8C379A000000000000000000000000000000000000000000000000000000000 DUP2 MSTORE PUSH1 0x4 ADD PUSH2 0x255B SWAP1 PUSH2 0x6BD3 JUMP JUMPDEST PUSH1 0x40 MLOAD DUP1 SWAP2 SUB SWAP1 REVERT JUMPDEST PUSH2 0x2578 PUSH8 0xF8EB90A27A1A02ED PUSH1 0xC0 SHL PUSH2 0x792 JUMP JUMPDEST PUSH2 0x258C PUSH8 0x606F5BF6AD621B2F PUSH1 0xC0 SHL PUSH2 0x792 JUMP JUMPDEST PUSH2 0x25A0 PUSH8 0xD353276C7B15B7DB PUSH1 0xC0 SHL PUSH2 0x792 JUMP JUMPDEST PUSH2 0x25B4 PUSH8 0x658332A3062F29F1 PUSH1 0xC0 SHL PUSH2 0x792 JUMP JUMPDEST PUSH2 0x25C8 PUSH8 0xA9A1B586FBC97992 PUSH1 0xC0 SHL PUSH2 0x792 JUMP JUMPDEST PUSH2 0x25DC PUSH8 0x5913315BD665309C PUSH1 0xC0 SHL PUSH2 0x792 JUMP JUMPDEST PUSH1 0x0 DUP4 DUP4 DUP4 PUSH1 0x8 SLOAD PUSH1 0x40 MLOAD PUSH1 0x20 ADD PUSH2 0x25F7 SWAP5 SWAP4 SWAP3 SWAP2 SWAP1 PUSH2 0x6FC0 JUMP JUMPDEST PUSH1 0x40 MLOAD PUSH1 0x20 DUP2 DUP4 SUB SUB DUP2 MSTORE SWAP1 PUSH1 0x40 MSTORE DUP1 MLOAD SWAP1 PUSH1 0x20 ADD KECCAK256 SWAP1 POP PUSH2 0x2623 PUSH8 0x9C6488C9C0F147F5 PUSH1 0xC0 SHL PUSH2 0x792 JUMP JUMPDEST PUSH2 0x2637 PUSH8 0x32626DA591016B00 PUSH1 0xC0 SHL PUSH2 0x792 JUMP JUMPDEST PUSH2 0x264B PUSH8 0x93E581729D17E6E2 PUSH1 0xC0 SHL PUSH2 0x792 JUMP JUMPDEST PUSH1 0xE PUSH1 0x0 DUP3 DUP2 MSTORE PUSH1 0x20 ADD SWAP1 DUP2 MSTORE PUSH1 0x20 ADD PUSH1 0x0 KECCAK256 PUSH1 0x0 CALLER PUSH20 0xFFFFFFFFFFFFFFFFFFFFFFFFFFFFFFFFFFFFFFFF AND PUSH20 0xFFFFFFFFFFFFFFFFFFFFFFFFFFFFFFFFFFFFFFFF AND DUP2 MSTORE PUSH1 0x20 ADD SWAP1 DUP2 MSTORE PUSH1 0x20 ADD PUSH1 0x0 KECCAK256 PUSH1 0x0 SWAP1 SLOAD SWAP1 PUSH2 0x100 EXP SWAP1 DIV PUSH1 0xFF AND ISZERO PUSH2 0x26E9 JUMPI PUSH1 0x40 MLOAD PUSH32 0x8C379A000000000000000000000000000000000000000000000000000000000 DUP2 MSTORE PUSH1 0x4 ADD PUSH2 0x26E0 SWAP1 PUSH2 0x6CEA JUMP JUMPDEST PUSH1 0x40 MLOAD DUP1 SWAP2 SUB SWAP1 REVERT JUMPDEST PUSH2 0x26FD PUSH8 0xE3FB6857225D9715 PUSH1 0xC0 SHL PUSH2 0x792 JUMP JUMPDEST PUSH2 0x2711 PUSH8 0x37BF7A241BFB5A8 PUSH1 0xC0 SHL PUSH2 0x792 JUMP JUMPDEST PUSH1 0x1 PUSH1 0xE PUSH1 0x0 DUP4 DUP2 MSTORE PUSH1 0x20 ADD SWAP1 DUP2 MSTORE PUSH1 0x20 ADD PUSH1 0x0 KECCAK256 PUSH1 0x0 CALLER PUSH20 0xFFFFFFFFFFFFFFFFFFFFFFFFFFFFFFFFFFFFFFFF AND PUSH20 0xFFFFFFFFFFFFFFFFFFFFFFFFFFFFFFFFFFFFFFFF AND DUP2 MSTORE PUSH1 0x20 ADD SWAP1 DUP2 MSTORE PUSH1 0x20 ADD PUSH1 0x0 KECCAK256 PUSH1 0x0 PUSH2 0x100 EXP DUP2 SLOAD DUP2 PUSH1 0xFF MUL NOT AND SWAP1 DUP4 ISZERO ISZERO MUL OR SWAP1 SSTORE POP PUSH2 0x278E PUSH8 0x77FA04D2EB610FEC PUSH1 0xC0 SHL PUSH2 0x792 JUMP JUMPDEST PUSH2 0x27A2 PUSH8 0x2A756012AFD93F90 PUSH1 0xC0 SHL PUSH2 0x792 JUMP JUMPDEST CALLER PUSH20 0xFFFFFFFFFFFFFFFFFFFFFFFFFFFFFFFFFFFFFFFF AND PUSH32 0x712D53AB219462E032D2FF05D9215A37B882FA592CCA6E29C3D8C6A2BDC27B24 DUP3 PUSH1 0x40 MLOAD PUSH2 0x27E8 SWAP2 SWAP1 PUSH2 0x6D19 JUMP JUMPDEST PUSH1 0x40 MLOAD DUP1 SWAP2 SUB SWAP1 LOG2 POP POP POP POP JUMP JUMPDEST PUSH1 0x0 DUP1 PUSH2 0x2801 PUSH2 0x3C31 JUMP JUMPDEST SWAP1 POP PUSH2 0x280E DUP2 DUP6 DUP6 PUSH2 0x3CEB JUMP JUMPDEST PUSH1 0x1 SWAP2 POP POP SWAP3 SWAP2 POP POP JUMP JUMPDEST PUSH2 0x282D PUSH8 0x1CBF2B6BB2565F2D PUSH1 0xC0 SHL PUSH2 0x792 JUMP JUMPDEST PUSH2 0x2841 PUSH8 0x6625B41EEF717A9C PUSH1 0xC0 SHL PUSH2 0x792 JUMP JUMPDEST PUSH2 0x2855 PUSH8 0x424EDD69AAA529F7 PUSH1 0xC0 SHL PUSH2 0x792 JUMP JUMPDEST PUSH2 0x2869 PUSH8 0x5F2C499D40FF854D PUSH1 0xC0 SHL PUSH2 0x792 JUMP JUMPDEST PUSH2 0x287D PUSH8 0xB0E70C159CAD0B72 PUSH1 0xC0 SHL PUSH2 0x792 JUMP JUMPDEST PUSH1 0xC PUSH1 0x0 CALLER PUSH20 0xFFFFFFFFFFFFFFFFFFFFFFFFFFFFFFFFFFFFFFFF AND PUSH20 0xFFFFFFFFFFFFFFFFFFFFFFFFFFFFFFFFFFFFFFFF AND DUP2 MSTORE PUSH1 0x20 ADD SWAP1 DUP2 MSTORE PUSH1 0x20 ADD PUSH1 0x0 KECCAK256 PUSH1 0x0 SWAP1 SLOAD SWAP1 PUSH2 0x100 EXP SWAP1 DIV PUSH1 0xFF AND DUP1 ISZERO PUSH2 0x28E6 JUMPI POP PUSH2 0x28E5 PUSH8 0x75CAA2BA275F4D28 PUSH1 0xC0 SHL PUSH2 0x3C4B JUMP JUMPDEST JUMPDEST DUP1 PUSH2 0x295A JUMPI POP PUSH1 0xD PUSH1 0x0 SWAP1 SLOAD SWAP1 PUSH2 0x100 EXP SWAP1 DIV PUSH20 0xFFFFFFFFFFFFFFFFFFFFFFFFFFFFFFFFFFFFFFFF AND PUSH20 0xFFFFFFFFFFFFFFFFFFFFFFFFFFFFFFFFFFFFFFFF AND CALLER PUSH20 0xFFFFFFFFFFFFFFFFFFFFFFFFFFFFFFFFFFFFFFFF AND EQ DUP1 ISZERO PUSH2 0x2959 JUMPI POP PUSH2 0x2958 PUSH8 0xD45BCFC309163B9F PUSH1 0xC0 SHL PUSH2 0x3C4B JUMP JUMPDEST JUMPDEST JUMPDEST PUSH2 0x2999 JUMPI PUSH1 0x40 MLOAD PUSH32 0x8C379A000000000000000000000000000000000000000000000000000000000 DUP2 MSTORE PUSH1 0x4 ADD PUSH2 0x2990 SWAP1 PUSH2 0x6BD3 JUMP JUMPDEST PUSH1 0x40 MLOAD DUP1 SWAP2 SUB SWAP1 REVERT JUMPDEST PUSH2 0x29AD PUSH8 0xF8EB90A27A1A02ED PUSH1 0xC0 SHL PUSH2 0x792 JUMP JUMPDEST PUSH2 0x29C1 PUSH8 0x606F5BF6AD621B2F PUSH1 0xC0 SHL PUSH2 0x792 JUMP JUMPDEST PUSH2 0x29D5 PUSH8 0x5623EB0DD1894F49 PUSH1 0xC0 SHL PUSH2 0x792 JUMP JUMPDEST PUSH2 0x29E9 PUSH8 0xC723B6FF98607F3A PUSH1 0xC0 SHL PUSH2 0x792 JUMP JUMPDEST PUSH2 0x29FD PUSH8 0x5DAE3DE08BA7C535 PUSH1 0xC0 SHL PUSH2 0x792 JUMP JUMPDEST PUSH2 0x2A11 PUSH8 0x91FE1C0F1A4130B8 PUSH1 0xC0 SHL PUSH2 0x792 JUMP JUMPDEST PUSH2 0x2A25 PUSH8 0xCBE892841BBA2264 PUSH1 0xC0 SHL PUSH2 0x792 JUMP JUMPDEST PUSH2 0x2A39 PUSH8 0x72D8C4AC89B1DE5E PUSH1 0xC0 SHL PUSH2 0x792 JUMP JUMPDEST CALLER PUSH20 0xFFFFFFFFFFFFFFFFFFFFFFFFFFFFFFFFFFFFFFFF AND ORIGIN PUSH20 0xFFFFFFFFFFFFFFFFFFFFFFFFFFFFFFFFFFFFFFFF AND EQ PUSH2 0x2AA7 JUMPI PUSH1 0x40 MLOAD PUSH32 0x8C379A000000000000000000000000000000000000000000000000000000000 DUP2 MSTORE PUSH1 0x4 ADD PUSH2 0x2A9E SWAP1 PUSH2 0x693A JUMP JUMPDEST PUSH1 0x40 MLOAD DUP1 SWAP2 SUB SWAP1 REVERT JUMPDEST PUSH2 0x2ABB PUSH8 0x124E087CB3C716CB PUSH1 0xC0 SHL PUSH2 0x792 JUMP JUMPDEST PUSH2 0x2ACF PUSH8 0x1F4B3E3AFB31FBA3 PUSH1 0xC0 SHL PUSH2 0x792 JUMP JUMPDEST PUSH2 0x2AE3 PUSH8 0x9C810256F8AC1F17 PUSH1 0xC0 SHL PUSH2 0x792 JUMP JUMPDEST PUSH2 0x2AF7 PUSH8 0x6DD203E1CC123256 PUSH1 0xC0 SHL PUSH2 0x792 JUMP JUMPDEST PUSH1 0xA PUSH1 0x0 SWAP1 SLOAD SWAP1 PUSH2 0x100 EXP SWAP1 DIV PUSH1 0xFF AND ISZERO PUSH2 0x2B47 JUMPI PUSH1 0x40 MLOAD PUSH32 0x8C379A000000000000000000000000000000000000000000000000000000000 DUP2 MSTORE PUSH1 0x4 ADD PUSH2 0x2B3E SWAP1 PUSH2 0x69A6 JUMP JUMPDEST PUSH1 0x40 MLOAD DUP1 SWAP2 SUB SWAP1 REVERT JUMPDEST PUSH2 0x2B5B PUSH8 0x1ED9ACC055486567 PUSH1 0xC0 SHL PUSH2 0x792 JUMP JUMPDEST PUSH2 0x2B6F PUSH8 0x72A1C8D3D238E9B2 PUSH1 0xC0 SHL PUSH2 0x792 JUMP JUMPDEST PUSH2 0x2B83 PUSH8 0xA399CDD84C56C7D1 PUSH1 0xC0 SHL PUSH2 0x792 JUMP JUMPDEST PUSH2 0x2B97 PUSH8 0x4E34D6659411D37 PUSH1 0xC0 SHL PUSH2 0x792 JUMP JUMPDEST PUSH2 0x2BAB PUSH8 0xB92FB37CD4F7A113 PUSH1 0xC0 SHL PUSH2 0x792 JUMP JUMPDEST PUSH2 0x2BBF PUSH8 0x9E4D54E965A9E320 PUSH1 0xC0 SHL PUSH2 0x792 JUMP JUMPDEST PUSH1 0x0 PUSH1 0x8 SLOAD PUSH1 0x40 MLOAD PUSH1 0x20 ADD PUSH2 0x2BD4 SWAP2 SWAP1 PUSH2 0x7056 JUMP JUMPDEST PUSH1 0x40 MLOAD PUSH1 0x20 DUP2 DUP4 SUB SUB DUP2 MSTORE SWAP1 PUSH1 0x40 MSTORE DUP1 MLOAD SWAP1 PUSH1 0x20 ADD KECCAK256 SWAP1 POP PUSH2 0x2C00 PUSH8 0xC7D461DDAD3FFA53 PUSH1 0xC0 SHL PUSH2 0x792 JUMP JUMPDEST PUSH2 0x2C14 PUSH8 0x5CFAA2EA8A596D7D PUSH1 0xC0 SHL PUSH2 0x792 JUMP JUMPDEST PUSH2 0x2C1D DUP2 PUSH2 0x4A61 JUMP JUMPDEST POP JUMP JUMPDEST PUSH11 0x5CA4EC2A79A7F67000000 DUP2 JUMP JUMPDEST PUSH1 0x6 SLOAD DUP2 JUMP JUMPDEST PUSH1 0x0 PUSH1 0x1 PUSH1 0x0 DUP5 PUSH20 0xFFFFFFFFFFFFFFFFFFFFFFFFFFFFFFFFFFFFFFFF AND PUSH20 0xFFFFFFFFFFFFFFFFFFFFFFFFFFFFFFFFFFFFFFFF AND DUP2 MSTORE PUSH1 0x20 ADD SWAP1 DUP2 MSTORE PUSH1 0x20 ADD PUSH1 0x0 KECCAK256 PUSH1 0x0 DUP4 PUSH20 0xFFFFFFFFFFFFFFFFFFFFFFFFFFFFFFFFFFFFFFFF AND PUSH20 0xFFFFFFFFFFFFFFFFFFFFFFFFFFFFFFFFFFFFFFFF AND DUP2 MSTORE PUSH1 0x20 ADD SWAP1 DUP2 MSTORE PUSH1 0x20 ADD PUSH1 0x0 KECCAK256 SLOAD SWAP1 POP SWAP3 SWAP2 POP POP JUMP JUMPDEST PUSH2 0x2CD0 PUSH8 0x9BDFE230D361DFFF PUSH1 0xC0 SHL PUSH2 0x792 JUMP JUMPDEST PUSH2 0x2CD8 PUSH2 0x5112 JUMP JUMPDEST PUSH2 0x2CEC PUSH8 0xCF17B872FD4DD769 PUSH1 0xC0 SHL PUSH2 0x792 JUMP JUMPDEST PUSH2 0x2D00 PUSH8 0x3FF85676657FB2AC PUSH1 0xC0 SHL PUSH2 0x792 JUMP JUMPDEST PUSH2 0x2D14 PUSH8 0x5DAE3DE08BA7C535 PUSH1 0xC0 SHL PUSH2 0x792 JUMP JUMPDEST PUSH2 0x2D28 PUSH8 0x91FE1C0F1A4130B8 PUSH1 0xC0 SHL PUSH2 0x792 JUMP JUMPDEST PUSH2 0x2D3C PUSH8 0xCBE892841BBA2264 PUSH1 0xC0 SHL PUSH2 0x792 JUMP JUMPDEST PUSH2 0x2D50 PUSH8 0x72D8C4AC89B1DE5E PUSH1 0xC0 SHL PUSH2 0x792 JUMP JUMPDEST CALLER PUSH20 0xFFFFFFFFFFFFFFFFFFFFFFFFFFFFFFFFFFFFFFFF AND ORIGIN PUSH20 0xFFFFFFFFFFFFFFFFFFFFFFFFFFFFFFFFFFFFFFFF AND EQ PUSH2 0x2DBE JUMPI PUSH1 0x40 MLOAD PUSH32 0x8C379A000000000000000000000000000000000000000000000000000000000 DUP2 MSTORE PUSH1 0x4 ADD PUSH2 0x2DB5 SWAP1 PUSH2 0x693A JUMP JUMPDEST PUSH1 0x40 MLOAD DUP1 SWAP2 SUB SWAP1 REVERT JUMPDEST PUSH2 0x2DD2 PUSH8 0x124E087CB3C716CB PUSH1 0xC0 SHL PUSH2 0x792 JUMP JUMPDEST PUSH2 0x2DE6 PUSH8 0x1F4B3E3AFB31FBA3 PUSH1 0xC0 SHL PUSH2 0x792 JUMP JUMPDEST PUSH2 0x2DFA PUSH8 0x9C810256F8AC1F17 PUSH1 0xC0 SHL PUSH2 0x792 JUMP JUMPDEST PUSH2 0x2E0E PUSH8 0x6DD203E1CC123256 PUSH1 0xC0 SHL PUSH2 0x792 JUMP JUMPDEST PUSH1 0xA PUSH1 0x0 SWAP1 SLOAD SWAP1 PUSH2 0x100 EXP SWAP1 DIV PUSH1 0xFF AND ISZERO PUSH2 0x2E5E JUMPI PUSH1 0x40 MLOAD PUSH32 0x8C379A000000000000000000000000000000000000000000000000000000000 DUP2 MSTORE PUSH1 0x4 ADD PUSH2 0x2E55 SWAP1 PUSH2 0x69A6 JUMP JUMPDEST PUSH1 0x40 MLOAD DUP1 SWAP2 SUB SWAP1 REVERT JUMPDEST PUSH2 0x2E72 PUSH8 0x1ED9ACC055486567 PUSH1 0xC0 SHL PUSH2 0x792 JUMP JUMPDEST PUSH2 0x2E86 PUSH8 0x72A1C8D3D238E9B2 PUSH1 0xC0 SHL PUSH2 0x792 JUMP JUMPDEST PUSH2 0x2E9A PUSH8 0x58D18726AE16E02E PUSH1 0xC0 SHL PUSH2 0x792 JUMP JUMPDEST PUSH2 0x2EAE PUSH8 0x3A7F8946C725898 PUSH1 0xC0 SHL PUSH2 0x792 JUMP JUMPDEST PUSH2 0x2EC2 PUSH8 0xEB37B39075BAEB49 PUSH1 0xC0 SHL PUSH2 0x792 JUMP JUMPDEST PUSH2 0x2ED6 PUSH8 0xFCD1B79D8F440ED4 PUSH1 0xC0 SHL PUSH2 0x792 JUMP JUMPDEST PUSH2 0x2EEA PUSH8 0x9B0E6BA60A126B33 PUSH1 0xC0 SHL PUSH2 0x792 JUMP JUMPDEST DUP1 PUSH2 0x2EF4 CALLER PUSH2 0x1C78 JUMP JUMPDEST LT ISZERO PUSH2 0x2F35 JUMPI PUSH1 0x40 MLOAD PUSH32 0x8C379A000000000000000000000000000000000000000000000000000000000 DUP2 MSTORE PUSH1 0x4 ADD PUSH2 0x2F2C SWAP1 PUSH2 0x70C8 JUMP JUMPDEST PUSH1 0x40 MLOAD DUP1 SWAP2 SUB SWAP1 REVERT JUMPDEST PUSH2 0x2F49 PUSH8 0x24ADD6411F43D027 PUSH1 0xC0 SHL PUSH2 0x792 JUMP JUMPDEST PUSH2 0x2F5D PUSH8 0xFAF08B0DEB7CF574 PUSH1 0xC0 SHL PUSH2 0x792 JUMP JUMPDEST PUSH2 0x2F71 PUSH8 0x2CE9E4D41E398AFB PUSH1 0xC0 SHL PUSH2 0x792 JUMP JUMPDEST PUSH2 0x2F7B CALLER DUP3 PUSH2 0x5158 JUMP JUMPDEST PUSH2 0x2F8F PUSH8 0x6CB302631725F595 PUSH1 0xC0 SHL PUSH2 0x792 JUMP JUMPDEST PUSH2 0x2FA3 PUSH8 0x610216805D699F9 PUSH1 0xC0 SHL PUSH2 0x792 JUMP JUMPDEST PUSH1 0x0 CALLER PUSH20 0xFFFFFFFFFFFFFFFFFFFFFFFFFFFFFFFFFFFFFFFF AND DUP3 PUSH1 0x40 MLOAD PUSH2 0x2FC9 SWAP1 PUSH2 0x7119 JUMP JUMPDEST PUSH1 0x0 PUSH1 0x40 MLOAD DUP1 DUP4 SUB DUP2 DUP6 DUP8 GAS CALL SWAP3 POP POP POP RETURNDATASIZE DUP1 PUSH1 0x0 DUP2 EQ PUSH2 0x3006 JUMPI PUSH1 0x40 MLOAD SWAP2 POP PUSH1 0x1F NOT PUSH1 0x3F RETURNDATASIZE ADD AND DUP3 ADD PUSH1 0x40 MSTORE RETURNDATASIZE DUP3 MSTORE RETURNDATASIZE PUSH1 0x0 PUSH1 0x20 DUP5 ADD RETURNDATACOPY PUSH2 0x300B JUMP JUMPDEST PUSH1 0x60 SWAP2 POP JUMPDEST POP POP SWAP1 POP PUSH2 0x3023 PUSH8 0x5F47385AA1000E1F PUSH1 0xC0 SHL PUSH2 0x792 JUMP JUMPDEST PUSH2 0x3037 PUSH8 0x30C45B10DAB45E2E PUSH1 0xC0 SHL PUSH2 0x792 JUMP JUMPDEST PUSH2 0x304B PUSH8 0x98FD5A88FB0FEB90 PUSH1 0xC0 SHL PUSH2 0x792 JUMP JUMPDEST DUP1 PUSH2 0x308B JUMPI PUSH1 0x40 MLOAD PUSH32 0x8C379A000000000000000000000000000000000000000000000000000000000 DUP2 MSTORE PUSH1 0x4 ADD PUSH2 0x3082 SWAP1 PUSH2 0x717A JUMP JUMPDEST PUSH1 0x40 MLOAD DUP1 SWAP2 SUB SWAP1 REVERT JUMPDEST PUSH2 0x309F PUSH8 0x2F69415C45890F09 PUSH1 0xC0 SHL PUSH2 0x792 JUMP JUMPDEST PUSH2 0x30B3 PUSH8 0xCC9820D7CDA5F890 PUSH1 0xC0 SHL PUSH2 0x792 JUMP JUMPDEST PUSH2 0x30C7 PUSH8 0x91DCCCD56486141C PUSH1 0xC0 SHL PUSH2 0x792 JUMP JUMPDEST CALLER PUSH20 0xFFFFFFFFFFFFFFFFFFFFFFFFFFFFFFFFFFFFFFFF AND PUSH32 0x95AE649BFAAEF9DEF56A52F4FB2D9E8FA5496BB7082930E442C74CC76B03DCB3 DUP4 PUSH1 0x40 MLOAD PUSH2 0x310D SWAP2 SWAP1 PUSH2 0x64F7 JUMP JUMPDEST PUSH1 0x40 MLOAD DUP1 SWAP2 SUB SWAP1 LOG2 POP PUSH2 0x311E PUSH2 0x51DA JUMP JUMPDEST POP JUMP JUMPDEST PUSH2 0x3135 PUSH8 0xF44BDBA4669DB51A PUSH1 0xC0 SHL PUSH2 0x792 JUMP JUMPDEST PUSH2 0x3149 PUSH8 0x6625B41EEF717A9C PUSH1 0xC0 SHL PUSH2 0x792 JUMP JUMPDEST PUSH2 0x315D PUSH8 0x424EDD69AAA529F7 PUSH1 0xC0 SHL PUSH2 0x792 JUMP JUMPDEST PUSH2 0x3171 PUSH8 0x5F2C499D40FF854D PUSH1 0xC0 SHL PUSH2 0x792 JUMP JUMPDEST PUSH2 0x3185 PUSH8 0xB0E70C159CAD0B72 PUSH1 0xC0 SHL PUSH2 0x792 JUMP JUMPDEST PUSH1 0xC PUSH1 0x0 CALLER PUSH20 0xFFFFFFFFFFFFFFFFFFFFFFFFFFFFFFFFFFFFFFFF AND PUSH20 0xFFFFFFFFFFFFFFFFFFFFFFFFFFFFFFFFFFFFFFFF AND DUP2 MSTORE PUSH1 0x20 ADD SWAP1 DUP2 MSTORE PUSH1 0x20 ADD PUSH1 0x0 KECCAK256 PUSH1 0x0 SWAP1 SLOAD SWAP1 PUSH2 0x100 EXP SWAP1 DIV PUSH1 0xFF AND DUP1 ISZERO PUSH2 0x31EE JUMPI POP PUSH2 0x31ED PUSH8 0x75CAA2BA275F4D28 PUSH1 0xC0 SHL PUSH2 0x3C4B JUMP JUMPDEST JUMPDEST DUP1 PUSH2 0x3262 JUMPI POP PUSH1 0xD PUSH1 0x0 SWAP1 SLOAD SWAP1 PUSH2 0x100 EXP SWAP1 DIV PUSH20 0xFFFFFFFFFFFFFFFFFFFFFFFFFFFFFFFFFFFFFFFF AND PUSH20 0xFFFFFFFFFFFFFFFFFFFFFFFFFFFFFFFFFFFFFFFF AND CALLER PUSH20 0xFFFFFFFFFFFFFFFFFFFFFFFFFFFFFFFFFFFFFFFF AND EQ DUP1 ISZERO PUSH2 0x3261 JUMPI POP PUSH2 0x3260 PUSH8 0xD45BCFC309163B9F PUSH1 0xC0 SHL PUSH2 0x3C4B JUMP JUMPDEST JUMPDEST JUMPDEST PUSH2 0x32A1 JUMPI PUSH1 0x40 MLOAD PUSH32 0x8C379A000000000000000000000000000000000000000000000000000000000 DUP2 MSTORE PUSH1 0x4 ADD PUSH2 0x3298 SWAP1 PUSH2 0x6BD3 JUMP JUMPDEST PUSH1 0x40 MLOAD DUP1 SWAP2 SUB SWAP1 REVERT JUMPDEST PUSH2 0x32B5 PUSH8 0xF8EB90A27A1A02ED PUSH1 0xC0 SHL PUSH2 0x792 JUMP JUMPDEST PUSH2 0x32C9 PUSH8 0x606F5BF6AD621B2F PUSH1 0xC0 SHL PUSH2 0x792 JUMP JUMPDEST PUSH2 0x32DD PUSH8 0x87A367CAFAAFF609 PUSH1 0xC0 SHL PUSH2 0x792 JUMP JUMPDEST PUSH2 0x32F1 PUSH8 0x3A6AF0F2CDEC756D PUSH1 0xC0 SHL PUSH2 0x792 JUMP JUMPDEST PUSH2 0x3305 PUSH8 0x5DAE3DE08BA7C535 PUSH1 0xC0 SHL PUSH2 0x792 JUMP JUMPDEST PUSH2 0x3319 PUSH8 0x91FE1C0F1A4130B8 PUSH1 0xC0 SHL PUSH2 0x792 JUMP JUMPDEST PUSH2 0x332D PUSH8 0xCBE892841BBA2264 PUSH1 0xC0 SHL PUSH2 0x792 JUMP JUMPDEST PUSH2 0x3341 PUSH8 0x72D8C4AC89B1DE5E PUSH1 0xC0 SHL PUSH2 0x792 JUMP JUMPDEST CALLER PUSH20 0xFFFFFFFFFFFFFFFFFFFFFFFFFFFFFFFFFFFFFFFF AND ORIGIN PUSH20 0xFFFFFFFFFFFFFFFFFFFFFFFFFFFFFFFFFFFFFFFF AND EQ PUSH2 0x33AF JUMPI PUSH1 0x40 MLOAD PUSH32 0x8C379A000000000000000000000000000000000000000000000000000000000 DUP2 MSTORE PUSH1 0x4 ADD PUSH2 0x33A6 SWAP1 PUSH2 0x693A JUMP JUMPDEST PUSH1 0x40 MLOAD DUP1 SWAP2 SUB SWAP1 REVERT JUMPDEST PUSH2 0x33C3 PUSH8 0x124E087CB3C716CB PUSH1 0xC0 SHL PUSH2 0x792 JUMP JUMPDEST PUSH2 0x33D7 PUSH8 0x1F4B3E3AFB31FBA3 PUSH1 0xC0 SHL PUSH2 0x792 JUMP JUMPDEST PUSH2 0x33EB PUSH8 0x9C810256F8AC1F17 PUSH1 0xC0 SHL PUSH2 0x792 JUMP JUMPDEST PUSH2 0x33FF PUSH8 0x6DD203E1CC123256 PUSH1 0xC0 SHL PUSH2 0x792 JUMP JUMPDEST PUSH1 0xA PUSH1 0x0 SWAP1 SLOAD SWAP1 PUSH2 0x100 EXP SWAP1 DIV PUSH1 0xFF AND ISZERO PUSH2 0x344F JUMPI PUSH1 0x40 MLOAD PUSH32 0x8C379A000000000000000000000000000000000000000000000000000000000 DUP2 MSTORE PUSH1 0x4 ADD PUSH2 0x3446 SWAP1 PUSH2 0x69A6 JUMP JUMPDEST PUSH1 0x40 MLOAD DUP1 SWAP2 SUB SWAP1 REVERT JUMPDEST PUSH2 0x3463 PUSH8 0x1ED9ACC055486567 PUSH1 0xC0 SHL PUSH2 0x792 JUMP JUMPDEST PUSH2 0x3477 PUSH8 0x72A1C8D3D238E9B2 PUSH1 0xC0 SHL PUSH2 0x792 JUMP JUMPDEST PUSH2 0x348B PUSH8 0xE9F9178E83D7AC28 PUSH1 0xC0 SHL PUSH2 0x792 JUMP JUMPDEST PUSH2 0x349F PUSH8 0x5FF4C8D3E8CFFCB PUSH1 0xC0 SHL PUSH2 0x792 JUMP JUMPDEST PUSH2 0x34B3 PUSH8 0x68CD1153F45E9750 PUSH1 0xC0 SHL PUSH2 0x792 JUMP JUMPDEST PUSH2 0x34C7 PUSH8 0x69ABABAA8A8506B2 PUSH1 0xC0 SHL PUSH2 0x792 JUMP JUMPDEST PUSH1 0x0 DUP2 PUSH1 0x40 MLOAD PUSH1 0x20 ADD PUSH2 0x34DA SWAP2 SWAP1 PUSH2 0x71E6 JUMP JUMPDEST PUSH1 0x40 MLOAD PUSH1 0x20 DUP2 DUP4 SUB SUB DUP2 MSTORE SWAP1 PUSH1 0x40 MSTORE DUP1 MLOAD SWAP1 PUSH1 0x20 ADD KECCAK256 SWAP1 POP PUSH2 0x3506 PUSH8 0xCC8F162159E004FA PUSH1 0xC0 SHL PUSH2 0x792 JUMP JUMPDEST PUSH2 0x351A PUSH8 0xCABF96746EC6830A PUSH1 0xC0 SHL PUSH2 0x792 JUMP JUMPDEST PUSH2 0x3524 DUP3 DUP3 PUSH2 0x51E4 JUMP JUMPDEST POP POP JUMP JUMPDEST PUSH2 0x353C PUSH8 0x8E0AE6431CD3575 PUSH1 0xC0 SHL PUSH2 0x792 JUMP JUMPDEST PUSH2 0x3550 PUSH8 0x6625B41EEF717A9C PUSH1 0xC0 SHL PUSH2 0x792 JUMP JUMPDEST PUSH2 0x3564 PUSH8 0x424EDD69AAA529F7 PUSH1 0xC0 SHL PUSH2 0x792 JUMP JUMPDEST PUSH2 0x3578 PUSH8 0x5F2C499D40FF854D PUSH1 0xC0 SHL PUSH2 0x792 JUMP JUMPDEST PUSH2 0x358C PUSH8 0xB0E70C159CAD0B72 PUSH1 0xC0 SHL PUSH2 0x792 JUMP JUMPDEST PUSH1 0xC PUSH1 0x0 CALLER PUSH20 0xFFFFFFFFFFFFFFFFFFFFFFFFFFFFFFFFFFFFFFFF AND PUSH20 0xFFFFFFFFFFFFFFFFFFFFFFFFFFFFFFFFFFFFFFFF AND DUP2 MSTORE PUSH1 0x20 ADD SWAP1 DUP2 MSTORE PUSH1 0x20 ADD PUSH1 0x0 KECCAK256 PUSH1 0x0 SWAP1 SLOAD SWAP1 PUSH2 0x100 EXP SWAP1 DIV PUSH1 0xFF AND DUP1 ISZERO PUSH2 0x35F5 JUMPI POP PUSH2 0x35F4 PUSH8 0x75CAA2BA275F4D28 PUSH1 0xC0 SHL PUSH2 0x3C4B JUMP JUMPDEST JUMPDEST DUP1 PUSH2 0x3669 JUMPI POP PUSH1 0xD PUSH1 0x0 SWAP1 SLOAD SWAP1 PUSH2 0x100 EXP SWAP1 DIV PUSH20 0xFFFFFFFFFFFFFFFFFFFFFFFFFFFFFFFFFFFFFFFF AND PUSH20 0xFFFFFFFFFFFFFFFFFFFFFFFFFFFFFFFFFFFFFFFF AND CALLER PUSH20 0xFFFFFFFFFFFFFFFFFFFFFFFFFFFFFFFFFFFFFFFF AND EQ DUP1 ISZERO PUSH2 0x3668 JUMPI POP PUSH2 0x3667 PUSH8 0xD45BCFC309163B9F PUSH1 0xC0 SHL PUSH2 0x3C4B JUMP JUMPDEST JUMPDEST JUMPDEST PUSH2 0x36A8 JUMPI PUSH1 0x40 MLOAD PUSH32 0x8C379A000000000000000000000000000000000000000000000000000000000 DUP2 MSTORE PUSH1 0x4 ADD PUSH2 0x369F SWAP1 PUSH2 0x6BD3 JUMP JUMPDEST PUSH1 0x40 MLOAD DUP1 SWAP2 SUB SWAP1 REVERT JUMPDEST PUSH2 0x36BC PUSH8 0xF8EB90A27A1A02ED PUSH1 0xC0 SHL PUSH2 0x792 JUMP JUMPDEST PUSH2 0x36D0 PUSH8 0x606F5BF6AD621B2F PUSH1 0xC0 SHL PUSH2 0x792 JUMP JUMPDEST PUSH2 0x36E4 PUSH8 0x6C991369AD6E7E97 PUSH1 0xC0 SHL PUSH2 0x792 JUMP JUMPDEST PUSH2 0x36F8 PUSH8 0xB0CC9CC9633CE683 PUSH1 0xC0 SHL PUSH2 0x792 JUMP JUMPDEST PUSH2 0x370C PUSH8 0x5DAE3DE08BA7C535 PUSH1 0xC0 SHL PUSH2 0x792 JUMP JUMPDEST PUSH2 0x3720 PUSH8 0x91FE1C0F1A4130B8 PUSH1 0xC0 SHL PUSH2 0x792 JUMP JUMPDEST PUSH2 0x3734 PUSH8 0xCBE892841BBA2264 PUSH1 0xC0 SHL PUSH2 0x792 JUMP JUMPDEST PUSH2 0x3748 PUSH8 0x72D8C4AC89B1DE5E PUSH1 0xC0 SHL PUSH2 0x792 JUMP JUMPDEST CALLER PUSH20 0xFFFFFFFFFFFFFFFFFFFFFFFFFFFFFFFFFFFFFFFF AND ORIGIN PUSH20 0xFFFFFFFFFFFFFFFFFFFFFFFFFFFFFFFFFFFFFFFF AND EQ PUSH2 0x37B6 JUMPI PUSH1 0x40 MLOAD PUSH32 0x8C379A000000000000000000000000000000000000000000000000000000000 DUP2 MSTORE PUSH1 0x4 ADD PUSH2 0x37AD SWAP1 PUSH2 0x693A JUMP JUMPDEST PUSH1 0x40 MLOAD DUP1 SWAP2 SUB SWAP1 REVERT JUMPDEST PUSH2 0x37CA PUSH8 0x124E087CB3C716CB PUSH1 0xC0 SHL PUSH2 0x792 JUMP JUMPDEST PUSH2 0x37DE PUSH8 0x1F4B3E3AFB31FBA3 PUSH1 0xC0 SHL PUSH2 0x792 JUMP JUMPDEST PUSH2 0x37F2 PUSH8 0x9C810256F8AC1F17 PUSH1 0xC0 SHL PUSH2 0x792 JUMP JUMPDEST PUSH2 0x3806 PUSH8 0x6DD203E1CC123256 PUSH1 0xC0 SHL PUSH2 0x792 JUMP JUMPDEST PUSH1 0xA PUSH1 0x0 SWAP1 SLOAD SWAP1 PUSH2 0x100 EXP SWAP1 DIV PUSH1 0xFF AND ISZERO PUSH2 0x3856 JUMPI PUSH1 0x40 MLOAD PUSH32 0x8C379A000000000000000000000000000000000000000000000000000000000 DUP2 MSTORE PUSH1 0x4 ADD PUSH2 0x384D SWAP1 PUSH2 0x69A6 JUMP JUMPDEST PUSH1 0x40 MLOAD DUP1 SWAP2 SUB SWAP1 REVERT JUMPDEST PUSH2 0x386A PUSH8 0x1ED9ACC055486567 PUSH1 0xC0 SHL PUSH2 0x792 JUMP JUMPDEST PUSH2 0x387E PUSH8 0x72A1C8D3D238E9B2 PUSH1 0xC0 SHL PUSH2 0x792 JUMP JUMPDEST PUSH2 0x3892 PUSH8 0xDAB815637319B349 PUSH1 0xC0 SHL PUSH2 0x792 JUMP JUMPDEST PUSH2 0x38A6 PUSH8 0xDA12D573507E3977 PUSH1 0xC0 SHL PUSH2 0x792 JUMP JUMPDEST PUSH2 0x38BA PUSH8 0x485BBDDCEAE27C75 PUSH1 0xC0 SHL PUSH2 0x792 JUMP JUMPDEST PUSH2 0x38CE PUSH8 0x56F7BB087A10C67A PUSH1 0xC0 SHL PUSH2 0x792 JUMP JUMPDEST PUSH2 0x38E2 PUSH8 0x41ABF3B6CDE4187C PUSH1 0xC0 SHL PUSH2 0x792 JUMP JUMPDEST PUSH1 0x0 PUSH20 0xFFFFFFFFFFFFFFFFFFFFFFFFFFFFFFFFFFFFFFFF AND DUP2 PUSH20 0xFFFFFFFFFFFFFFFFFFFFFFFFFFFFFFFFFFFFFFFF AND SUB PUSH2 0x3951 JUMPI PUSH1 0x40 MLOAD PUSH32 0x8C379A000000000000000000000000000000000000000000000000000000000 DUP2 MSTORE PUSH1 0x4 ADD PUSH2 0x3948 SWAP1 PUSH2 0x7258 JUMP JUMPDEST PUSH1 0x40 MLOAD DUP1 SWAP2 SUB SWAP1 REVERT JUMPDEST PUSH2 0x3965 PUSH8 0x3892D7A2D1589BD4 PUSH1 0xC0 SHL PUSH2 0x792 JUMP JUMPDEST PUSH2 0x3979 PUSH8 0xD06939FF10CCFFB9 PUSH1 0xC0 SHL PUSH2 0x792 JUMP JUMPDEST PUSH2 0x398D PUSH8 0x5B491A89625196C2 PUSH1 0xC0 SHL PUSH2 0x792 JUMP JUMPDEST PUSH2 0x39A1 PUSH8 0xCBD68E2FCFAF1D77 PUSH1 0xC0 SHL PUSH2 0x792 JUMP JUMPDEST PUSH1 0xC PUSH1 0x0 DUP4 PUSH20 0xFFFFFFFFFFFFFFFFFFFFFFFFFFFFFFFFFFFFFFFF AND PUSH20 0xFFFFFFFFFFFFFFFFFFFFFFFFFFFFFFFFFFFFFFFF AND DUP2 MSTORE PUSH1 0x20 ADD SWAP1 DUP2 MSTORE PUSH1 0x20 ADD PUSH1 0x0 KECCAK256 PUSH1 0x0 SWAP1 SLOAD SWAP1 PUSH2 0x100 EXP SWAP1 DIV PUSH1 0xFF AND PUSH2 0x3A2D JUMPI PUSH1 0x40 MLOAD PUSH32 0x8C379A000000000000000000000000000000000000000000000000000000000 DUP2 MSTORE PUSH1 0x4 ADD PUSH2 0x3A24 SWAP1 PUSH2 0x72EA JUMP JUMPDEST PUSH1 0x40 MLOAD DUP1 SWAP2 SUB SWAP1 REVERT JUMPDEST PUSH2 0x3A41 PUSH8 0x3A029E9D9E1E6E80 PUSH1 0xC0 SHL PUSH2 0x792 JUMP JUMPDEST PUSH2 0x3A55 PUSH8 0xC4740C0B39ADE0F3 PUSH1 0xC0 SHL PUSH2 0x792 JUMP JUMPDEST PUSH2 0x3A69 PUSH8 0xA4126E5EFF97FA64 PUSH1 0xC0 SHL PUSH2 0x792 JUMP JUMPDEST PUSH2 0x3A7D PUSH8 0x1546D25FDB9BB80D PUSH1 0xC0 SHL PUSH2 0x792 JUMP JUMPDEST PUSH1 0xC PUSH1 0x0 DUP3 PUSH20 0xFFFFFFFFFFFFFFFFFFFFFFFFFFFFFFFFFFFFFFFF AND PUSH20 0xFFFFFFFFFFFFFFFFFFFFFFFFFFFFFFFFFFFFFFFF AND DUP2 MSTORE PUSH1 0x20 ADD SWAP1 DUP2 MSTORE PUSH1 0x20 ADD PUSH1 0x0 KECCAK256 PUSH1 0x0 SWAP1 SLOAD SWAP1 PUSH2 0x100 EXP SWAP1 DIV PUSH1 0xFF AND ISZERO PUSH2 0x3B0A JUMPI PUSH1 0x40 MLOAD PUSH32 0x8C379A000000000000000000000000000000000000000000000000000000000 DUP2 MSTORE PUSH1 0x4 ADD PUSH2 0x3B01 SWAP1 PUSH2 0x737C JUMP JUMPDEST PUSH1 0x40 MLOAD DUP1 SWAP2 SUB SWAP1 REVERT JUMPDEST PUSH2 0x3B1E PUSH8 0x42C8F651CED40D8F PUSH1 0xC0 SHL PUSH2 0x792 JUMP JUMPDEST PUSH2 0x3B32 PUSH8 0x859470F39383B9B2 PUSH1 0xC0 SHL PUSH2 0x792 JUMP JUMPDEST PUSH2 0x3B46 PUSH8 0xC8655AA1C514B8B1 PUSH1 0xC0 SHL PUSH2 0x792 JUMP JUMPDEST PUSH1 0x0 DUP3 DUP3 PUSH1 0x8 SLOAD PUSH1 0x40 MLOAD PUSH1 0x20 ADD PUSH2 0x3B5F SWAP4 SWAP3 SWAP2 SWAP1 PUSH2 0x73E8 JUMP JUMPDEST PUSH1 0x40 MLOAD PUSH1 0x20 DUP2 DUP4 SUB SUB DUP2 MSTORE SWAP1 PUSH1 0x40 MSTORE DUP1 MLOAD SWAP1 PUSH1 0x20 ADD KECCAK256 SWAP1 POP PUSH2 0x3B8B PUSH8 0x6064C3E9C1BCBD91 PUSH1 0xC0 SHL PUSH2 0x792 JUMP JUMPDEST PUSH2 0x3B9F PUSH8 0x60C1D36DEF58B587 PUSH1 0xC0 SHL PUSH2 0x792 JUMP JUMPDEST PUSH2 0x3BAA DUP4 DUP4 DUP4 PUSH2 0x56FE JUMP JUMPDEST POP POP POP JUMP JUMPDEST PUSH1 0x0 PUSH20 0xFFFFFFFFFFFFFFFFFFFFFFFFFFFFFFFFFFFFFFFF AND DUP3 PUSH20 0xFFFFFFFFFFFFFFFFFFFFFFFFFFFFFFFFFFFFFFFF AND SUB PUSH2 0x3C21 JUMPI PUSH1 0x0 PUSH1 0x40 MLOAD PUSH32 0xEC442F0500000000000000000000000000000000000000000000000000000000 DUP2 MSTORE PUSH1 0x4 ADD PUSH2 0x3C18 SWAP2 SWAP1 PUSH2 0x6379 JUMP JUMPDEST PUSH1 0x40 MLOAD DUP1 SWAP2 SUB SWAP1 REVERT JUMPDEST PUSH2 0x3C2D PUSH1 0x0 DUP4 DUP4 PUSH2 0x5E67 JUMP JUMPDEST POP POP JUMP JUMPDEST PUSH1 0x0 CALLER SWAP1 POP SWAP1 JUMP JUMPDEST PUSH2 0x3C46 DUP4 DUP4 DUP4 PUSH1 0x1 PUSH2 0x608C JUMP JUMPDEST POP POP POP JUMP JUMPDEST PUSH1 0x0 PUSH1 0x1 SWAP1 POP SWAP2 SWAP1 POP JUMP JUMPDEST PUSH1 0x0 PUSH2 0x3C62 DUP5 DUP5 PUSH2 0x2C35 JUMP JUMPDEST SWAP1 POP PUSH32 0xFFFFFFFFFFFFFFFFFFFFFFFFFFFFFFFFFFFFFFFFFFFFFFFFFFFFFFFFFFFFFFFF DUP2 LT ISZERO PUSH2 0x3CE5 JUMPI DUP2 DUP2 LT ISZERO PUSH2 0x3CD5 JUMPI DUP3 DUP2 DUP4 PUSH1 0x40 MLOAD PUSH32 0xFB8F41B200000000000000000000000000000000000000000000000000000000 DUP2 MSTORE PUSH1 0x4 ADD PUSH2 0x3CCC SWAP4 SWAP3 SWAP2 SWAP1 PUSH2 0x7430 JUMP JUMPDEST PUSH1 0x40 MLOAD DUP1 SWAP2 SUB SWAP1 REVERT JUMPDEST PUSH2 0x3CE4 DUP5 DUP5 DUP5 DUP5 SUB PUSH1 0x0 PUSH2 0x608C JUMP JUMPDEST JUMPDEST POP POP POP POP JUMP JUMPDEST PUSH1 0x0 PUSH20 0xFFFFFFFFFFFFFFFFFFFFFFFFFFFFFFFFFFFFFFFF AND DUP4 PUSH20 0xFFFFFFFFFFFFFFFFFFFFFFFFFFFFFFFFFFFFFFFF AND SUB PUSH2 0x3D5D JUMPI PUSH1 0x0 PUSH1 0x40 MLOAD PUSH32 0x96C6FD1E00000000000000000000000000000000000000000000000000000000 DUP2 MSTORE PUSH1 0x4 ADD PUSH2 0x3D54 SWAP2 SWAP1 PUSH2 0x6379 JUMP JUMPDEST PUSH1 0x40 MLOAD DUP1 SWAP2 SUB SWAP1 REVERT JUMPDEST PUSH1 0x0 PUSH20 0xFFFFFFFFFFFFFFFFFFFFFFFFFFFFFFFFFFFFFFFF AND DUP3 PUSH20 0xFFFFFFFFFFFFFFFFFFFFFFFFFFFFFFFFFFFFFFFF AND SUB PUSH2 0x3DCF JUMPI PUSH1 0x0 PUSH1 0x40 MLOAD PUSH32 0xEC442F0500000000000000000000000000000000000000000000000000000000 DUP2 MSTORE PUSH1 0x4 ADD PUSH2 0x3DC6 SWAP2 SWAP1 PUSH2 0x6379 JUMP JUMPDEST PUSH1 0x40 MLOAD DUP1 SWAP2 SUB SWAP1 REVERT JUMPDEST PUSH2 0x3DDA DUP4 DUP4 DUP4 PUSH2 0x5E67 JUMP JUMPDEST POP POP POP JUMP JUMPDEST PUSH2 0x3DF3 PUSH8 0xF2AF68FC90C7A63 PUSH1 0xC0 SHL PUSH2 0x792 JUMP JUMPDEST DUP1 PUSH2 0x3E08 PUSH8 0x56606941532D9984 PUSH1 0xC0 SHL PUSH2 0x792 JUMP JUMPDEST PUSH2 0x3E1C PUSH8 0xF39DD7AFFB1E7ED PUSH1 0xC0 SHL PUSH2 0x792 JUMP JUMPDEST PUSH2 0x3E30 PUSH8 0xDAF59751D71BE97B PUSH1 0xC0 SHL PUSH2 0x792 JUMP JUMPDEST PUSH1 0x0 JUMPDEST PUSH1 0xB DUP1 SLOAD SWAP1 POP DUP2 LT ISZERO PUSH2 0x402B JUMPI PUSH2 0x3E54 PUSH8 0x5AF11EFD55F94A7F PUSH1 0xC0 SHL PUSH2 0x792 JUMP JUMPDEST PUSH2 0x3E68 PUSH8 0xE3A9B4AAA5483896 PUSH1 0xC0 SHL PUSH2 0x792 JUMP JUMPDEST PUSH1 0xE PUSH1 0x0 DUP4 DUP2 MSTORE PUSH1 0x20 ADD SWAP1 DUP2 MSTORE PUSH1 0x20 ADD PUSH1 0x0 KECCAK256 PUSH1 0x0 PUSH1 0xB DUP4 DUP2 SLOAD DUP2 LT PUSH2 0x3E91 JUMPI PUSH2 0x3E90 PUSH2 0x7467 JUMP JUMPDEST JUMPDEST SWAP1 PUSH1 0x0 MSTORE PUSH1 0x20 PUSH1 0x0 KECCAK256 ADD PUSH1 0x0 SWAP1 SLOAD SWAP1 PUSH2 0x100 EXP SWAP1 DIV PUSH20 0xFFFFFFFFFFFFFFFFFFFFFFFFFFFFFFFFFFFFFFFF AND PUSH20 0xFFFFFFFFFFFFFFFFFFFFFFFFFFFFFFFFFFFFFFFF AND PUSH20 0xFFFFFFFFFFFFFFFFFFFFFFFFFFFFFFFFFFFFFFFF AND DUP2 MSTORE PUSH1 0x20 ADD SWAP1 DUP2 MSTORE PUSH1 0x20 ADD PUSH1 0x0 KECCAK256 PUSH1 0x0 SWAP1 SLOAD SWAP1 PUSH2 0x100 EXP SWAP1 DIV PUSH1 0xFF AND ISZERO PUSH2 0x4009 JUMPI PUSH2 0x3F1D PUSH8 0xDC80BE5E32EFE352 PUSH1 0xC0 SHL PUSH2 0x792 JUMP JUMPDEST PUSH2 0x3F31 PUSH8 0xC5B29A0BAC47E40D PUSH1 0xC0 SHL PUSH2 0x792 JUMP JUMPDEST PUSH1 0x7 PUSH1 0x0 DUP2 SLOAD DUP1 SWAP3 SWAP2 SWAP1 PUSH2 0x3F44 SWAP1 PUSH2 0x7496 JUMP JUMPDEST SWAP2 SWAP1 POP SSTORE POP PUSH2 0x3F5D PUSH8 0xFBC274B6D354CBC0 PUSH1 0xC0 SHL PUSH2 0x792 JUMP JUMPDEST PUSH1 0x0 PUSH1 0xE PUSH1 0x0 DUP5 DUP2 MSTORE PUSH1 0x20 ADD SWAP1 DUP2 MSTORE PUSH1 0x20 ADD PUSH1 0x0 KECCAK256 PUSH1 0x0 PUSH1 0xB DUP5 DUP2 SLOAD DUP2 LT PUSH2 0x3F88 JUMPI PUSH2 0x3F87 PUSH2 0x7467 JUMP JUMPDEST JUMPDEST SWAP1 PUSH1 0x0 MSTORE PUSH1 0x20 PUSH1 0x0 KECCAK256 ADD PUSH1 0x0 SWAP1 SLOAD SWAP1 PUSH2 0x100 EXP SWAP1 DIV PUSH20 0xFFFFFFFFFFFFFFFFFFFFFFFFFFFFFFFFFFFFFFFF AND PUSH20 0xFFFFFFFFFFFFFFFFFFFFFFFFFFFFFFFFFFFFFFFF AND PUSH20 0xFFFFFFFFFFFFFFFFFFFFFFFFFFFFFFFFFFFFFFFF AND DUP2 MSTORE PUSH1 0x20 ADD SWAP1 DUP2 MSTORE PUSH1 0x20 ADD PUSH1 0x0 KECCAK256 PUSH1 0x0 PUSH2 0x100 EXP DUP2 SLOAD DUP2 PUSH1 0xFF MUL NOT AND SWAP1 DUP4 ISZERO ISZERO MUL OR SWAP1 SSTORE POP PUSH2 0x401E JUMP JUMPDEST PUSH2 0x401D PUSH8 0xAB943F2E161A0456 PUSH1 0xC0 SHL PUSH2 0x792 JUMP JUMPDEST JUMPDEST DUP1 DUP1 PUSH1 0x1 ADD SWAP2 POP POP PUSH2 0x3E33 JUMP JUMPDEST POP PUSH2 0x4040 PUSH8 0xCF835ADF38C86F7C PUSH1 0xC0 SHL PUSH2 0x792 JUMP JUMPDEST PUSH2 0x4054 PUSH8 0xC52128A66F522373 PUSH1 0xC0 SHL PUSH2 0x792 JUMP JUMPDEST PUSH2 0x4068 PUSH8 0xC34569649DB67A3C PUSH1 0xC0 SHL PUSH2 0x792 JUMP JUMPDEST PUSH1 0x3 PUSH1 0x7 SLOAD LT ISZERO PUSH2 0x40AE JUMPI PUSH1 0x40 MLOAD PUSH32 0x8C379A000000000000000000000000000000000000000000000000000000000 DUP2 MSTORE PUSH1 0x4 ADD PUSH2 0x40A5 SWAP1 PUSH2 0x7550 JUMP JUMPDEST PUSH1 0x40 MLOAD DUP1 SWAP2 SUB SWAP1 REVERT JUMPDEST PUSH2 0x40C2 PUSH8 0x5D44DAA520FCC460 PUSH1 0xC0 SHL PUSH2 0x792 JUMP JUMPDEST PUSH2 0x40D6 PUSH8 0x891EEFE4C1D9C2A8 PUSH1 0xC0 SHL PUSH2 0x792 JUMP JUMPDEST PUSH1 0x0 PUSH1 0x7 DUP2 SWAP1 SSTORE POP PUSH2 0x40F2 PUSH8 0x6FBA0BC18282FC79 PUSH1 0xC0 SHL PUSH2 0x792 JUMP JUMPDEST PUSH2 0x4106 PUSH8 0xF95C539545F0BD91 PUSH1 0xC0 SHL PUSH2 0x792 JUMP JUMPDEST PUSH2 0x411A PUSH8 0xD7962EAF02F7CE9A PUSH1 0xC0 SHL PUSH2 0x792 JUMP JUMPDEST PUSH2 0x412E PUSH8 0x9BA50675B7DCD502 PUSH1 0xC0 SHL PUSH2 0x792 JUMP JUMPDEST PUSH2 0x4142 PUSH8 0xCC53AC31F8F9B147 PUSH1 0xC0 SHL PUSH2 0x792 JUMP JUMPDEST PUSH2 0x4156 PUSH8 0xD3F769099B654087 PUSH1 0xC0 SHL PUSH2 0x792 JUMP JUMPDEST PUSH1 0xA PUSH1 0x0 SWAP1 SLOAD SWAP1 PUSH2 0x100 EXP SWAP1 DIV PUSH1 0xFF AND PUSH2 0x41A5 JUMPI PUSH1 0x40 MLOAD PUSH32 0x8C379A000000000000000000000000000000000000000000000000000000000 DUP2 MSTORE PUSH1 0x4 ADD PUSH2 0x419C SWAP1 PUSH2 0x75BC JUMP JUMPDEST PUSH1 0x40 MLOAD DUP1 SWAP2 SUB SWAP1 REVERT JUMPDEST PUSH2 0x41B9 PUSH8 0xF53C6E8B9C3658A5 PUSH1 0xC0 SHL PUSH2 0x792 JUMP JUMPDEST PUSH2 0x41CD PUSH8 0xD38B99286E7FF2C3 PUSH1 0xC0 SHL PUSH2 0x792 JUMP JUMPDEST PUSH1 0x0 PUSH1 0xA PUSH1 0x0 PUSH2 0x100 EXP DUP2 SLOAD DUP2 PUSH1 0xFF MUL NOT AND SWAP1 DUP4 ISZERO ISZERO MUL OR SWAP1 SSTORE POP POP POP JUMP JUMPDEST PUSH2 0x4200 PUSH8 0xBA27D1679D0B2D74 PUSH1 0xC0 SHL PUSH2 0x792 JUMP JUMPDEST DUP1 PUSH2 0x4215 PUSH8 0x56606941532D9984 PUSH1 0xC0 SHL PUSH2 0x792 JUMP JUMPDEST PUSH2 0x4229 PUSH8 0xF39DD7AFFB1E7ED PUSH1 0xC0 SHL PUSH2 0x792 JUMP JUMPDEST PUSH2 0x423D PUSH8 0xDAF59751D71BE97B PUSH1 0xC0 SHL PUSH2 0x792 JUMP JUMPDEST PUSH1 0x0 JUMPDEST PUSH1 0xB DUP1 SLOAD SWAP1 POP DUP2 LT ISZERO PUSH2 0x4438 JUMPI PUSH2 0x4261 PUSH8 0x5AF11EFD55F94A7F PUSH1 0xC0 SHL PUSH2 0x792 JUMP JUMPDEST PUSH2 0x4275 PUSH8 0xE3A9B4AAA5483896 PUSH1 0xC0 SHL PUSH2 0x792 JUMP JUMPDEST PUSH1 0xE PUSH1 0x0 DUP4 DUP2 MSTORE PUSH1 0x20 ADD SWAP1 DUP2 MSTORE PUSH1 0x20 ADD PUSH1 0x0 KECCAK256 PUSH1 0x0 PUSH1 0xB DUP4 DUP2 SLOAD DUP2 LT PUSH2 0x429E JUMPI PUSH2 0x429D PUSH2 0x7467 JUMP JUMPDEST JUMPDEST SWAP1 PUSH1 0x0 MSTORE PUSH1 0x20 PUSH1 0x0 KECCAK256 ADD PUSH1 0x0 SWAP1 SLOAD SWAP1 PUSH2 0x100 EXP SWAP1 DIV PUSH20 0xFFFFFFFFFFFFFFFFFFFFFFFFFFFFFFFFFFFFFFFF AND PUSH20 0xFFFFFFFFFFFFFFFFFFFFFFFFFFFFFFFFFFFFFFFF AND PUSH20 0xFFFFFFFFFFFFFFFFFFFFFFFFFFFFFFFFFFFFFFFF AND DUP2 MSTORE PUSH1 0x20 ADD SWAP1 DUP2 MSTORE PUSH1 0x20 ADD PUSH1 0x0 KECCAK256 PUSH1 0x0 SWAP1 SLOAD SWAP1 PUSH2 0x100 EXP SWAP1 DIV PUSH1 0xFF AND ISZERO PUSH2 0x4416 JUMPI PUSH2 0x432A PUSH8 0xDC80BE5E32EFE352 PUSH1 0xC0 SHL PUSH2 0x792 JUMP JUMPDEST PUSH2 0x433E PUSH8 0xC5B29A0BAC47E40D PUSH1 0xC0 SHL PUSH2 0x792 JUMP JUMPDEST PUSH1 0x7 PUSH1 0x0 DUP2 SLOAD DUP1 SWAP3 SWAP2 SWAP1 PUSH2 0x4351 SWAP1 PUSH2 0x7496 JUMP JUMPDEST SWAP2 SWAP1 POP SSTORE POP PUSH2 0x436A PUSH8 0xFBC274B6D354CBC0 PUSH1 0xC0 SHL PUSH2 0x792 JUMP JUMPDEST PUSH1 0x0 PUSH1 0xE PUSH1 0x0 DUP5 DUP2 MSTORE PUSH1 0x20 ADD SWAP1 DUP2 MSTORE PUSH1 0x20 ADD PUSH1 0x0 KECCAK256 PUSH1 0x0 PUSH1 0xB DUP5 DUP2 SLOAD DUP2 LT PUSH2 0x4395 JUMPI PUSH2 0x4394 PUSH2 0x7467 JUMP JUMPDEST JUMPDEST SWAP1 PUSH1 0x0 MSTORE PUSH1 0x20 PUSH1 0x0 KECCAK256 ADD PUSH1 0x0 SWAP1 SLOAD SWAP1 PUSH2 0x100 EXP SWAP1 DIV PUSH20 0xFFFFFFFFFFFFFFFFFFFFFFFFFFFFFFFFFFFFFFFF AND PUSH20 0xFFFFFFFFFFFFFFFFFFFFFFFFFFFFFFFFFFFFFFFF AND PUSH20 0xFFFFFFFFFFFFFFFFFFFFFFFFFFFFFFFFFFFFFFFF AND DUP2 MSTORE PUSH1 0x20 ADD SWAP1 DUP2 MSTORE PUSH1 0x20 ADD PUSH1 0x0 KECCAK256 PUSH1 0x0 PUSH2 0x100 EXP DUP2 SLOAD DUP2 PUSH1 0xFF MUL NOT AND SWAP1 DUP4 ISZERO ISZERO MUL OR SWAP1 SSTORE POP PUSH2 0x442B JUMP JUMPDEST PUSH2 0x442A PUSH8 0xAB943F2E161A0456 PUSH1 0xC0 SHL PUSH2 0x792 JUMP JUMPDEST JUMPDEST DUP1 DUP1 PUSH1 0x1 ADD SWAP2 POP POP PUSH2 0x4240 JUMP JUMPDEST POP PUSH2 0x444D PUSH8 0xCF835ADF38C86F7C PUSH1 0xC0 SHL PUSH2 0x792 JUMP JUMPDEST PUSH2 0x4461 PUSH8 0xC52128A66F522373 PUSH1 0xC0 SHL PUSH2 0x792 JUMP JUMPDEST PUSH2 0x4475 PUSH8 0xC34569649DB67A3C PUSH1 0xC0 SHL PUSH2 0x792 JUMP JUMPDEST PUSH1 0x3 PUSH1 0x7 SLOAD LT ISZERO PUSH2 0x44BB JUMPI PUSH1 0x40 MLOAD PUSH32 0x8C379A000000000000000000000000000000000000000000000000000000000 DUP2 MSTORE PUSH1 0x4 ADD PUSH2 0x44B2 SWAP1 PUSH2 0x7550 JUMP JUMPDEST PUSH1 0x40 MLOAD DUP1 SWAP2 SUB SWAP1 REVERT JUMPDEST PUSH2 0x44CF PUSH8 0x5D44DAA520FCC460 PUSH1 0xC0 SHL PUSH2 0x792 JUMP JUMPDEST PUSH2 0x44E3 PUSH8 0x891EEFE4C1D9C2A8 PUSH1 0xC0 SHL PUSH2 0x792 JUMP JUMPDEST PUSH1 0x0 PUSH1 0x7 DUP2 SWAP1 SSTORE POP PUSH2 0x44FF PUSH8 0x6FBA0BC18282FC79 PUSH1 0xC0 SHL PUSH2 0x792 JUMP JUMPDEST PUSH2 0x4513 PUSH8 0x8DD4BCCF047567F PUSH1 0xC0 SHL PUSH2 0x792 JUMP JUMPDEST PUSH2 0x4527 PUSH8 0x9B4285CE71FCF5AC PUSH1 0xC0 SHL PUSH2 0x792 JUMP JUMPDEST PUSH2 0x453B PUSH8 0xC0FE9092E4646CD2 PUSH1 0xC0 SHL PUSH2 0x792 JUMP JUMPDEST PUSH2 0x454F PUSH8 0x711DDA847991A01 PUSH1 0xC0 SHL PUSH2 0x792 JUMP JUMPDEST PUSH1 0x0 PUSH1 0xD PUSH1 0x0 SWAP1 SLOAD SWAP1 PUSH2 0x100 EXP SWAP1 DIV PUSH20 0xFFFFFFFFFFFFFFFFFFFFFFFFFFFFFFFFFFFFFFFF AND SWAP1 POP PUSH2 0x458A PUSH8 0x90B70AC8305B57FF PUSH1 0xC0 SHL PUSH2 0x792 JUMP JUMPDEST DUP4 PUSH1 0xD PUSH1 0x0 PUSH2 0x100 EXP DUP2 SLOAD DUP2 PUSH20 0xFFFFFFFFFFFFFFFFFFFFFFFFFFFFFFFFFFFFFFFF MUL NOT AND SWAP1 DUP4 PUSH20 0xFFFFFFFFFFFFFFFFFFFFFFFFFFFFFFFFFFFFFFFF AND MUL OR SWAP1 SSTORE POP PUSH2 0x45DF PUSH8 0x31CB5C42CBDC90A2 PUSH1 0xC0 SHL PUSH2 0x792 JUMP JUMPDEST PUSH2 0x45F3 PUSH8 0x5D6032DD9B9330CF PUSH1 0xC0 SHL PUSH2 0x792 JUMP JUMPDEST DUP4 PUSH20 0xFFFFFFFFFFFFFFFFFFFFFFFFFFFFFFFFFFFFFFFF AND DUP2 PUSH20 0xFFFFFFFFFFFFFFFFFFFFFFFFFFFFFFFFFFFFFFFF AND PUSH32 0x6A7FB6694616D75391385B86C21A1CC2628072753F9C7DA9731E7B1B083A55E4 PUSH1 0x40 MLOAD PUSH1 0x40 MLOAD DUP1 SWAP2 SUB SWAP1 LOG3 POP POP POP POP JUMP JUMPDEST PUSH2 0x4667 PUSH8 0xF87B20AF442FE2C1 PUSH1 0xC0 SHL PUSH2 0x792 JUMP JUMPDEST DUP1 PUSH2 0x467C PUSH8 0x56606941532D9984 PUSH1 0xC0 SHL PUSH2 0x792 JUMP JUMPDEST PUSH2 0x4690 PUSH8 0xF39DD7AFFB1E7ED PUSH1 0xC0 SHL PUSH2 0x792 JUMP JUMPDEST PUSH2 0x46A4 PUSH8 0xDAF59751D71BE97B PUSH1 0xC0 SHL PUSH2 0x792 JUMP JUMPDEST PUSH1 0x0 JUMPDEST PUSH1 0xB DUP1 SLOAD SWAP1 POP DUP2 LT ISZERO PUSH2 0x489F JUMPI PUSH2 0x46C8 PUSH8 0x5AF11EFD55F94A7F PUSH1 0xC0 SHL PUSH2 0x792 JUMP JUMPDEST PUSH2 0x46DC PUSH8 0xE3A9B4AAA5483896 PUSH1 0xC0 SHL PUSH2 0x792 JUMP JUMPDEST PUSH1 0xE PUSH1 0x0 DUP4 DUP2 MSTORE PUSH1 0x20 ADD SWAP1 DUP2 MSTORE PUSH1 0x20 ADD PUSH1 0x0 KECCAK256 PUSH1 0x0 PUSH1 0xB DUP4 DUP2 SLOAD DUP2 LT PUSH2 0x4705 JUMPI PUSH2 0x4704 PUSH2 0x7467 JUMP JUMPDEST JUMPDEST SWAP1 PUSH1 0x0 MSTORE PUSH1 0x20 PUSH1 0x0 KECCAK256 ADD PUSH1 0x0 SWAP1 SLOAD SWAP1 PUSH2 0x100 EXP SWAP1 DIV PUSH20 0xFFFFFFFFFFFFFFFFFFFFFFFFFFFFFFFFFFFFFFFF AND PUSH20 0xFFFFFFFFFFFFFFFFFFFFFFFFFFFFFFFFFFFFFFFF AND PUSH20 0xFFFFFFFFFFFFFFFFFFFFFFFFFFFFFFFFFFFFFFFF AND DUP2 MSTORE PUSH1 0x20 ADD SWAP1 DUP2 MSTORE PUSH1 0x20 ADD PUSH1 0x0 KECCAK256 PUSH1 0x0 SWAP1 SLOAD SWAP1 PUSH2 0x100 EXP SWAP1 DIV PUSH1 0xFF AND ISZERO PUSH2 0x487D JUMPI PUSH2 0x4791 PUSH8 0xDC80BE5E32EFE352 PUSH1 0xC0 SHL PUSH2 0x792 JUMP JUMPDEST PUSH2 0x47A5 PUSH8 0xC5B29A0BAC47E40D PUSH1 0xC0 SHL PUSH2 0x792 JUMP JUMPDEST PUSH1 0x7 PUSH1 0x0 DUP2 SLOAD DUP1 SWAP3 SWAP2 SWAP1 PUSH2 0x47B8 SWAP1 PUSH2 0x7496 JUMP JUMPDEST SWAP2 SWAP1 POP SSTORE POP PUSH2 0x47D1 PUSH8 0xFBC274B6D354CBC0 PUSH1 0xC0 SHL PUSH2 0x792 JUMP JUMPDEST PUSH1 0x0 PUSH1 0xE PUSH1 0x0 DUP5 DUP2 MSTORE PUSH1 0x20 ADD SWAP1 DUP2 MSTORE PUSH1 0x20 ADD PUSH1 0x0 KECCAK256 PUSH1 0x0 PUSH1 0xB DUP5 DUP2 SLOAD DUP2 LT PUSH2 0x47FC JUMPI PUSH2 0x47FB PUSH2 0x7467 JUMP JUMPDEST JUMPDEST SWAP1 PUSH1 0x0 MSTORE PUSH1 0x20 PUSH1 0x0 KECCAK256 ADD PUSH1 0x0 SWAP1 SLOAD SWAP1 PUSH2 0x100 EXP SWAP1 DIV PUSH20 0xFFFFFFFFFFFFFFFFFFFFFFFFFFFFFFFFFFFFFFFF AND PUSH20 0xFFFFFFFFFFFFFFFFFFFFFFFFFFFFFFFFFFFFFFFF AND PUSH20 0xFFFFFFFFFFFFFFFFFFFFFFFFFFFFFFFFFFFFFFFF AND DUP2 MSTORE PUSH1 0x20 ADD SWAP1 DUP2 MSTORE PUSH1 0x20 ADD PUSH1 0x0 KECCAK256 PUSH1 0x0 PUSH2 0x100 EXP DUP2 SLOAD DUP2 PUSH1 0xFF MUL NOT AND SWAP1 DUP4 ISZERO ISZERO MUL OR SWAP1 SSTORE POP PUSH2 0x4892 JUMP JUMPDEST PUSH2 0x4891 PUSH8 0xAB943F2E161A0456 PUSH1 0xC0 SHL PUSH2 0x792 JUMP JUMPDEST JUMPDEST DUP1 DUP1 PUSH1 0x1 ADD SWAP2 POP POP PUSH2 0x46A7 JUMP JUMPDEST POP PUSH2 0x48B4 PUSH8 0xCF835ADF38C86F7C PUSH1 0xC0 SHL PUSH2 0x792 JUMP JUMPDEST PUSH2 0x48C8 PUSH8 0xC52128A66F522373 PUSH1 0xC0 SHL PUSH2 0x792 JUMP JUMPDEST PUSH2 0x48DC PUSH8 0xC34569649DB67A3C PUSH1 0xC0 SHL PUSH2 0x792 JUMP JUMPDEST PUSH1 0x3 PUSH1 0x7 SLOAD LT ISZERO PUSH2 0x4922 JUMPI PUSH1 0x40 MLOAD PUSH32 0x8C379A000000000000000000000000000000000000000000000000000000000 DUP2 MSTORE PUSH1 0x4 ADD PUSH2 0x4919 SWAP1 PUSH2 0x7550 JUMP JUMPDEST PUSH1 0x40 MLOAD DUP1 SWAP2 SUB SWAP1 REVERT JUMPDEST PUSH2 0x4936 PUSH8 0x5D44DAA520FCC460 PUSH1 0xC0 SHL PUSH2 0x792 JUMP JUMPDEST PUSH2 0x494A PUSH8 0x891EEFE4C1D9C2A8 PUSH1 0xC0 SHL PUSH2 0x792 JUMP JUMPDEST PUSH1 0x0 PUSH1 0x7 DUP2 SWAP1 SSTORE POP PUSH2 0x4966 PUSH8 0x6FBA0BC18282FC79 PUSH1 0xC0 SHL PUSH2 0x792 JUMP JUMPDEST PUSH2 0x497A PUSH8 0xCFE1DFEE1BBB3511 PUSH1 0xC0 SHL PUSH2 0x792 JUMP JUMPDEST PUSH2 0x498E PUSH8 0xE802134D9FE1412B PUSH1 0xC0 SHL PUSH2 0x792 JUMP JUMPDEST PUSH2 0x49A2 PUSH8 0x992AAB34699CE834 PUSH1 0xC0 SHL PUSH2 0x792 JUMP JUMPDEST PUSH2 0x49B6 PUSH8 0x690CA890915E24AB PUSH1 0xC0 SHL PUSH2 0x792 JUMP JUMPDEST PUSH2 0x49CA PUSH8 0x7F4897AE5CB1DEDE PUSH1 0xC0 SHL PUSH2 0x792 JUMP JUMPDEST PUSH1 0xA PUSH1 0x0 SWAP1 SLOAD SWAP1 PUSH2 0x100 EXP SWAP1 DIV PUSH1 0xFF AND ISZERO PUSH2 0x4A1A JUMPI PUSH1 0x40 MLOAD PUSH32 0x8C379A000000000000000000000000000000000000000000000000000000000 DUP2 MSTORE PUSH1 0x4 ADD PUSH2 0x4A11 SWAP1 PUSH2 0x7628 JUMP JUMPDEST PUSH1 0x40 MLOAD DUP1 SWAP2 SUB SWAP1 REVERT JUMPDEST PUSH2 0x4A2E PUSH8 0x9724082E47B170A6 PUSH1 0xC0 SHL PUSH2 0x792 JUMP JUMPDEST PUSH2 0x4A42 PUSH8 0x157A7CED3446F11E PUSH1 0xC0 SHL PUSH2 0x792 JUMP JUMPDEST PUSH1 0x1 PUSH1 0xA PUSH1 0x0 PUSH2 0x100 EXP DUP2 SLOAD DUP2 PUSH1 0xFF MUL NOT AND SWAP1 DUP4 ISZERO ISZERO MUL OR SWAP1 SSTORE POP POP POP JUMP JUMPDEST PUSH2 0x4A75 PUSH8 0xB208207AEA55CFC1 PUSH1 0xC0 SHL PUSH2 0x792 JUMP JUMPDEST DUP1 PUSH2 0x4A8A PUSH8 0x56606941532D9984 PUSH1 0xC0 SHL PUSH2 0x792 JUMP JUMPDEST PUSH2 0x4A9E PUSH8 0xF39DD7AFFB1E7ED PUSH1 0xC0 SHL PUSH2 0x792 JUMP JUMPDEST PUSH2 0x4AB2 PUSH8 0xDAF59751D71BE97B PUSH1 0xC0 SHL PUSH2 0x792 JUMP JUMPDEST PUSH1 0x0 JUMPDEST PUSH1 0xB DUP1 SLOAD SWAP1 POP DUP2 LT ISZERO PUSH2 0x4CAD JUMPI PUSH2 0x4AD6 PUSH8 0x5AF11EFD55F94A7F PUSH1 0xC0 SHL PUSH2 0x792 JUMP JUMPDEST PUSH2 0x4AEA PUSH8 0xE3A9B4AAA5483896 PUSH1 0xC0 SHL PUSH2 0x792 JUMP JUMPDEST PUSH1 0xE PUSH1 0x0 DUP4 DUP2 MSTORE PUSH1 0x20 ADD SWAP1 DUP2 MSTORE PUSH1 0x20 ADD PUSH1 0x0 KECCAK256 PUSH1 0x0 PUSH1 0xB DUP4 DUP2 SLOAD DUP2 LT PUSH2 0x4B13 JUMPI PUSH2 0x4B12 PUSH2 0x7467 JUMP JUMPDEST JUMPDEST SWAP1 PUSH1 0x0 MSTORE PUSH1 0x20 PUSH1 0x0 KECCAK256 ADD PUSH1 0x0 SWAP1 SLOAD SWAP1 PUSH2 0x100 EXP SWAP1 DIV PUSH20 0xFFFFFFFFFFFFFFFFFFFFFFFFFFFFFFFFFFFFFFFF AND PUSH20 0xFFFFFFFFFFFFFFFFFFFFFFFFFFFFFFFFFFFFFFFF AND PUSH20 0xFFFFFFFFFFFFFFFFFFFFFFFFFFFFFFFFFFFFFFFF AND DUP2 MSTORE PUSH1 0x20 ADD SWAP1 DUP2 MSTORE PUSH1 0x20 ADD PUSH1 0x0 KECCAK256 PUSH1 0x0 SWAP1 SLOAD SWAP1 PUSH2 0x100 EXP SWAP1 DIV PUSH1 0xFF AND ISZERO PUSH2 0x4C8B JUMPI PUSH2 0x4B9F PUSH8 0xDC80BE5E32EFE352 PUSH1 0xC0 SHL PUSH2 0x792 JUMP JUMPDEST PUSH2 0x4BB3 PUSH8 0xC5B29A0BAC47E40D PUSH1 0xC0 SHL PUSH2 0x792 JUMP JUMPDEST PUSH1 0x7 PUSH1 0x0 DUP2 SLOAD DUP1 SWAP3 SWAP2 SWAP1 PUSH2 0x4BC6 SWAP1 PUSH2 0x7496 JUMP JUMPDEST SWAP2 SWAP1 POP SSTORE POP PUSH2 0x4BDF PUSH8 0xFBC274B6D354CBC0 PUSH1 0xC0 SHL PUSH2 0x792 JUMP JUMPDEST PUSH1 0x0 PUSH1 0xE PUSH1 0x0 DUP5 DUP2 MSTORE PUSH1 0x20 ADD SWAP1 DUP2 MSTORE PUSH1 0x20 ADD PUSH1 0x0 KECCAK256 PUSH1 0x0 PUSH1 0xB DUP5 DUP2 SLOAD DUP2 LT PUSH2 0x4C0A JUMPI PUSH2 0x4C09 PUSH2 0x7467 JUMP JUMPDEST JUMPDEST SWAP1 PUSH1 0x0 MSTORE PUSH1 0x20 PUSH1 0x0 KECCAK256 ADD PUSH1 0x0 SWAP1 SLOAD SWAP1 PUSH2 0x100 EXP SWAP1 DIV PUSH20 0xFFFFFFFFFFFFFFFFFFFFFFFFFFFFFFFFFFFFFFFF AND PUSH20 0xFFFFFFFFFFFFFFFFFFFFFFFFFFFFFFFFFFFFFFFF AND PUSH20 0xFFFFFFFFFFFFFFFFFFFFFFFFFFFFFFFFFFFFFFFF AND DUP2 MSTORE PUSH1 0x20 ADD SWAP1 DUP2 MSTORE PUSH1 0x20 ADD PUSH1 0x0 KECCAK256 PUSH1 0x0 PUSH2 0x100 EXP DUP2 SLOAD DUP2 PUSH1 0xFF MUL NOT AND SWAP1 DUP4 ISZERO ISZERO MUL OR SWAP1 SSTORE POP PUSH2 0x4CA0 JUMP JUMPDEST PUSH2 0x4C9F PUSH8 0xAB943F2E161A0456 PUSH1 0xC0 SHL PUSH2 0x792 JUMP JUMPDEST JUMPDEST DUP1 DUP1 PUSH1 0x1 ADD SWAP2 POP POP PUSH2 0x4AB5 JUMP JUMPDEST POP PUSH2 0x4CC2 PUSH8 0xCF835ADF38C86F7C PUSH1 0xC0 SHL PUSH2 0x792 JUMP JUMPDEST PUSH2 0x4CD6 PUSH8 0xC52128A66F522373 PUSH1 0xC0 SHL PUSH2 0x792 JUMP JUMPDEST PUSH2 0x4CEA PUSH8 0xC34569649DB67A3C PUSH1 0xC0 SHL PUSH2 0x792 JUMP JUMPDEST PUSH1 0x3 PUSH1 0x7 SLOAD LT ISZERO PUSH2 0x4D30 JUMPI PUSH1 0x40 MLOAD PUSH32 0x8C379A000000000000000000000000000000000000000000000000000000000 DUP2 MSTORE PUSH1 0x4 ADD PUSH2 0x4D27 SWAP1 PUSH2 0x7550 JUMP JUMPDEST PUSH1 0x40 MLOAD DUP1 SWAP2 SUB SWAP1 REVERT JUMPDEST PUSH2 0x4D44 PUSH8 0x5D44DAA520FCC460 PUSH1 0xC0 SHL PUSH2 0x792 JUMP JUMPDEST PUSH2 0x4D58 PUSH8 0x891EEFE4C1D9C2A8 PUSH1 0xC0 SHL PUSH2 0x792 JUMP JUMPDEST PUSH1 0x0 PUSH1 0x7 DUP2 SWAP1 SSTORE POP PUSH2 0x4D74 PUSH8 0x6FBA0BC18282FC79 PUSH1 0xC0 SHL PUSH2 0x792 JUMP JUMPDEST PUSH2 0x4D88 PUSH8 0x89F0208254FB6729 PUSH1 0xC0 SHL PUSH2 0x792 JUMP JUMPDEST PUSH2 0x4D9C PUSH8 0xECD0D76B395A8961 PUSH1 0xC0 SHL PUSH2 0x792 JUMP JUMPDEST PUSH2 0x4DB0 PUSH8 0x26C18F3AB1EF7DB3 PUSH1 0xC0 SHL PUSH2 0x792 JUMP JUMPDEST PUSH2 0x4DC4 PUSH8 0x8E61767D195C29F4 PUSH1 0xC0 SHL PUSH2 0x792 JUMP JUMPDEST PUSH2 0x4DD8 PUSH8 0x2624FD97727BDFB7 PUSH1 0xC0 SHL PUSH2 0x792 JUMP JUMPDEST PUSH1 0x0 PUSH1 0x6 SLOAD GT PUSH2 0x4E1D JUMPI PUSH1 0x40 MLOAD PUSH32 0x8C379A000000000000000000000000000000000000000000000000000000000 DUP2 MSTORE PUSH1 0x4 ADD PUSH2 0x4E14 SWAP1 PUSH2 0x7694 JUMP JUMPDEST PUSH1 0x40 MLOAD DUP1 SWAP2 SUB SWAP1 REVERT JUMPDEST PUSH2 0x4E31 PUSH8 0xDC01542A04997C97 PUSH1 0xC0 SHL PUSH2 0x792 JUMP JUMPDEST PUSH2 0x4E45 PUSH8 0x90FF334F6CF7B871 PUSH1 0xC0 SHL PUSH2 0x792 JUMP JUMPDEST PUSH2 0x4E59 PUSH8 0x3903DCDF589B41D4 PUSH1 0xC0 SHL PUSH2 0x792 JUMP JUMPDEST PUSH1 0x0 PUSH2 0x4E6F PUSH8 0xE99E37C92CF7FB5F PUSH1 0xC0 SHL PUSH2 0x792 JUMP JUMPDEST PUSH2 0x4E83 PUSH8 0x29F0B569A62C5870 PUSH1 0xC0 SHL PUSH2 0x792 JUMP JUMPDEST PUSH1 0x5 PUSH1 0x8 SLOAD GT PUSH2 0x4EC2 JUMPI PUSH2 0x4EA1 PUSH8 0x1D722A167A32BD1C PUSH1 0xC0 SHL PUSH2 0x792 JUMP JUMPDEST PUSH2 0x4EB5 PUSH8 0x6A2FF2914FDBC0A3 PUSH1 0xC0 SHL PUSH2 0x792 JUMP JUMPDEST PUSH1 0x5 PUSH1 0x9 DUP2 SWAP1 SSTORE POP PUSH2 0x4F5B JUMP JUMPDEST PUSH2 0x4ED6 PUSH8 0x8D284CB4C1EF1FB9 PUSH1 0xC0 SHL PUSH2 0x792 JUMP JUMPDEST PUSH2 0x4EEA PUSH8 0x6217A51B936A58F PUSH1 0xC0 SHL PUSH2 0x792 JUMP JUMPDEST PUSH1 0x7 PUSH1 0x8 SLOAD GT PUSH2 0x4F29 JUMPI PUSH2 0x4F08 PUSH8 0x9F4B4F8D028E72C3 PUSH1 0xC0 SHL PUSH2 0x792 JUMP JUMPDEST PUSH2 0x4F1C PUSH8 0x65766744425D9341 PUSH1 0xC0 SHL PUSH2 0x792 JUMP JUMPDEST PUSH1 0x4 PUSH1 0x9 DUP2 SWAP1 SSTORE POP PUSH2 0x4F5A JUMP JUMPDEST PUSH2 0x4F3D PUSH8 0x79122D1C2A258D13 PUSH1 0xC0 SHL PUSH2 0x792 JUMP JUMPDEST PUSH2 0x4F51 PUSH8 0xBA4BBFE3682F107F PUSH1 0xC0 SHL PUSH2 0x792 JUMP JUMPDEST PUSH1 0x3 PUSH1 0x9 DUP2 SWAP1 SSTORE POP JUMPDEST JUMPDEST PUSH2 0x4F6F PUSH8 0x924AF14DDDF3E519 PUSH1 0xC0 SHL PUSH2 0x792 JUMP JUMPDEST PUSH2 0x4F7D PUSH1 0x6 SLOAD PUSH1 0x9 SLOAD PUSH2 0x6263 JUMP JUMPDEST SWAP1 POP PUSH2 0x4F93 PUSH8 0x430971AD01E93522 PUSH1 0xC0 SHL PUSH2 0x792 JUMP JUMPDEST PUSH2 0x4FA7 PUSH8 0x8CB7B42F494E0A73 PUSH1 0xC0 SHL PUSH2 0x792 JUMP JUMPDEST PUSH1 0x6 SLOAD DUP2 GT ISZERO PUSH2 0x4FE3 JUMPI PUSH2 0x4FC5 PUSH8 0x79D626307F2A1BC1 PUSH1 0xC0 SHL PUSH2 0x792 JUMP JUMPDEST PUSH2 0x4FD9 PUSH8 0xFA4096EE9C3FF956 PUSH1 0xC0 SHL PUSH2 0x792 JUMP JUMPDEST PUSH1 0x6 SLOAD SWAP1 POP PUSH2 0x4FF8 JUMP JUMPDEST PUSH2 0x4FF7 PUSH8 0x3CC1A87695B4ECAF PUSH1 0xC0 SHL PUSH2 0x792 JUMP JUMPDEST JUMPDEST PUSH2 0x500B PUSH7 0xB9B9F6F95A56C2 PUSH1 0xC0 SHL PUSH2 0x792 JUMP JUMPDEST DUP1 PUSH1 0x6 PUSH1 0x0 DUP3 DUP3 SLOAD PUSH2 0x501D SWAP2 SWAP1 PUSH2 0x76B4 JUMP JUMPDEST SWAP3 POP POP DUP2 SWAP1 SSTORE POP PUSH2 0x5038 PUSH8 0x4CBB6F83431E179E PUSH1 0xC0 SHL PUSH2 0x792 JUMP JUMPDEST PUSH2 0x504C PUSH8 0xC0AD75393B13D111 PUSH1 0xC0 SHL PUSH2 0x792 JUMP JUMPDEST PUSH2 0x5078 PUSH1 0xD PUSH1 0x0 SWAP1 SLOAD SWAP1 PUSH2 0x100 EXP SWAP1 DIV PUSH20 0xFFFFFFFFFFFFFFFFFFFFFFFFFFFFFFFFFFFFFFFF AND DUP3 PUSH2 0x3BAF JUMP JUMPDEST PUSH2 0x508C PUSH8 0x902AECAA81EC1E81 PUSH1 0xC0 SHL PUSH2 0x792 JUMP JUMPDEST PUSH2 0x50A0 PUSH8 0xCA10402D1BDD7C06 PUSH1 0xC0 SHL PUSH2 0x792 JUMP JUMPDEST PUSH32 0xEA91EC69D9AB5A214205BAD93781970DF8C1F8FA5321A97B10A6CBBE99C29D9C PUSH1 0x8 SLOAD DUP3 PUSH1 0x6 SLOAD PUSH1 0x40 MLOAD PUSH2 0x50D7 SWAP4 SWAP3 SWAP2 SWAP1 PUSH2 0x76E8 JUMP JUMPDEST PUSH1 0x40 MLOAD DUP1 SWAP2 SUB SWAP1 LOG1 PUSH2 0x50F3 PUSH8 0xBC3AD0827023586 PUSH1 0xC0 SHL PUSH2 0x792 JUMP JUMPDEST PUSH1 0x1 PUSH1 0x8 PUSH1 0x0 DUP3 DUP3 SLOAD PUSH2 0x5106 SWAP2 SWAP1 PUSH2 0x6A61 JUMP JUMPDEST SWAP3 POP POP DUP2 SWAP1 SSTORE POP POP POP POP JUMP JUMPDEST PUSH1 0x2 PUSH1 0x5 SLOAD SUB PUSH2 0x514E JUMPI PUSH1 0x40 MLOAD PUSH32 0x3EE5AEB500000000000000000000000000000000000000000000000000000000 DUP2 MSTORE PUSH1 0x4 ADD PUSH1 0x40 MLOAD DUP1 SWAP2 SUB SWAP1 REVERT JUMPDEST PUSH1 0x2 PUSH1 0x5 DUP2 SWAP1 SSTORE POP JUMP JUMPDEST PUSH1 0x0 PUSH20 0xFFFFFFFFFFFFFFFFFFFFFFFFFFFFFFFFFFFFFFFF AND DUP3 PUSH20 0xFFFFFFFFFFFFFFFFFFFFFFFFFFFFFFFFFFFFFFFF AND SUB PUSH2 0x51CA JUMPI PUSH1 0x0 PUSH1 0x40 MLOAD PUSH32 0x96C6FD1E00000000000000000000000000000000000000000000000000000000 DUP2 MSTORE PUSH1 0x4 ADD PUSH2 0x51C1 SWAP2 SWAP1 PUSH2 0x6379 JUMP JUMPDEST PUSH1 0x40 MLOAD DUP1 SWAP2 SUB SWAP1 REVERT JUMPDEST PUSH2 0x51D6 DUP3 PUSH1 0x0 DUP4 PUSH2 0x5E67 JUMP JUMPDEST POP POP JUMP JUMPDEST PUSH1 0x1 PUSH1 0x5 DUP2 SWAP1 SSTORE POP JUMP JUMPDEST PUSH2 0x51F8 PUSH8 0x5A3EEC0E91C0DF5E PUSH1 0xC0 SHL PUSH2 0x792 JUMP JUMPDEST DUP1 PUSH2 0x520D PUSH8 0x56606941532D9984 PUSH1 0xC0 SHL PUSH2 0x792 JUMP JUMPDEST PUSH2 0x5221 PUSH8 0xF39DD7AFFB1E7ED PUSH1 0xC0 SHL PUSH2 0x792 JUMP JUMPDEST PUSH2 0x5235 PUSH8 0xDAF59751D71BE97B PUSH1 0xC0 SHL PUSH2 0x792 JUMP JUMPDEST PUSH1 0x0 JUMPDEST PUSH1 0xB DUP1 SLOAD SWAP1 POP DUP2 LT ISZERO PUSH2 0x5430 JUMPI PUSH2 0x5259 PUSH8 0x5AF11EFD55F94A7F PUSH1 0xC0 SHL PUSH2 0x792 JUMP JUMPDEST PUSH2 0x526D PUSH8 0xE3A9B4AAA5483896 PUSH1 0xC0 SHL PUSH2 0x792 JUMP JUMPDEST PUSH1 0xE PUSH1 0x0 DUP4 DUP2 MSTORE PUSH1 0x20 ADD SWAP1 DUP2 MSTORE PUSH1 0x20 ADD PUSH1 0x0 KECCAK256 PUSH1 0x0 PUSH1 0xB DUP4 DUP2 SLOAD DUP2 LT PUSH2 0x5296 JUMPI PUSH2 0x5295 PUSH2 0x7467 JUMP JUMPDEST JUMPDEST SWAP1 PUSH1 0x0 MSTORE PUSH1 0x20 PUSH1 0x0 KECCAK256 ADD PUSH1 0x0 SWAP1 SLOAD SWAP1 PUSH2 0x100 EXP SWAP1 DIV PUSH20 0xFFFFFFFFFFFFFFFFFFFFFFFFFFFFFFFFFFFFFFFF AND PUSH20 0xFFFFFFFFFFFFFFFFFFFFFFFFFFFFFFFFFFFFFFFF AND PUSH20 0xFFFFFFFFFFFFFFFFFFFFFFFFFFFFFFFFFFFFFFFF AND DUP2 MSTORE PUSH1 0x20 ADD SWAP1 DUP2 MSTORE PUSH1 0x20 ADD PUSH1 0x0 KECCAK256 PUSH1 0x0 SWAP1 SLOAD SWAP1 PUSH2 0x100 EXP SWAP1 DIV PUSH1 0xFF AND ISZERO PUSH2 0x540E JUMPI PUSH2 0x5322 PUSH8 0xDC80BE5E32EFE352 PUSH1 0xC0 SHL PUSH2 0x792 JUMP JUMPDEST PUSH2 0x5336 PUSH8 0xC5B29A0BAC47E40D PUSH1 0xC0 SHL PUSH2 0x792 JUMP JUMPDEST PUSH1 0x7 PUSH1 0x0 DUP2 SLOAD DUP1 SWAP3 SWAP2 SWAP1 PUSH2 0x5349 SWAP1 PUSH2 0x7496 JUMP JUMPDEST SWAP2 SWAP1 POP SSTORE POP PUSH2 0x5362 PUSH8 0xFBC274B6D354CBC0 PUSH1 0xC0 SHL PUSH2 0x792 JUMP JUMPDEST PUSH1 0x0 PUSH1 0xE PUSH1 0x0 DUP5 DUP2 MSTORE PUSH1 0x20 ADD SWAP1 DUP2 MSTORE PUSH1 0x20 ADD PUSH1 0x0 KECCAK256 PUSH1 0x0 PUSH1 0xB DUP5 DUP2 SLOAD DUP2 LT PUSH2 0x538D JUMPI PUSH2 0x538C PUSH2 0x7467 JUMP JUMPDEST JUMPDEST SWAP1 PUSH1 0x0 MSTORE PUSH1 0x20 PUSH1 0x0 KECCAK256 ADD PUSH1 0x0 SWAP1 SLOAD SWAP1 PUSH2 0x100 EXP SWAP1 DIV PUSH20 0xFFFFFFFFFFFFFFFFFFFFFFFFFFFFFFFFFFFFFFFF AND PUSH20 0xFFFFFFFFFFFFFFFFFFFFFFFFFFFFFFFFFFFFFFFF AND PUSH20 0xFFFFFFFFFFFFFFFFFFFFFFFFFFFFFFFFFFFFFFFF AND DUP2 MSTORE PUSH1 0x20 ADD SWAP1 DUP2 MSTORE PUSH1 0x20 ADD PUSH1 0x0 KECCAK256 PUSH1 0x0 PUSH2 0x100 EXP DUP2 SLOAD DUP2 PUSH1 0xFF MUL NOT AND SWAP1 DUP4 ISZERO ISZERO MUL OR SWAP1 SSTORE POP PUSH2 0x5423 JUMP JUMPDEST PUSH2 0x5422 PUSH8 0xAB943F2E161A0456 PUSH1 0xC0 SHL PUSH2 0x792 JUMP JUMPDEST JUMPDEST DUP1 DUP1 PUSH1 0x1 ADD SWAP2 POP POP PUSH2 0x5238 JUMP JUMPDEST POP PUSH2 0x5445 PUSH8 0xCF835ADF38C86F7C PUSH1 0xC0 SHL PUSH2 0x792 JUMP JUMPDEST PUSH2 0x5459 PUSH8 0xC52128A66F522373 PUSH1 0xC0 SHL PUSH2 0x792 JUMP JUMPDEST PUSH2 0x546D PUSH8 0xC34569649DB67A3C PUSH1 0xC0 SHL PUSH2 0x792 JUMP JUMPDEST PUSH1 0x3 PUSH1 0x7 SLOAD LT ISZERO PUSH2 0x54B3 JUMPI PUSH1 0x40 MLOAD PUSH32 0x8C379A000000000000000000000000000000000000000000000000000000000 DUP2 MSTORE PUSH1 0x4 ADD PUSH2 0x54AA SWAP1 PUSH2 0x7550 JUMP JUMPDEST PUSH1 0x40 MLOAD DUP1 SWAP2 SUB SWAP1 REVERT JUMPDEST PUSH2 0x54C7 PUSH8 0x5D44DAA520FCC460 PUSH1 0xC0 SHL PUSH2 0x792 JUMP JUMPDEST PUSH2 0x54DB PUSH8 0x891EEFE4C1D9C2A8 PUSH1 0xC0 SHL PUSH2 0x792 JUMP JUMPDEST PUSH1 0x0 PUSH1 0x7 DUP2 SWAP1 SSTORE POP PUSH2 0x54F7 PUSH8 0x6FBA0BC18282FC79 PUSH1 0xC0 SHL PUSH2 0x792 JUMP JUMPDEST PUSH2 0x550B PUSH8 0xF8B356C7F45AFCB0 PUSH1 0xC0 SHL PUSH2 0x792 JUMP JUMPDEST PUSH2 0x551F PUSH8 0x72AD7F8167257911 PUSH1 0xC0 SHL PUSH2 0x792 JUMP JUMPDEST PUSH2 0x5533 PUSH8 0x35E9E753A7B2C6F8 PUSH1 0xC0 SHL PUSH2 0x792 JUMP JUMPDEST PUSH2 0x5547 PUSH8 0xB22C6978F62D758 PUSH1 0xC0 SHL PUSH2 0x792 JUMP JUMPDEST PUSH2 0x555B PUSH8 0x7F91CE31434683F2 PUSH1 0xC0 SHL PUSH2 0x792 JUMP JUMPDEST DUP3 SELFBALANCE LT ISZERO PUSH2 0x559E JUMPI PUSH1 0x40 MLOAD PUSH32 0x8C379A000000000000000000000000000000000000000000000000000000000 DUP2 MSTORE PUSH1 0x4 ADD PUSH2 0x5595 SWAP1 PUSH2 0x776B JUMP JUMPDEST PUSH1 0x40 MLOAD DUP1 SWAP2 SUB SWAP1 REVERT JUMPDEST PUSH2 0x55B2 PUSH8 0x2183C9DE2CA72F17 PUSH1 0xC0 SHL PUSH2 0x792 JUMP JUMPDEST PUSH2 0x55C6 PUSH8 0xE9733EF43CF43901 PUSH1 0xC0 SHL PUSH2 0x792 JUMP JUMPDEST PUSH2 0x55DA PUSH8 0xF8C5A797AE49FF08 PUSH1 0xC0 SHL PUSH2 0x792 JUMP JUMPDEST PUSH1 0x0 PUSH1 0xD PUSH1 0x0 SWAP1 SLOAD SWAP1 PUSH2 0x100 EXP SWAP1 DIV PUSH20 0xFFFFFFFFFFFFFFFFFFFFFFFFFFFFFFFFFFFFFFFF AND PUSH20 0xFFFFFFFFFFFFFFFFFFFFFFFFFFFFFFFFFFFFFFFF AND DUP5 PUSH1 0x40 MLOAD PUSH2 0x5622 SWAP1 PUSH2 0x7119 JUMP JUMPDEST PUSH1 0x0 PUSH1 0x40 MLOAD DUP1 DUP4 SUB DUP2 DUP6 DUP8 GAS CALL SWAP3 POP POP POP RETURNDATASIZE DUP1 PUSH1 0x0 DUP2 EQ PUSH2 0x565F JUMPI PUSH1 0x40 MLOAD SWAP2 POP PUSH1 0x1F NOT PUSH1 0x3F RETURNDATASIZE ADD AND DUP3 ADD PUSH1 0x40 MSTORE RETURNDATASIZE DUP3 MSTORE RETURNDATASIZE PUSH1 0x0 PUSH1 0x20 DUP5 ADD RETURNDATACOPY PUSH2 0x5664 JUMP JUMPDEST PUSH1 0x60 SWAP2 POP JUMPDEST POP POP SWAP1 POP PUSH2 0x567C PUSH8 0x473337CE172F696E PUSH1 0xC0 SHL PUSH2 0x792 JUMP JUMPDEST PUSH2 0x5690 PUSH8 0xC5EC8A090B4652C3 PUSH1 0xC0 SHL PUSH2 0x792 JUMP JUMPDEST PUSH2 0x56A4 PUSH8 0x3AD12E7F743355B3 PUSH1 0xC0 SHL PUSH2 0x792 JUMP JUMPDEST DUP1 PUSH2 0x56E4 JUMPI PUSH1 0x40 MLOAD PUSH32 0x8C379A000000000000000000000000000000000000000000000000000000000 DUP2 MSTORE PUSH1 0x4 ADD PUSH2 0x56DB SWAP1 PUSH2 0x77D7 JUMP JUMPDEST PUSH1 0x40 MLOAD DUP1 SWAP2 SUB SWAP1 REVERT JUMPDEST PUSH2 0x56F8 PUSH8 0xED9813EDFE3C32B3 PUSH1 0xC0 SHL PUSH2 0x792 JUMP JUMPDEST POP POP POP POP JUMP JUMPDEST PUSH2 0x5712 PUSH8 0xBFEAFA24D691C2B6 PUSH1 0xC0 SHL PUSH2 0x792 JUMP JUMPDEST DUP1 PUSH2 0x5727 PUSH8 0x56606941532D9984 PUSH1 0xC0 SHL PUSH2 0x792 JUMP JUMPDEST PUSH2 0x573B PUSH8 0xF39DD7AFFB1E7ED PUSH1 0xC0 SHL PUSH2 0x792 JUMP JUMPDEST PUSH2 0x574F PUSH8 0xDAF59751D71BE97B PUSH1 0xC0 SHL PUSH2 0x792 JUMP JUMPDEST PUSH1 0x0 JUMPDEST PUSH1 0xB DUP1 SLOAD SWAP1 POP DUP2 LT ISZERO PUSH2 0x594A JUMPI PUSH2 0x5773 PUSH8 0x5AF11EFD55F94A7F PUSH1 0xC0 SHL PUSH2 0x792 JUMP JUMPDEST PUSH2 0x5787 PUSH8 0xE3A9B4AAA5483896 PUSH1 0xC0 SHL PUSH2 0x792 JUMP JUMPDEST PUSH1 0xE PUSH1 0x0 DUP4 DUP2 MSTORE PUSH1 0x20 ADD SWAP1 DUP2 MSTORE PUSH1 0x20 ADD PUSH1 0x0 KECCAK256 PUSH1 0x0 PUSH1 0xB DUP4 DUP2 SLOAD DUP2 LT PUSH2 0x57B0 JUMPI PUSH2 0x57AF PUSH2 0x7467 JUMP JUMPDEST JUMPDEST SWAP1 PUSH1 0x0 MSTORE PUSH1 0x20 PUSH1 0x0 KECCAK256 ADD PUSH1 0x0 SWAP1 SLOAD SWAP1 PUSH2 0x100 EXP SWAP1 DIV PUSH20 0xFFFFFFFFFFFFFFFFFFFFFFFFFFFFFFFFFFFFFFFF AND PUSH20 0xFFFFFFFFFFFFFFFFFFFFFFFFFFFFFFFFFFFFFFFF AND PUSH20 0xFFFFFFFFFFFFFFFFFFFFFFFFFFFFFFFFFFFFFFFF AND DUP2 MSTORE PUSH1 0x20 ADD SWAP1 DUP2 MSTORE PUSH1 0x20 ADD PUSH1 0x0 KECCAK256 PUSH1 0x0 SWAP1 SLOAD SWAP1 PUSH2 0x100 EXP SWAP1 DIV PUSH1 0xFF AND ISZERO PUSH2 0x5928 JUMPI PUSH2 0x583C PUSH8 0xDC80BE5E32EFE352 PUSH1 0xC0 SHL PUSH2 0x792 JUMP JUMPDEST PUSH2 0x5850 PUSH8 0xC5B29A0BAC47E40D PUSH1 0xC0 SHL PUSH2 0x792 JUMP JUMPDEST PUSH1 0x7 PUSH1 0x0 DUP2 SLOAD DUP1 SWAP3 SWAP2 SWAP1 PUSH2 0x5863 SWAP1 PUSH2 0x7496 JUMP JUMPDEST SWAP2 SWAP1 POP SSTORE POP PUSH2 0x587C PUSH8 0xFBC274B6D354CBC0 PUSH1 0xC0 SHL PUSH2 0x792 JUMP JUMPDEST PUSH1 0x0 PUSH1 0xE PUSH1 0x0 DUP5 DUP2 MSTORE PUSH1 0x20 ADD SWAP1 DUP2 MSTORE PUSH1 0x20 ADD PUSH1 0x0 KECCAK256 PUSH1 0x0 PUSH1 0xB DUP5 DUP2 SLOAD DUP2 LT PUSH2 0x58A7 JUMPI PUSH2 0x58A6 PUSH2 0x7467 JUMP JUMPDEST JUMPDEST SWAP1 PUSH1 0x0 MSTORE PUSH1 0x20 PUSH1 0x0 KECCAK256 ADD PUSH1 0x0 SWAP1 SLOAD SWAP1 PUSH2 0x100 EXP SWAP1 DIV PUSH20 0xFFFFFFFFFFFFFFFFFFFFFFFFFFFFFFFFFFFFFFFF AND PUSH20 0xFFFFFFFFFFFFFFFFFFFFFFFFFFFFFFFFFFFFFFFF AND PUSH20 0xFFFFFFFFFFFFFFFFFFFFFFFFFFFFFFFFFFFFFFFF AND DUP2 MSTORE PUSH1 0x20 ADD SWAP1 DUP2 MSTORE PUSH1 0x20 ADD PUSH1 0x0 KECCAK256 PUSH1 0x0 PUSH2 0x100 EXP DUP2 SLOAD DUP2 PUSH1 0xFF MUL NOT AND SWAP1 DUP4 ISZERO ISZERO MUL OR SWAP1 SSTORE POP PUSH2 0x593D JUMP JUMPDEST PUSH2 0x593C PUSH8 0xAB943F2E161A0456 PUSH1 0xC0 SHL PUSH2 0x792 JUMP JUMPDEST JUMPDEST DUP1 DUP1 PUSH1 0x1 ADD SWAP2 POP POP PUSH2 0x5752 JUMP JUMPDEST POP PUSH2 0x595F PUSH8 0xCF835ADF38C86F7C PUSH1 0xC0 SHL PUSH2 0x792 JUMP JUMPDEST PUSH2 0x5973 PUSH8 0xC52128A66F522373 PUSH1 0xC0 SHL PUSH2 0x792 JUMP JUMPDEST PUSH2 0x5987 PUSH8 0xC34569649DB67A3C PUSH1 0xC0 SHL PUSH2 0x792 JUMP JUMPDEST PUSH1 0x3 PUSH1 0x7 SLOAD LT ISZERO PUSH2 0x59CD JUMPI PUSH1 0x40 MLOAD PUSH32 0x8C379A000000000000000000000000000000000000000000000000000000000 DUP2 MSTORE PUSH1 0x4 ADD PUSH2 0x59C4 SWAP1 PUSH2 0x7550 JUMP JUMPDEST PUSH1 0x40 MLOAD DUP1 SWAP2 SUB SWAP1 REVERT JUMPDEST PUSH2 0x59E1 PUSH8 0x5D44DAA520FCC460 PUSH1 0xC0 SHL PUSH2 0x792 JUMP JUMPDEST PUSH2 0x59F5 PUSH8 0x891EEFE4C1D9C2A8 PUSH1 0xC0 SHL PUSH2 0x792 JUMP JUMPDEST PUSH1 0x0 PUSH1 0x7 DUP2 SWAP1 SSTORE POP PUSH2 0x5A11 PUSH8 0x6FBA0BC18282FC79 PUSH1 0xC0 SHL PUSH2 0x792 JUMP JUMPDEST PUSH2 0x5A25 PUSH8 0x295D0602C27CE017 PUSH1 0xC0 SHL PUSH2 0x792 JUMP JUMPDEST PUSH2 0x5A39 PUSH8 0x8E20E8E749D2D1EA PUSH1 0xC0 SHL PUSH2 0x792 JUMP JUMPDEST PUSH2 0x5A4D PUSH8 0xF827E6C514CE9E5F PUSH1 0xC0 SHL PUSH2 0x792 JUMP JUMPDEST PUSH2 0x5A61 PUSH8 0xAB8619196F9D33FC PUSH1 0xC0 SHL PUSH2 0x792 JUMP JUMPDEST PUSH1 0x0 JUMPDEST PUSH1 0xB DUP1 SLOAD SWAP1 POP DUP2 LT ISZERO PUSH2 0x5C87 JUMPI PUSH2 0x5A85 PUSH8 0x32224BEFF8D8A6DB PUSH1 0xC0 SHL PUSH2 0x792 JUMP JUMPDEST PUSH2 0x5A99 PUSH8 0xA2CE619D46322009 PUSH1 0xC0 SHL PUSH2 0x792 JUMP JUMPDEST DUP5 PUSH20 0xFFFFFFFFFFFFFFFFFFFFFFFFFFFFFFFFFFFFFFFF AND PUSH1 0xB DUP3 DUP2 SLOAD DUP2 LT PUSH2 0x5AC4 JUMPI PUSH2 0x5AC3 PUSH2 0x7467 JUMP JUMPDEST JUMPDEST SWAP1 PUSH1 0x0 MSTORE PUSH1 0x20 PUSH1 0x0 KECCAK256 ADD PUSH1 0x0 SWAP1 SLOAD SWAP1 PUSH2 0x100 EXP SWAP1 DIV PUSH20 0xFFFFFFFFFFFFFFFFFFFFFFFFFFFFFFFFFFFFFFFF AND PUSH20 0xFFFFFFFFFFFFFFFFFFFFFFFFFFFFFFFFFFFFFFFF AND SUB PUSH2 0x5C66 JUMPI PUSH2 0x5B1E PUSH8 0x2C0141406D284D01 PUSH1 0xC0 SHL PUSH2 0x792 JUMP JUMPDEST PUSH2 0x5B32 PUSH8 0x6D8A63443760074D PUSH1 0xC0 SHL PUSH2 0x792 JUMP JUMPDEST PUSH1 0xB PUSH1 0x1 PUSH1 0xB DUP1 SLOAD SWAP1 POP PUSH2 0x5B46 SWAP2 SWAP1 PUSH2 0x76B4 JUMP JUMPDEST DUP2 SLOAD DUP2 LT PUSH2 0x5B57 JUMPI PUSH2 0x5B56 PUSH2 0x7467 JUMP JUMPDEST JUMPDEST SWAP1 PUSH1 0x0 MSTORE PUSH1 0x20 PUSH1 0x0 KECCAK256 ADD PUSH1 0x0 SWAP1 SLOAD SWAP1 PUSH2 0x100 EXP SWAP1 DIV PUSH20 0xFFFFFFFFFFFFFFFFFFFFFFFFFFFFFFFFFFFFFFFF AND PUSH1 0xB DUP3 DUP2 SLOAD DUP2 LT PUSH2 0x5B96 JUMPI PUSH2 0x5B95 PUSH2 0x7467 JUMP JUMPDEST JUMPDEST SWAP1 PUSH1 0x0 MSTORE PUSH1 0x20 PUSH1 0x0 KECCAK256 ADD PUSH1 0x0 PUSH2 0x100 EXP DUP2 SLOAD DUP2 PUSH20 0xFFFFFFFFFFFFFFFFFFFFFFFFFFFFFFFFFFFFFFFF MUL NOT AND SWAP1 DUP4 PUSH20 0xFFFFFFFFFFFFFFFFFFFFFFFFFFFFFFFFFFFFFFFF AND MUL OR SWAP1 SSTORE POP PUSH2 0x5BF2 PUSH8 0xA4E657901B12E644 PUSH1 0xC0 SHL PUSH2 0x792 JUMP JUMPDEST PUSH2 0x5C06 PUSH8 0xE299ED22CCF97277 PUSH1 0xC0 SHL PUSH2 0x792 JUMP JUMPDEST PUSH1 0xB DUP1 SLOAD DUP1 PUSH2 0x5C18 JUMPI PUSH2 0x5C17 PUSH2 0x77F7 JUMP JUMPDEST JUMPDEST PUSH1 0x1 SWAP1 SUB DUP2 DUP2 SWAP1 PUSH1 0x0 MSTORE PUSH1 0x20 PUSH1 0x0 KECCAK256 ADD PUSH1 0x0 PUSH2 0x100 EXP DUP2 SLOAD SWAP1 PUSH20 0xFFFFFFFFFFFFFFFFFFFFFFFFFFFFFFFFFFFFFFFF MUL NOT AND SWAP1 SSTORE SWAP1 SSTORE PUSH2 0x5C61 PUSH8 0xD5A377552EDF22E1 PUSH1 0xC0 SHL PUSH2 0x792 JUMP JUMPDEST PUSH2 0x5C87 JUMP JUMPDEST PUSH2 0x5C7A PUSH8 0xAFABB4B7B558D734 PUSH1 0xC0 SHL PUSH2 0x792 JUMP JUMPDEST DUP1 DUP1 PUSH1 0x1 ADD SWAP2 POP POP PUSH2 0x5A64 JUMP JUMPDEST POP PUSH2 0x5C9C PUSH8 0x3D67852EDFF1806 PUSH1 0xC0 SHL PUSH2 0x792 JUMP JUMPDEST PUSH1 0x0 PUSH1 0xC PUSH1 0x0 DUP7 PUSH20 0xFFFFFFFFFFFFFFFFFFFFFFFFFFFFFFFFFFFFFFFF AND PUSH20 0xFFFFFFFFFFFFFFFFFFFFFFFFFFFFFFFFFFFFFFFF AND DUP2 MSTORE PUSH1 0x20 ADD SWAP1 DUP2 MSTORE PUSH1 0x20 ADD PUSH1 0x0 KECCAK256 PUSH1 0x0 PUSH2 0x100 EXP DUP2 SLOAD DUP2 PUSH1 0xFF MUL NOT AND SWAP1 DUP4 ISZERO ISZERO MUL OR SWAP1 SSTORE POP PUSH2 0x5D08 PUSH8 0xC7359F24D722B1DC PUSH1 0xC0 SHL PUSH2 0x792 JUMP JUMPDEST PUSH2 0x5D1C PUSH8 0xEE7F87E95AC03250 PUSH1 0xC0 SHL PUSH2 0x792 JUMP JUMPDEST PUSH1 0xB DUP4 SWAP1 DUP1 PUSH1 0x1 DUP2 SLOAD ADD DUP1 DUP3 SSTORE DUP1 SWAP2 POP POP PUSH1 0x1 SWAP1 SUB SWAP1 PUSH1 0x0 MSTORE PUSH1 0x20 PUSH1 0x0 KECCAK256 ADD PUSH1 0x0 SWAP1 SWAP2 SWAP1 SWAP2 SWAP1 SWAP2 PUSH2 0x100 EXP DUP2 SLOAD DUP2 PUSH20 0xFFFFFFFFFFFFFFFFFFFFFFFFFFFFFFFFFFFFFFFF MUL NOT AND SWAP1 DUP4 PUSH20 0xFFFFFFFFFFFFFFFFFFFFFFFFFFFFFFFFFFFFFFFF AND MUL OR SWAP1 SSTORE POP PUSH2 0x5D93 PUSH8 0xDF4F645D37E17F85 PUSH1 0xC0 SHL PUSH2 0x792 JUMP JUMPDEST PUSH1 0x1 PUSH1 0xC PUSH1 0x0 DUP6 PUSH20 0xFFFFFFFFFFFFFFFFFFFFFFFFFFFFFFFFFFFFFFFF AND PUSH20 0xFFFFFFFFFFFFFFFFFFFFFFFFFFFFFFFFFFFFFFFF AND DUP2 MSTORE PUSH1 0x20 ADD SWAP1 DUP2 MSTORE PUSH1 0x20 ADD PUSH1 0x0 KECCAK256 PUSH1 0x0 PUSH2 0x100 EXP DUP2 SLOAD DUP2 PUSH1 0xFF MUL NOT AND SWAP1 DUP4 ISZERO ISZERO MUL OR SWAP1 SSTORE POP PUSH2 0x5DFF PUSH8 0x3693F8A4CEAE00FD PUSH1 0xC0 SHL PUSH2 0x792 JUMP JUMPDEST PUSH2 0x5E13 PUSH8 0xCDE20153DCB51080 PUSH1 0xC0 SHL PUSH2 0x792 JUMP JUMPDEST DUP3 PUSH20 0xFFFFFFFFFFFFFFFFFFFFFFFFFFFFFFFFFFFFFFFF AND PUSH32 0x712D53AB219462E032D2FF05D9215A37B882FA592CCA6E29C3D8C6A2BDC27B24 DUP4 PUSH1 0x40 MLOAD PUSH2 0x5E59 SWAP2 SWAP1 PUSH2 0x6D19 JUMP JUMPDEST PUSH1 0x40 MLOAD DUP1 SWAP2 SUB SWAP1 LOG2 POP POP POP POP JUMP JUMPDEST PUSH1 0x0 PUSH20 0xFFFFFFFFFFFFFFFFFFFFFFFFFFFFFFFFFFFFFFFF AND DUP4 PUSH20 0xFFFFFFFFFFFFFFFFFFFFFFFFFFFFFFFFFFFFFFFF AND SUB PUSH2 0x5EB9 JUMPI DUP1 PUSH1 0x2 PUSH1 0x0 DUP3 DUP3 SLOAD PUSH2 0x5EAD SWAP2 SWAP1 PUSH2 0x6A61 JUMP JUMPDEST SWAP3 POP POP DUP2 SWAP1 SSTORE POP PUSH2 0x5F8C JUMP JUMPDEST PUSH1 0x0 DUP1 PUSH1 0x0 DUP6 PUSH20 0xFFFFFFFFFFFFFFFFFFFFFFFFFFFFFFFFFFFFFFFF AND PUSH20 0xFFFFFFFFFFFFFFFFFFFFFFFFFFFFFFFFFFFFFFFF AND DUP2 MSTORE PUSH1 0x20 ADD SWAP1 DUP2 MSTORE PUSH1 0x20 ADD PUSH1 0x0 KECCAK256 SLOAD SWAP1 POP DUP2 DUP2 LT ISZERO PUSH2 0x5F45 JUMPI DUP4 DUP2 DUP4 PUSH1 0x40 MLOAD PUSH32 0xE450D38C00000000000000000000000000000000000000000000000000000000 DUP2 MSTORE PUSH1 0x4 ADD PUSH2 0x5F3C SWAP4 SWAP3 SWAP2 SWAP1 PUSH2 0x7430 JUMP JUMPDEST PUSH1 0x40 MLOAD DUP1 SWAP2 SUB SWAP1 REVERT JUMPDEST DUP2 DUP2 SUB PUSH1 0x0 DUP1 DUP7 PUSH20 0xFFFFFFFFFFFFFFFFFFFFFFFFFFFFFFFFFFFFFFFF AND PUSH20 0xFFFFFFFFFFFFFFFFFFFFFFFFFFFFFFFFFFFFFFFF AND DUP2 MSTORE PUSH1 0x20 ADD SWAP1 DUP2 MSTORE PUSH1 0x20 ADD PUSH1 0x0 KECCAK256 DUP2 SWAP1 SSTORE POP POP JUMPDEST PUSH1 0x0 PUSH20 0xFFFFFFFFFFFFFFFFFFFFFFFFFFFFFFFFFFFFFFFF AND DUP3 PUSH20 0xFFFFFFFFFFFFFFFFFFFFFFFFFFFFFFFFFFFFFFFF AND SUB PUSH2 0x5FD5 JUMPI DUP1 PUSH1 0x2 PUSH1 0x0 DUP3 DUP3 SLOAD SUB SWAP3 POP POP DUP2 SWAP1 SSTORE POP PUSH2 0x6022 JUMP JUMPDEST DUP1 PUSH1 0x0 DUP1 DUP5 PUSH20 0xFFFFFFFFFFFFFFFFFFFFFFFFFFFFFFFFFFFFFFFF AND PUSH20 0xFFFFFFFFFFFFFFFFFFFFFFFFFFFFFFFFFFFFFFFF AND DUP2 MSTORE PUSH1 0x20 ADD SWAP1 DUP2 MSTORE PUSH1 0x20 ADD PUSH1 0x0 KECCAK256 PUSH1 0x0 DUP3 DUP3 SLOAD ADD SWAP3 POP POP DUP2 SWAP1 SSTORE POP JUMPDEST DUP2 PUSH20 0xFFFFFFFFFFFFFFFFFFFFFFFFFFFFFFFFFFFFFFFF AND DUP4 PUSH20 0xFFFFFFFFFFFFFFFFFFFFFFFFFFFFFFFFFFFFFFFF AND PUSH32 0xDDF252AD1BE2C89B69C2B068FC378DAA952BA7F163C4A11628F55A4DF523B3EF DUP4 PUSH1 0x40 MLOAD PUSH2 0x607F SWAP2 SWAP1 PUSH2 0x64F7 JUMP JUMPDEST PUSH1 0x40 MLOAD DUP1 SWAP2 SUB SWAP1 LOG3 POP POP POP JUMP JUMPDEST PUSH1 0x0 PUSH20 0xFFFFFFFFFFFFFFFFFFFFFFFFFFFFFFFFFFFFFFFF AND DUP5 PUSH20 0xFFFFFFFFFFFFFFFFFFFFFFFFFFFFFFFFFFFFFFFF AND SUB PUSH2 0x60FE JUMPI PUSH1 0x0 PUSH1 0x40 MLOAD PUSH32 0xE602DF0500000000000000000000000000000000000000000000000000000000 DUP2 MSTORE PUSH1 0x4 ADD PUSH2 0x60F5 SWAP2 SWAP1 PUSH2 0x6379 JUMP JUMPDEST PUSH1 0x40 MLOAD DUP1 SWAP2 SUB SWAP1 REVERT JUMPDEST PUSH1 0x0 PUSH20 0xFFFFFFFFFFFFFFFFFFFFFFFFFFFFFFFFFFFFFFFF AND DUP4 PUSH20 0xFFFFFFFFFFFFFFFFFFFFFFFFFFFFFFFFFFFFFFFF AND SUB PUSH2 0x6170 JUMPI PUSH1 0x0 PUSH1 0x40 MLOAD PUSH32 0x94280D6200000000000000000000000000000000000000000000000000000000 DUP2 MSTORE PUSH1 0x4 ADD PUSH2 0x6167 SWAP2 SWAP1 PUSH2 0x6379 JUMP JUMPDEST PUSH1 0x40 MLOAD DUP1 SWAP2 SUB SWAP1 REVERT JUMPDEST DUP2 PUSH1 0x1 PUSH1 0x0 DUP7 PUSH20 0xFFFFFFFFFFFFFFFFFFFFFFFFFFFFFFFFFFFFFFFF AND PUSH20 0xFFFFFFFFFFFFFFFFFFFFFFFFFFFFFFFFFFFFFFFF AND DUP2 MSTORE PUSH1 0x20 ADD SWAP1 DUP2 MSTORE PUSH1 0x20 ADD PUSH1 0x0 KECCAK256 PUSH1 0x0 DUP6 PUSH20 0xFFFFFFFFFFFFFFFFFFFFFFFFFFFFFFFFFFFFFFFF AND PUSH20 0xFFFFFFFFFFFFFFFFFFFFFFFFFFFFFFFFFFFFFFFF AND DUP2 MSTORE PUSH1 0x20 ADD SWAP1 DUP2 MSTORE PUSH1 0x20 ADD PUSH1 0x0 KECCAK256 DUP2 SWAP1 SSTORE POP DUP1 ISZERO PUSH2 0x625D JUMPI DUP3 PUSH20 0xFFFFFFFFFFFFFFFFFFFFFFFFFFFFFFFFFFFFFFFF AND DUP5 PUSH20 0xFFFFFFFFFFFFFFFFFFFFFFFFFFFFFFFFFFFFFFFF AND PUSH32 0x8C5BE1E5EBEC7D5BD14F71427D1E84F3DD0314C0F7B2291E5B200AC8C7C3B925 DUP5 PUSH1 0x40 MLOAD PUSH2 0x6254 SWAP2 SWAP1 PUSH2 0x64F7 JUMP JUMPDEST PUSH1 0x40 MLOAD DUP1 SWAP2 SUB SWAP1 LOG3 JUMPDEST POP POP POP POP JUMP JUMPDEST PUSH1 0x0 PUSH2 0x6279 PUSH8 0x589F491B0910FB8A PUSH1 0xC0 SHL PUSH2 0x792 JUMP JUMPDEST PUSH2 0x628D PUSH8 0x46180858FE3C796B PUSH1 0xC0 SHL PUSH2 0x792 JUMP JUMPDEST PUSH2 0x62A1 PUSH8 0x8D8CA574EFAD27B6 PUSH1 0xC0 SHL PUSH2 0x792 JUMP JUMPDEST PUSH1 0x64 DUP3 DUP5 PUSH2 0x62AF SWAP2 SWAP1 PUSH2 0x7826 JUMP JUMPDEST PUSH2 0x62B9 SWAP2 SWAP1 PUSH2 0x7897 JUMP JUMPDEST SWAP1 POP SWAP3 SWAP2 POP POP JUMP JUMPDEST PUSH1 0x0 PUSH1 0x40 MLOAD SWAP1 POP SWAP1 JUMP JUMPDEST PUSH1 0x0 DUP1 REVERT JUMPDEST PUSH1 0x0 DUP1 REVERT JUMPDEST PUSH1 0x0 DUP2 SWAP1 POP SWAP2 SWAP1 POP JUMP JUMPDEST PUSH2 0x62E8 DUP2 PUSH2 0x62D5 JUMP JUMPDEST DUP2 EQ PUSH2 0x62F3 JUMPI PUSH1 0x0 DUP1 REVERT JUMPDEST POP JUMP JUMPDEST PUSH1 0x0 DUP2 CALLDATALOAD SWAP1 POP PUSH2 0x6305 DUP2 PUSH2 0x62DF JUMP JUMPDEST SWAP3 SWAP2 POP POP JUMP JUMPDEST PUSH1 0x0 PUSH1 0x20 DUP3 DUP5 SUB SLT ISZERO PUSH2 0x6321 JUMPI PUSH2 0x6320 PUSH2 0x62CB JUMP JUMPDEST JUMPDEST PUSH1 0x0 PUSH2 0x632F DUP5 DUP3 DUP6 ADD PUSH2 0x62F6 JUMP JUMPDEST SWAP2 POP POP SWAP3 SWAP2 POP POP JUMP JUMPDEST PUSH1 0x0 PUSH20 0xFFFFFFFFFFFFFFFFFFFFFFFFFFFFFFFFFFFFFFFF DUP3 AND SWAP1 POP SWAP2 SWAP1 POP JUMP JUMPDEST PUSH1 0x0 PUSH2 0x6363 DUP3 PUSH2 0x6338 JUMP JUMPDEST SWAP1 POP SWAP2 SWAP1 POP JUMP JUMPDEST PUSH2 0x6373 DUP2 PUSH2 0x6358 JUMP JUMPDEST DUP3 MSTORE POP POP JUMP JUMPDEST PUSH1 0x0 PUSH1 0x20 DUP3 ADD SWAP1 POP PUSH2 0x638E PUSH1 0x0 DUP4 ADD DUP5 PUSH2 0x636A JUMP JUMPDEST SWAP3 SWAP2 POP POP JUMP JUMPDEST PUSH1 0x0 DUP2 MLOAD SWAP1 POP SWAP2 SWAP1 POP JUMP JUMPDEST PUSH1 0x0 DUP3 DUP3 MSTORE PUSH1 0x20 DUP3 ADD SWAP1 POP SWAP3 SWAP2 POP POP JUMP JUMPDEST PUSH1 0x0 JUMPDEST DUP4 DUP2 LT ISZERO PUSH2 0x63CE JUMPI DUP1 DUP3 ADD MLOAD DUP2 DUP5 ADD MSTORE PUSH1 0x20 DUP2 ADD SWAP1 POP PUSH2 0x63B3 JUMP JUMPDEST PUSH1 0x0 DUP5 DUP5 ADD MSTORE POP POP POP POP JUMP JUMPDEST PUSH1 0x0 PUSH1 0x1F NOT PUSH1 0x1F DUP4 ADD AND SWAP1 POP SWAP2 SWAP1 POP JUMP JUMPDEST PUSH1 0x0 PUSH2 0x63F6 DUP3 PUSH2 0x6394 JUMP JUMPDEST PUSH2 0x6400 DUP2 DUP6 PUSH2 0x639F JUMP JUMPDEST SWAP4 POP PUSH2 0x6410 DUP2 DUP6 PUSH1 0x20 DUP7 ADD PUSH2 0x63B0 JUMP JUMPDEST PUSH2 0x6419 DUP2 PUSH2 0x63DA JUMP JUMPDEST DUP5 ADD SWAP2 POP POP SWAP3 SWAP2 POP POP JUMP JUMPDEST PUSH1 0x0 PUSH1 0x20 DUP3 ADD SWAP1 POP DUP2 DUP2 SUB PUSH1 0x0 DUP4 ADD MSTORE PUSH2 0x643E DUP2 DUP5 PUSH2 0x63EB JUMP JUMPDEST SWAP1 POP SWAP3 SWAP2 POP POP JUMP JUMPDEST PUSH2 0x644F DUP2 PUSH2 0x6358 JUMP JUMPDEST DUP2 EQ PUSH2 0x645A JUMPI PUSH1 0x0 DUP1 REVERT JUMPDEST POP JUMP JUMPDEST PUSH1 0x0 DUP2 CALLDATALOAD SWAP1 POP PUSH2 0x646C DUP2 PUSH2 0x6446 JUMP JUMPDEST SWAP3 SWAP2 POP POP JUMP JUMPDEST PUSH1 0x0 DUP1 PUSH1 0x40 DUP4 DUP6 SUB SLT ISZERO PUSH2 0x6489 JUMPI PUSH2 0x6488 PUSH2 0x62CB JUMP JUMPDEST JUMPDEST PUSH1 0x0 PUSH2 0x6497 DUP6 DUP3 DUP7 ADD PUSH2 0x645D JUMP JUMPDEST SWAP3 POP POP PUSH1 0x20 PUSH2 0x64A8 DUP6 DUP3 DUP7 ADD PUSH2 0x62F6 JUMP JUMPDEST SWAP2 POP POP SWAP3 POP SWAP3 SWAP1 POP JUMP JUMPDEST PUSH1 0x0 DUP2 ISZERO ISZERO SWAP1 POP SWAP2 SWAP1 POP JUMP JUMPDEST PUSH2 0x64C7 DUP2 PUSH2 0x64B2 JUMP JUMPDEST DUP3 MSTORE POP POP JUMP JUMPDEST PUSH1 0x0 PUSH1 0x20 DUP3 ADD SWAP1 POP PUSH2 0x64E2 PUSH1 0x0 DUP4 ADD DUP5 PUSH2 0x64BE JUMP JUMPDEST SWAP3 SWAP2 POP POP JUMP JUMPDEST PUSH2 0x64F1 DUP2 PUSH2 0x62D5 JUMP JUMPDEST DUP3 MSTORE POP POP JUMP JUMPDEST PUSH1 0x0 PUSH1 0x20 DUP3 ADD SWAP1 POP PUSH2 0x650C PUSH1 0x0 DUP4 ADD DUP5 PUSH2 0x64E8 JUMP JUMPDEST SWAP3 SWAP2 POP POP JUMP JUMPDEST PUSH1 0x0 DUP1 REVERT JUMPDEST PUSH1 0x0 DUP1 REVERT JUMPDEST PUSH32 0x4E487B7100000000000000000000000000000000000000000000000000000000 PUSH1 0x0 MSTORE PUSH1 0x41 PUSH1 0x4 MSTORE PUSH1 0x24 PUSH1 0x0 REVERT JUMPDEST PUSH2 0x6554 DUP3 PUSH2 0x63DA JUMP JUMPDEST DUP2 ADD DUP2 DUP2 LT PUSH8 0xFFFFFFFFFFFFFFFF DUP3 GT OR ISZERO PUSH2 0x6573 JUMPI PUSH2 0x6572 PUSH2 0x651C JUMP JUMPDEST JUMPDEST DUP1 PUSH1 0x40 MSTORE POP POP POP JUMP JUMPDEST PUSH1 0x0 PUSH2 0x6586 PUSH2 0x62C1 JUMP JUMPDEST SWAP1 POP PUSH2 0x6592 DUP3 DUP3 PUSH2 0x654B JUMP JUMPDEST SWAP2 SWAP1 POP JUMP JUMPDEST PUSH1 0x0 PUSH8 0xFFFFFFFFFFFFFFFF DUP3 GT ISZERO PUSH2 0x65B2 JUMPI PUSH2 0x65B1 PUSH2 0x651C JUMP JUMPDEST JUMPDEST PUSH2 0x65BB DUP3 PUSH2 0x63DA JUMP JUMPDEST SWAP1 POP PUSH1 0x20 DUP2 ADD SWAP1 POP SWAP2 SWAP1 POP JUMP JUMPDEST DUP3 DUP2 DUP4 CALLDATACOPY PUSH1 0x0 DUP4 DUP4 ADD MSTORE POP POP POP JUMP JUMPDEST PUSH1 0x0 PUSH2 0x65EA PUSH2 0x65E5 DUP5 PUSH2 0x6597 JUMP JUMPDEST PUSH2 0x657C JUMP JUMPDEST SWAP1 POP DUP3 DUP2 MSTORE PUSH1 0x20 DUP2 ADD DUP5 DUP5 DUP5 ADD GT ISZERO PUSH2 0x6606 JUMPI PUSH2 0x6605 PUSH2 0x6517 JUMP JUMPDEST JUMPDEST PUSH2 0x6611 DUP5 DUP3 DUP6 PUSH2 0x65C8 JUMP JUMPDEST POP SWAP4 SWAP3 POP POP POP JUMP JUMPDEST PUSH1 0x0 DUP3 PUSH1 0x1F DUP4 ADD SLT PUSH2 0x662E JUMPI PUSH2 0x662D PUSH2 0x6512 JUMP JUMPDEST JUMPDEST DUP2 CALLDATALOAD PUSH2 0x663E DUP5 DUP3 PUSH1 0x20 DUP7 ADD PUSH2 0x65D7 JUMP JUMPDEST SWAP2 POP POP SWAP3 SWAP2 POP POP JUMP JUMPDEST PUSH1 0x0 PUSH1 0x20 DUP3 DUP5 SUB SLT ISZERO PUSH2 0x665D JUMPI PUSH2 0x665C PUSH2 0x62CB JUMP JUMPDEST JUMPDEST PUSH1 0x0 DUP3 ADD CALLDATALOAD PUSH8 0xFFFFFFFFFFFFFFFF DUP2 GT ISZERO PUSH2 0x667B JUMPI PUSH2 0x667A PUSH2 0x62D0 JUMP JUMPDEST JUMPDEST PUSH2 0x6687 DUP5 DUP3 DUP6 ADD PUSH2 0x6619 JUMP JUMPDEST SWAP2 POP POP SWAP3 SWAP2 POP POP JUMP JUMPDEST PUSH1 0x0 DUP1 PUSH1 0x0 PUSH1 0x60 DUP5 DUP7 SUB SLT ISZERO PUSH2 0x66A9 JUMPI PUSH2 0x66A8 PUSH2 0x62CB JUMP JUMPDEST JUMPDEST PUSH1 0x0 PUSH2 0x66B7 DUP7 DUP3 DUP8 ADD PUSH2 0x645D JUMP JUMPDEST SWAP4 POP POP PUSH1 0x20 PUSH2 0x66C8 DUP7 DUP3 DUP8 ADD PUSH2 0x645D JUMP JUMPDEST SWAP3 POP POP PUSH1 0x40 PUSH2 0x66D9 DUP7 DUP3 DUP8 ADD PUSH2 0x62F6 JUMP JUMPDEST SWAP2 POP POP SWAP3 POP SWAP3 POP SWAP3 JUMP JUMPDEST PUSH1 0x0 DUP2 SWAP1 POP SWAP2 SWAP1 POP JUMP JUMPDEST PUSH2 0x66F6 DUP2 PUSH2 0x66E3 JUMP JUMPDEST DUP2 EQ PUSH2 0x6701 JUMPI PUSH1 0x0 DUP1 REVERT JUMPDEST POP JUMP JUMPDEST PUSH1 0x0 DUP2 CALLDATALOAD SWAP1 POP PUSH2 0x6713 DUP2 PUSH2 0x66ED JUMP JUMPDEST SWAP3 SWAP2 POP POP JUMP JUMPDEST PUSH1 0x0 DUP1 PUSH1 0x40 DUP4 DUP6 SUB SLT ISZERO PUSH2 0x6730 JUMPI PUSH2 0x672F PUSH2 0x62CB JUMP JUMPDEST JUMPDEST PUSH1 0x0 PUSH2 0x673E DUP6 DUP3 DUP7 ADD PUSH2 0x6704 JUMP JUMPDEST SWAP3 POP POP PUSH1 0x20 PUSH2 0x674F DUP6 DUP3 DUP7 ADD PUSH2 0x645D JUMP JUMPDEST SWAP2 POP POP SWAP3 POP SWAP3 SWAP1 POP JUMP JUMPDEST PUSH1 0x0 PUSH1 0x20 DUP3 DUP5 SUB SLT ISZERO PUSH2 0x676F JUMPI PUSH2 0x676E PUSH2 0x62CB JUMP JUMPDEST JUMPDEST PUSH1 0x0 PUSH2 0x677D DUP5 DUP3 DUP6 ADD PUSH2 0x645D JUMP JUMPDEST SWAP2 POP POP SWAP3 SWAP2 POP POP JUMP JUMPDEST PUSH1 0x0 PUSH1 0xFF DUP3 AND SWAP1 POP SWAP2 SWAP1 POP JUMP JUMPDEST PUSH2 0x679C DUP2 PUSH2 0x6786 JUMP JUMPDEST DUP3 MSTORE POP POP JUMP JUMPDEST PUSH1 0x0 PUSH1 0x20 DUP3 ADD SWAP1 POP PUSH2 0x67B7 PUSH1 0x0 DUP4 ADD DUP5 PUSH2 0x6793 JUMP JUMPDEST SWAP3 SWAP2 POP POP JUMP JUMPDEST PUSH1 0x0 DUP1 PUSH1 0x40 DUP4 DUP6 SUB SLT ISZERO PUSH2 0x67D4 JUMPI PUSH2 0x67D3 PUSH2 0x62CB JUMP JUMPDEST JUMPDEST PUSH1 0x0 DUP4 ADD CALLDATALOAD PUSH8 0xFFFFFFFFFFFFFFFF DUP2 GT ISZERO PUSH2 0x67F2 JUMPI PUSH2 0x67F1 PUSH2 0x62D0 JUMP JUMPDEST JUMPDEST PUSH2 0x67FE DUP6 DUP3 DUP7 ADD PUSH2 0x6619 JUMP JUMPDEST SWAP3 POP POP PUSH1 0x20 PUSH2 0x680F DUP6 DUP3 DUP7 ADD PUSH2 0x62F6 JUMP JUMPDEST SWAP2 POP POP SWAP3 POP SWAP3 SWAP1 POP JUMP JUMPDEST PUSH1 0x0 DUP1 PUSH1 0x0 PUSH1 0x60 DUP5 DUP7 SUB SLT ISZERO PUSH2 0x6832 JUMPI PUSH2 0x6831 PUSH2 0x62CB JUMP JUMPDEST JUMPDEST PUSH1 0x0 DUP5 ADD CALLDATALOAD PUSH8 0xFFFFFFFFFFFFFFFF DUP2 GT ISZERO PUSH2 0x6850 JUMPI PUSH2 0x684F PUSH2 0x62D0 JUMP JUMPDEST JUMPDEST PUSH2 0x685C DUP7 DUP3 DUP8 ADD PUSH2 0x6619 JUMP JUMPDEST SWAP4 POP POP PUSH1 0x20 PUSH2 0x686D DUP7 DUP3 DUP8 ADD PUSH2 0x645D JUMP JUMPDEST SWAP3 POP POP PUSH1 0x40 PUSH2 0x687E DUP7 DUP3 DUP8 ADD PUSH2 0x645D JUMP JUMPDEST SWAP2 POP POP SWAP3 POP SWAP3 POP SWAP3 JUMP JUMPDEST PUSH1 0x0 DUP1 PUSH1 0x40 DUP4 DUP6 SUB SLT ISZERO PUSH2 0x689F JUMPI PUSH2 0x689E PUSH2 0x62CB JUMP JUMPDEST JUMPDEST PUSH1 0x0 PUSH2 0x68AD DUP6 DUP3 DUP7 ADD PUSH2 0x645D JUMP JUMPDEST SWAP3 POP POP PUSH1 0x20 PUSH2 0x68BE DUP6 DUP3 DUP7 ADD PUSH2 0x645D JUMP JUMPDEST SWAP2 POP POP SWAP3 POP SWAP3 SWAP1 POP JUMP JUMPDEST PUSH32 0x4F6E6C792074686520454F412063616E20657865637574652074686973206675 PUSH1 0x0 DUP3 ADD MSTORE PUSH32 0x6E6374696F6E0000000000000000000000000000000000000000000000000000 PUSH1 0x20 DUP3 ADD MSTORE POP JUMP JUMPDEST PUSH1 0x0 PUSH2 0x6924 PUSH1 0x26 DUP4 PUSH2 0x639F JUMP JUMPDEST SWAP2 POP PUSH2 0x692F DUP3 PUSH2 0x68C8 JUMP JUMPDEST PUSH1 0x40 DUP3 ADD SWAP1 POP SWAP2 SWAP1 POP JUMP JUMPDEST PUSH1 0x0 PUSH1 0x20 DUP3 ADD SWAP1 POP DUP2 DUP2 SUB PUSH1 0x0 DUP4 ADD MSTORE PUSH2 0x6953 DUP2 PUSH2 0x6917 JUMP JUMPDEST SWAP1 POP SWAP2 SWAP1 POP JUMP JUMPDEST PUSH32 0x436F6E7472616374206973207061757365642021000000000000000000000000 PUSH1 0x0 DUP3 ADD MSTORE POP JUMP JUMPDEST PUSH1 0x0 PUSH2 0x6990 PUSH1 0x14 DUP4 PUSH2 0x639F JUMP JUMPDEST SWAP2 POP PUSH2 0x699B DUP3 PUSH2 0x695A JUMP JUMPDEST PUSH1 0x20 DUP3 ADD SWAP1 POP SWAP2 SWAP1 POP JUMP JUMPDEST PUSH1 0x0 PUSH1 0x20 DUP3 ADD SWAP1 POP DUP2 DUP2 SUB PUSH1 0x0 DUP4 ADD MSTORE PUSH2 0x69BF DUP2 PUSH2 0x6983 JUMP JUMPDEST SWAP1 POP SWAP2 SWAP1 POP JUMP JUMPDEST PUSH32 0x416D6F756E74206D7573742062652067726561746572207468616E2030000000 PUSH1 0x0 DUP3 ADD MSTORE POP JUMP JUMPDEST PUSH1 0x0 PUSH2 0x69FC PUSH1 0x1D DUP4 PUSH2 0x639F JUMP JUMPDEST SWAP2 POP PUSH2 0x6A07 DUP3 PUSH2 0x69C6 JUMP JUMPDEST PUSH1 0x20 DUP3 ADD SWAP1 POP SWAP2 SWAP1 POP JUMP JUMPDEST PUSH1 0x0 PUSH1 0x20 DUP3 ADD SWAP1 POP DUP2 DUP2 SUB PUSH1 0x0 DUP4 ADD MSTORE PUSH2 0x6A2B DUP2 PUSH2 0x69EF JUMP JUMPDEST SWAP1 POP SWAP2 SWAP1 POP JUMP JUMPDEST PUSH32 0x4E487B7100000000000000000000000000000000000000000000000000000000 PUSH1 0x0 MSTORE PUSH1 0x11 PUSH1 0x4 MSTORE PUSH1 0x24 PUSH1 0x0 REVERT JUMPDEST PUSH1 0x0 PUSH2 0x6A6C DUP3 PUSH2 0x62D5 JUMP JUMPDEST SWAP2 POP PUSH2 0x6A77 DUP4 PUSH2 0x62D5 JUMP JUMPDEST SWAP3 POP DUP3 DUP3 ADD SWAP1 POP DUP1 DUP3 GT ISZERO PUSH2 0x6A8F JUMPI PUSH2 0x6A8E PUSH2 0x6A32 JUMP JUMPDEST JUMPDEST SWAP3 SWAP2 POP POP JUMP JUMPDEST PUSH32 0x43616E6E6F74206D696E74206D6F7265207468616E20746F74616C2073757070 PUSH1 0x0 DUP3 ADD MSTORE PUSH32 0x6C79000000000000000000000000000000000000000000000000000000000000 PUSH1 0x20 DUP3 ADD MSTORE POP JUMP JUMPDEST PUSH1 0x0 PUSH2 0x6AF1 PUSH1 0x22 DUP4 PUSH2 0x639F JUMP JUMPDEST SWAP2 POP PUSH2 0x6AFC DUP3 PUSH2 0x6A95 JUMP JUMPDEST PUSH1 0x40 DUP3 ADD SWAP1 POP SWAP2 SWAP1 POP JUMP JUMPDEST PUSH1 0x0 PUSH1 0x20 DUP3 ADD SWAP1 POP DUP2 DUP2 SUB PUSH1 0x0 DUP4 ADD MSTORE PUSH2 0x6B20 DUP2 PUSH2 0x6AE4 JUMP JUMPDEST SWAP1 POP SWAP2 SWAP1 POP JUMP JUMPDEST PUSH32 0x4E487B7100000000000000000000000000000000000000000000000000000000 PUSH1 0x0 MSTORE PUSH1 0x22 PUSH1 0x4 MSTORE PUSH1 0x24 PUSH1 0x0 REVERT JUMPDEST PUSH1 0x0 PUSH1 0x2 DUP3 DIV SWAP1 POP PUSH1 0x1 DUP3 AND DUP1 PUSH2 0x6B6E JUMPI PUSH1 0x7F DUP3 AND SWAP2 POP JUMPDEST PUSH1 0x20 DUP3 LT DUP2 SUB PUSH2 0x6B81 JUMPI PUSH2 0x6B80 PUSH2 0x6B27 JUMP JUMPDEST JUMPDEST POP SWAP2 SWAP1 POP JUMP JUMPDEST PUSH32 0x4E6F7420616E20617574686F72697A6564206163636F756E742E000000000000 PUSH1 0x0 DUP3 ADD MSTORE POP JUMP JUMPDEST PUSH1 0x0 PUSH2 0x6BBD PUSH1 0x1A DUP4 PUSH2 0x639F JUMP JUMPDEST SWAP2 POP PUSH2 0x6BC8 DUP3 PUSH2 0x6B87 JUMP JUMPDEST PUSH1 0x20 DUP3 ADD SWAP1 POP SWAP2 SWAP1 POP JUMP JUMPDEST PUSH1 0x0 PUSH1 0x20 DUP3 ADD SWAP1 POP DUP2 DUP2 SUB PUSH1 0x0 DUP4 ADD MSTORE PUSH2 0x6BEC DUP2 PUSH2 0x6BB0 JUMP JUMPDEST SWAP1 POP SWAP2 SWAP1 POP JUMP JUMPDEST PUSH1 0x0 DUP2 SWAP1 POP SWAP3 SWAP2 POP POP JUMP JUMPDEST PUSH1 0x0 PUSH2 0x6C09 DUP3 PUSH2 0x6394 JUMP JUMPDEST PUSH2 0x6C13 DUP2 DUP6 PUSH2 0x6BF3 JUMP JUMPDEST SWAP4 POP PUSH2 0x6C23 DUP2 DUP6 PUSH1 0x20 DUP7 ADD PUSH2 0x63B0 JUMP JUMPDEST DUP1 DUP5 ADD SWAP2 POP POP SWAP3 SWAP2 POP POP JUMP JUMPDEST PUSH1 0x0 DUP2 SWAP1 POP SWAP2 SWAP1 POP JUMP JUMPDEST PUSH2 0x6C4A PUSH2 0x6C45 DUP3 PUSH2 0x62D5 JUMP JUMPDEST PUSH2 0x6C2F JUMP JUMPDEST DUP3 MSTORE POP POP JUMP JUMPDEST PUSH1 0x0 PUSH2 0x6C5C DUP3 DUP6 PUSH2 0x6BFE JUMP JUMPDEST SWAP2 POP PUSH2 0x6C68 DUP3 DUP5 PUSH2 0x6C39 JUMP JUMPDEST PUSH1 0x20 DUP3 ADD SWAP2 POP DUP2 SWAP1 POP SWAP4 SWAP3 POP POP POP JUMP JUMPDEST PUSH32 0x4F776E657220616C726561647920617070726F76656420746869732072657175 PUSH1 0x0 DUP3 ADD MSTORE PUSH32 0x6573742E00000000000000000000000000000000000000000000000000000000 PUSH1 0x20 DUP3 ADD MSTORE POP JUMP JUMPDEST PUSH1 0x0 PUSH2 0x6CD4 PUSH1 0x24 DUP4 PUSH2 0x639F JUMP JUMPDEST SWAP2 POP PUSH2 0x6CDF DUP3 PUSH2 0x6C78 JUMP JUMPDEST PUSH1 0x40 DUP3 ADD SWAP1 POP SWAP2 SWAP1 POP JUMP JUMPDEST PUSH1 0x0 PUSH1 0x20 DUP3 ADD SWAP1 POP DUP2 DUP2 SUB PUSH1 0x0 DUP4 ADD MSTORE PUSH2 0x6D03 DUP2 PUSH2 0x6CC7 JUMP JUMPDEST SWAP1 POP SWAP2 SWAP1 POP JUMP JUMPDEST PUSH2 0x6D13 DUP2 PUSH2 0x66E3 JUMP JUMPDEST DUP3 MSTORE POP POP JUMP JUMPDEST PUSH1 0x0 PUSH1 0x20 DUP3 ADD SWAP1 POP PUSH2 0x6D2E PUSH1 0x0 DUP4 ADD DUP5 PUSH2 0x6D0A JUMP JUMPDEST SWAP3 SWAP2 POP POP JUMP JUMPDEST PUSH32 0x756E706175736500000000000000000000000000000000000000000000000000 PUSH1 0x0 DUP3 ADD MSTORE POP JUMP JUMPDEST PUSH1 0x0 PUSH2 0x6D6A PUSH1 0x7 DUP4 PUSH2 0x6BF3 JUMP JUMPDEST SWAP2 POP PUSH2 0x6D75 DUP3 PUSH2 0x6D34 JUMP JUMPDEST PUSH1 0x7 DUP3 ADD SWAP1 POP SWAP2 SWAP1 POP JUMP JUMPDEST PUSH1 0x0 PUSH2 0x6D8B DUP3 PUSH2 0x6D5D JUMP JUMPDEST SWAP2 POP PUSH2 0x6D97 DUP3 DUP5 PUSH2 0x6C39 JUMP JUMPDEST PUSH1 0x20 DUP3 ADD SWAP2 POP DUP2 SWAP1 POP SWAP3 SWAP2 POP POP JUMP JUMPDEST PUSH32 0x496E76616C69642053757065722041646D696E20616464726573732E00000000 PUSH1 0x0 DUP3 ADD MSTORE POP JUMP JUMPDEST PUSH1 0x0 PUSH2 0x6DDC PUSH1 0x1C DUP4 PUSH2 0x639F JUMP JUMPDEST SWAP2 POP PUSH2 0x6DE7 DUP3 PUSH2 0x6DA6 JUMP JUMPDEST PUSH1 0x20 DUP3 ADD SWAP1 POP SWAP2 SWAP1 POP JUMP JUMPDEST PUSH1 0x0 PUSH1 0x20 DUP3 ADD SWAP1 POP DUP2 DUP2 SUB PUSH1 0x0 DUP4 ADD MSTORE PUSH2 0x6E0B DUP2 PUSH2 0x6DCF JUMP JUMPDEST SWAP1 POP SWAP2 SWAP1 POP JUMP JUMPDEST PUSH32 0x6368616E6765537570657241646D696E00000000000000000000000000000000 PUSH1 0x0 DUP3 ADD MSTORE POP JUMP JUMPDEST PUSH1 0x0 PUSH2 0x6E48 PUSH1 0x10 DUP4 PUSH2 0x6BF3 JUMP JUMPDEST SWAP2 POP PUSH2 0x6E53 DUP3 PUSH2 0x6E12 JUMP JUMPDEST PUSH1 0x10 DUP3 ADD SWAP1 POP SWAP2 SWAP1 POP JUMP JUMPDEST PUSH1 0x0 PUSH2 0x6E69 DUP3 PUSH2 0x6E3B JUMP JUMPDEST SWAP2 POP PUSH2 0x6E75 DUP3 DUP5 PUSH2 0x6C39 JUMP JUMPDEST PUSH1 0x20 DUP3 ADD SWAP2 POP DUP2 SWAP1 POP SWAP3 SWAP2 POP POP JUMP JUMPDEST PUSH1 0x0 PUSH1 0x40 DUP3 ADD SWAP1 POP PUSH2 0x6E99 PUSH1 0x0 DUP4 ADD DUP6 PUSH2 0x636A JUMP JUMPDEST PUSH2 0x6EA6 PUSH1 0x20 DUP4 ADD DUP5 PUSH2 0x64E8 JUMP JUMPDEST SWAP4 SWAP3 POP POP POP JUMP JUMPDEST PUSH2 0x6EB6 DUP2 PUSH2 0x64B2 JUMP JUMPDEST DUP2 EQ PUSH2 0x6EC1 JUMPI PUSH1 0x0 DUP1 REVERT JUMPDEST POP JUMP JUMPDEST PUSH1 0x0 DUP2 MLOAD SWAP1 POP PUSH2 0x6ED3 DUP2 PUSH2 0x6EAD JUMP JUMPDEST SWAP3 SWAP2 POP POP JUMP JUMPDEST PUSH1 0x0 PUSH1 0x20 DUP3 DUP5 SUB SLT ISZERO PUSH2 0x6EEF JUMPI PUSH2 0x6EEE PUSH2 0x62CB JUMP JUMPDEST JUMPDEST PUSH1 0x0 PUSH2 0x6EFD DUP5 DUP3 DUP6 ADD PUSH2 0x6EC4 JUMP JUMPDEST SWAP2 POP POP SWAP3 SWAP2 POP POP JUMP JUMPDEST PUSH32 0x7061757365000000000000000000000000000000000000000000000000000000 PUSH1 0x0 DUP3 ADD MSTORE POP JUMP JUMPDEST PUSH1 0x0 PUSH2 0x6F3C PUSH1 0x5 DUP4 PUSH2 0x6BF3 JUMP JUMPDEST SWAP2 POP PUSH2 0x6F47 DUP3 PUSH2 0x6F06 JUMP JUMPDEST PUSH1 0x5 DUP3 ADD SWAP1 POP SWAP2 SWAP1 POP JUMP JUMPDEST PUSH1 0x0 PUSH2 0x6F5D DUP3 PUSH2 0x6F2F JUMP JUMPDEST SWAP2 POP PUSH2 0x6F69 DUP3 DUP5 PUSH2 0x6C39 JUMP JUMPDEST PUSH1 0x20 DUP3 ADD SWAP2 POP DUP2 SWAP1 POP SWAP3 SWAP2 POP POP JUMP JUMPDEST PUSH1 0x0 DUP2 PUSH1 0x60 SHL SWAP1 POP SWAP2 SWAP1 POP JUMP JUMPDEST PUSH1 0x0 PUSH2 0x6F90 DUP3 PUSH2 0x6F78 JUMP JUMPDEST SWAP1 POP SWAP2 SWAP1 POP JUMP JUMPDEST PUSH1 0x0 PUSH2 0x6FA2 DUP3 PUSH2 0x6F85 JUMP JUMPDEST SWAP1 POP SWAP2 SWAP1 POP JUMP JUMPDEST PUSH2 0x6FBA PUSH2 0x6FB5 DUP3 PUSH2 0x6358 JUMP JUMPDEST PUSH2 0x6F97 JUMP JUMPDEST DUP3 MSTORE POP POP JUMP JUMPDEST PUSH1 0x0 PUSH2 0x6FCC DUP3 DUP8 PUSH2 0x6BFE JUMP JUMPDEST SWAP2 POP PUSH2 0x6FD8 DUP3 DUP7 PUSH2 0x6FA9 JUMP JUMPDEST PUSH1 0x14 DUP3 ADD SWAP2 POP PUSH2 0x6FE8 DUP3 DUP6 PUSH2 0x6FA9 JUMP JUMPDEST PUSH1 0x14 DUP3 ADD SWAP2 POP PUSH2 0x6FF8 DUP3 DUP5 PUSH2 0x6C39 JUMP JUMPDEST PUSH1 0x20 DUP3 ADD SWAP2 POP DUP2 SWAP1 POP SWAP6 SWAP5 POP POP POP POP POP JUMP JUMPDEST PUSH32 0x72656C65617365546F6B656E7300000000000000000000000000000000000000 PUSH1 0x0 DUP3 ADD MSTORE POP JUMP JUMPDEST PUSH1 0x0 PUSH2 0x7040 PUSH1 0xD DUP4 PUSH2 0x6BF3 JUMP JUMPDEST SWAP2 POP PUSH2 0x704B DUP3 PUSH2 0x700A JUMP JUMPDEST PUSH1 0xD DUP3 ADD SWAP1 POP SWAP2 SWAP1 POP JUMP JUMPDEST PUSH1 0x0 PUSH2 0x7061 DUP3 PUSH2 0x7033 JUMP JUMPDEST SWAP2 POP PUSH2 0x706D DUP3 DUP5 PUSH2 0x6C39 JUMP JUMPDEST PUSH1 0x20 DUP3 ADD SWAP2 POP DUP2 SWAP1 POP SWAP3 SWAP2 POP POP JUMP JUMPDEST PUSH32 0x496E73756666696369656E742077544F4D41582062616C616E63650000000000 PUSH1 0x0 DUP3 ADD MSTORE POP JUMP JUMPDEST PUSH1 0x0 PUSH2 0x70B2 PUSH1 0x1B DUP4 PUSH2 0x639F JUMP JUMPDEST SWAP2 POP PUSH2 0x70BD DUP3 PUSH2 0x707C JUMP JUMPDEST PUSH1 0x20 DUP3 ADD SWAP1 POP SWAP2 SWAP1 POP JUMP JUMPDEST PUSH1 0x0 PUSH1 0x20 DUP3 ADD SWAP1 POP DUP2 DUP2 SUB PUSH1 0x0 DUP4 ADD MSTORE PUSH2 0x70E1 DUP2 PUSH2 0x70A5 JUMP JUMPDEST SWAP1 POP SWAP2 SWAP1 POP JUMP JUMPDEST PUSH1 0x0 DUP2 SWAP1 POP SWAP3 SWAP2 POP POP JUMP JUMPDEST POP JUMP JUMPDEST PUSH1 0x0 PUSH2 0x7103 PUSH1 0x0 DUP4 PUSH2 0x70E8 JUMP JUMPDEST SWAP2 POP PUSH2 0x710E DUP3 PUSH2 0x70F3 JUMP JUMPDEST PUSH1 0x0 DUP3 ADD SWAP1 POP SWAP2 SWAP1 POP JUMP JUMPDEST PUSH1 0x0 PUSH2 0x7124 DUP3 PUSH2 0x70F6 JUMP JUMPDEST SWAP2 POP DUP2 SWAP1 POP SWAP2 SWAP1 POP JUMP JUMPDEST PUSH32 0x5472616E73666572206661696C65640000000000000000000000000000000000 PUSH1 0x0 DUP3 ADD MSTORE POP JUMP JUMPDEST PUSH1 0x0 PUSH2 0x7164 PUSH1 0xF DUP4 PUSH2 0x639F JUMP JUMPDEST SWAP2 POP PUSH2 0x716F DUP3 PUSH2 0x712E JUMP JUMPDEST PUSH1 0x20 DUP3 ADD SWAP1 POP SWAP2 SWAP1 POP JUMP JUMPDEST PUSH1 0x0 PUSH1 0x20 DUP3 ADD SWAP1 POP DUP2 DUP2 SUB PUSH1 0x0 DUP4 ADD MSTORE PUSH2 0x7193 DUP2 PUSH2 0x7157 JUMP JUMPDEST SWAP1 POP SWAP2 SWAP1 POP JUMP JUMPDEST PUSH32 0x617070726F766557697468647261770000000000000000000000000000000000 PUSH1 0x0 DUP3 ADD MSTORE POP JUMP JUMPDEST PUSH1 0x0 PUSH2 0x71D0 PUSH1 0xF DUP4 PUSH2 0x6BF3 JUMP JUMPDEST SWAP2 POP PUSH2 0x71DB DUP3 PUSH2 0x719A JUMP JUMPDEST PUSH1 0xF DUP3 ADD SWAP1 POP SWAP2 SWAP1 POP JUMP JUMPDEST PUSH1 0x0 PUSH2 0x71F1 DUP3 PUSH2 0x71C3 JUMP JUMPDEST SWAP2 POP PUSH2 0x71FD DUP3 DUP5 PUSH2 0x6C39 JUMP JUMPDEST PUSH1 0x20 DUP3 ADD SWAP2 POP DUP2 SWAP1 POP SWAP3 SWAP2 POP POP JUMP JUMPDEST PUSH32 0x496E76616C6964206E6577206F776E657220616464726573732E000000000000 PUSH1 0x0 DUP3 ADD MSTORE POP JUMP JUMPDEST PUSH1 0x0 PUSH2 0x7242 PUSH1 0x1A DUP4 PUSH2 0x639F JUMP JUMPDEST SWAP2 POP PUSH2 0x724D DUP3 PUSH2 0x720C JUMP JUMPDEST PUSH1 0x20 DUP3 ADD SWAP1 POP SWAP2 SWAP1 POP JUMP JUMPDEST PUSH1 0x0 PUSH1 0x20 DUP3 ADD SWAP1 POP DUP2 DUP2 SUB PUSH1 0x0 DUP4 ADD MSTORE PUSH2 0x7271 DUP2 PUSH2 0x7235 JUMP JUMPDEST SWAP1 POP SWAP2 SWAP1 POP JUMP JUMPDEST PUSH32 0x4F776E657220746F2072656D6F7665206973206E6F7420696E20746865206C69 PUSH1 0x0 DUP3 ADD MSTORE PUSH32 0x73742E0000000000000000000000000000000000000000000000000000000000 PUSH1 0x20 DUP3 ADD MSTORE POP JUMP JUMPDEST PUSH1 0x0 PUSH2 0x72D4 PUSH1 0x23 DUP4 PUSH2 0x639F JUMP JUMPDEST SWAP2 POP PUSH2 0x72DF DUP3 PUSH2 0x7278 JUMP JUMPDEST PUSH1 0x40 DUP3 ADD SWAP1 POP SWAP2 SWAP1 POP JUMP JUMPDEST PUSH1 0x0 PUSH1 0x20 DUP3 ADD SWAP1 POP DUP2 DUP2 SUB PUSH1 0x0 DUP4 ADD MSTORE PUSH2 0x7303 DUP2 PUSH2 0x72C7 JUMP JUMPDEST SWAP1 POP SWAP2 SWAP1 POP JUMP JUMPDEST PUSH32 0x4E6577206F776E657220697320616C726561647920696E20746865206C697374 PUSH1 0x0 DUP3 ADD MSTORE PUSH32 0x2E00000000000000000000000000000000000000000000000000000000000000 PUSH1 0x20 DUP3 ADD MSTORE POP JUMP JUMPDEST PUSH1 0x0 PUSH2 0x7366 PUSH1 0x21 DUP4 PUSH2 0x639F JUMP JUMPDEST SWAP2 POP PUSH2 0x7371 DUP3 PUSH2 0x730A JUMP JUMPDEST PUSH1 0x40 DUP3 ADD SWAP1 POP SWAP2 SWAP1 POP JUMP JUMPDEST PUSH1 0x0 PUSH1 0x20 DUP3 ADD SWAP1 POP DUP2 DUP2 SUB PUSH1 0x0 DUP4 ADD MSTORE PUSH2 0x7395 DUP2 PUSH2 0x7359 JUMP JUMPDEST SWAP1 POP SWAP2 SWAP1 POP JUMP JUMPDEST PUSH32 0x6368616E67654F776E6572000000000000000000000000000000000000000000 PUSH1 0x0 DUP3 ADD MSTORE POP JUMP JUMPDEST PUSH1 0x0 PUSH2 0x73D2 PUSH1 0xB DUP4 PUSH2 0x6BF3 JUMP JUMPDEST SWAP2 POP PUSH2 0x73DD DUP3 PUSH2 0x739C JUMP JUMPDEST PUSH1 0xB DUP3 ADD SWAP1 POP SWAP2 SWAP1 POP JUMP JUMPDEST PUSH1 0x0 PUSH2 0x73F3 DUP3 PUSH2 0x73C5 JUMP JUMPDEST SWAP2 POP PUSH2 0x73FF DUP3 DUP7 PUSH2 0x6FA9 JUMP JUMPDEST PUSH1 0x14 DUP3 ADD SWAP2 POP PUSH2 0x740F DUP3 DUP6 PUSH2 0x6FA9 JUMP JUMPDEST PUSH1 0x14 DUP3 ADD SWAP2 POP PUSH2 0x741F DUP3 DUP5 PUSH2 0x6C39 JUMP JUMPDEST PUSH1 0x20 DUP3 ADD SWAP2 POP DUP2 SWAP1 POP SWAP5 SWAP4 POP POP POP POP JUMP JUMPDEST PUSH1 0x0 PUSH1 0x60 DUP3 ADD SWAP1 POP PUSH2 0x7445 PUSH1 0x0 DUP4 ADD DUP7 PUSH2 0x636A JUMP JUMPDEST PUSH2 0x7452 PUSH1 0x20 DUP4 ADD DUP6 PUSH2 0x64E8 JUMP JUMPDEST PUSH2 0x745F PUSH1 0x40 DUP4 ADD DUP5 PUSH2 0x64E8 JUMP JUMPDEST SWAP5 SWAP4 POP POP POP POP JUMP JUMPDEST PUSH32 0x4E487B7100000000000000000000000000000000000000000000000000000000 PUSH1 0x0 MSTORE PUSH1 0x32 PUSH1 0x4 MSTORE PUSH1 0x24 PUSH1 0x0 REVERT JUMPDEST PUSH1 0x0 PUSH2 0x74A1 DUP3 PUSH2 0x62D5 JUMP JUMPDEST SWAP2 POP PUSH32 0xFFFFFFFFFFFFFFFFFFFFFFFFFFFFFFFFFFFFFFFFFFFFFFFFFFFFFFFFFFFFFFFF DUP3 SUB PUSH2 0x74D3 JUMPI PUSH2 0x74D2 PUSH2 0x6A32 JUMP JUMPDEST JUMPDEST PUSH1 0x1 DUP3 ADD SWAP1 POP SWAP2 SWAP1 POP JUMP JUMPDEST PUSH32 0x4E6F7420656E6F75676820617070726F76616C732066726F6D206F776E657273 PUSH1 0x0 DUP3 ADD MSTORE PUSH32 0x2E00000000000000000000000000000000000000000000000000000000000000 PUSH1 0x20 DUP3 ADD MSTORE POP JUMP JUMPDEST PUSH1 0x0 PUSH2 0x753A PUSH1 0x21 DUP4 PUSH2 0x639F JUMP JUMPDEST SWAP2 POP PUSH2 0x7545 DUP3 PUSH2 0x74DE JUMP JUMPDEST PUSH1 0x40 DUP3 ADD SWAP1 POP SWAP2 SWAP1 POP JUMP JUMPDEST PUSH1 0x0 PUSH1 0x20 DUP3 ADD SWAP1 POP DUP2 DUP2 SUB PUSH1 0x0 DUP4 ADD MSTORE PUSH2 0x7569 DUP2 PUSH2 0x752D JUMP JUMPDEST SWAP1 POP SWAP2 SWAP1 POP JUMP JUMPDEST PUSH32 0x436F6E7472616374206973206E6F742070617573656400000000000000000000 PUSH1 0x0 DUP3 ADD MSTORE POP JUMP JUMPDEST PUSH1 0x0 PUSH2 0x75A6 PUSH1 0x16 DUP4 PUSH2 0x639F JUMP JUMPDEST SWAP2 POP PUSH2 0x75B1 DUP3 PUSH2 0x7570 JUMP JUMPDEST PUSH1 0x20 DUP3 ADD SWAP1 POP SWAP2 SWAP1 POP JUMP JUMPDEST PUSH1 0x0 PUSH1 0x20 DUP3 ADD SWAP1 POP DUP2 DUP2 SUB PUSH1 0x0 DUP4 ADD MSTORE PUSH2 0x75D5 DUP2 PUSH2 0x7599 JUMP JUMPDEST SWAP1 POP SWAP2 SWAP1 POP JUMP JUMPDEST PUSH32 0x416C726561647920706175736564000000000000000000000000000000000000 PUSH1 0x0 DUP3 ADD MSTORE POP JUMP JUMPDEST PUSH1 0x0 PUSH2 0x7612 PUSH1 0xE DUP4 PUSH2 0x639F JUMP JUMPDEST SWAP2 POP PUSH2 0x761D DUP3 PUSH2 0x75DC JUMP JUMPDEST PUSH1 0x20 DUP3 ADD SWAP1 POP SWAP2 SWAP1 POP JUMP JUMPDEST PUSH1 0x0 PUSH1 0x20 DUP3 ADD SWAP1 POP DUP2 DUP2 SUB PUSH1 0x0 DUP4 ADD MSTORE PUSH2 0x7641 DUP2 PUSH2 0x7605 JUMP JUMPDEST SWAP1 POP SWAP2 SWAP1 POP JUMP JUMPDEST PUSH32 0x416C6C20746F6B656E732068617665206265656E2072656C6561736564000000 PUSH1 0x0 DUP3 ADD MSTORE POP JUMP JUMPDEST PUSH1 0x0 PUSH2 0x767E PUSH1 0x1D DUP4 PUSH2 0x639F JUMP JUMPDEST SWAP2 POP PUSH2 0x7689 DUP3 PUSH2 0x7648 JUMP JUMPDEST PUSH1 0x20 DUP3 ADD SWAP1 POP SWAP2 SWAP1 POP JUMP JUMPDEST PUSH1 0x0 PUSH1 0x20 DUP3 ADD SWAP1 POP DUP2 DUP2 SUB PUSH1 0x0 DUP4 ADD MSTORE PUSH2 0x76AD DUP2 PUSH2 0x7671 JUMP JUMPDEST SWAP1 POP SWAP2 SWAP1 POP JUMP JUMPDEST PUSH1 0x0 PUSH2 0x76BF DUP3 PUSH2 0x62D5 JUMP JUMPDEST SWAP2 POP PUSH2 0x76CA DUP4 PUSH2 0x62D5 JUMP JUMPDEST SWAP3 POP DUP3 DUP3 SUB SWAP1 POP DUP2 DUP2 GT ISZERO PUSH2 0x76E2 JUMPI PUSH2 0x76E1 PUSH2 0x6A32 JUMP JUMPDEST JUMPDEST SWAP3 SWAP2 POP POP JUMP JUMPDEST PUSH1 0x0 PUSH1 0x60 DUP3 ADD SWAP1 POP PUSH2 0x76FD PUSH1 0x0 DUP4 ADD DUP7 PUSH2 0x64E8 JUMP JUMPDEST PUSH2 0x770A PUSH1 0x20 DUP4 ADD DUP6 PUSH2 0x64E8 JUMP JUMPDEST PUSH2 0x7717 PUSH1 0x40 DUP4 ADD DUP5 PUSH2 0x64E8 JUMP JUMPDEST SWAP5 SWAP4 POP POP POP POP JUMP JUMPDEST PUSH32 0x496E73756666696369656E7420636F6E74726163742062616C616E6365000000 PUSH1 0x0 DUP3 ADD MSTORE POP JUMP JUMPDEST PUSH1 0x0 PUSH2 0x7755 PUSH1 0x1D DUP4 PUSH2 0x639F JUMP JUMPDEST SWAP2 POP PUSH2 0x7760 DUP3 PUSH2 0x771F JUMP JUMPDEST PUSH1 0x20 DUP3 ADD SWAP1 POP SWAP2 SWAP1 POP JUMP JUMPDEST PUSH1 0x0 PUSH1 0x20 DUP3 ADD SWAP1 POP DUP2 DUP2 SUB PUSH1 0x0 DUP4 ADD MSTORE PUSH2 0x7784 DUP2 PUSH2 0x7748 JUMP JUMPDEST SWAP1 POP SWAP2 SWAP1 POP JUMP JUMPDEST PUSH32 0x5769746864726177616C206661696C6564000000000000000000000000000000 PUSH1 0x0 DUP3 ADD MSTORE POP JUMP JUMPDEST PUSH1 0x0 PUSH2 0x77C1 PUSH1 0x11 DUP4 PUSH2 0x639F JUMP JUMPDEST SWAP2 POP PUSH2 0x77CC DUP3 PUSH2 0x778B JUMP JUMPDEST PUSH1 0x20 DUP3 ADD SWAP1 POP SWAP2 SWAP1 POP JUMP JUMPDEST PUSH1 0x0 PUSH1 0x20 DUP3 ADD SWAP1 POP DUP2 DUP2 SUB PUSH1 0x0 DUP4 ADD MSTORE PUSH2 0x77F0 DUP2 PUSH2 0x77B4 JUMP JUMPDEST SWAP1 POP SWAP2 SWAP1 POP JUMP JUMPDEST PUSH32 0x4E487B7100000000000000000000000000000000000000000000000000000000 PUSH1 0x0 MSTORE PUSH1 0x31 PUSH1 0x4 MSTORE PUSH1 0x24 PUSH1 0x0 REVERT JUMPDEST PUSH1 0x0 PUSH2 0x7831 DUP3 PUSH2 0x62D5 JUMP JUMPDEST SWAP2 POP PUSH2 0x783C DUP4 PUSH2 0x62D5 JUMP JUMPDEST SWAP3 POP DUP3 DUP3 MUL PUSH2 0x784A DUP2 PUSH2 0x62D5 JUMP JUMPDEST SWAP2 POP DUP3 DUP3 DIV DUP5 EQ DUP4 ISZERO OR PUSH2 0x7861 JUMPI PUSH2 0x7860 PUSH2 0x6A32 JUMP JUMPDEST JUMPDEST POP SWAP3 SWAP2 POP POP JUMP JUMPDEST PUSH32 0x4E487B7100000000000000000000000000000000000000000000000000000000 PUSH1 0x0 MSTORE PUSH1 0x12 PUSH1 0x4 MSTORE PUSH1 0x24 PUSH1 0x0 REVERT JUMPDEST PUSH1 0x0 PUSH2 0x78A2 DUP3 PUSH2 0x62D5 JUMP JUMPDEST SWAP2 POP PUSH2 0x78AD DUP4 PUSH2 0x62D5 JUMP JUMPDEST SWAP3 POP DUP3 PUSH2 0x78BD JUMPI PUSH2 0x78BC PUSH2 0x7868 JUMP JUMPDEST JUMPDEST DUP3 DUP3 DIV SWAP1 POP SWAP3 SWAP2 POP POP JUMP INVALID LOG2 PUSH5 0x6970667358 0x22 SLT KECCAK256 PUSH25 0x1716DD5A43D3E866A0257EC5F34B243E60E21CC69B01D413D8 ISZERO 0xB0 LOG3 STATICCALL 0xC0 PUSH21 0x64736F6C6343000818003300000000000000000000 "},"methodIdentifiers":{"INITIAL_CIRCULATING_SUPPLY()":"afb0c4a1","REQUIRED_APPROVALS()":"599c5533","TOTAL_SUPPLY()":"902d55a5","allowance(address,address)":"dd62ed3e","approvals(bytes32,address)":"24f6c776","approve(address,uint256)":"095ea7b3","approveRequest(string)":"1e0715df","approveRequestForOwnerChange(string,address,address)":"a30a7c5a","approveRequestForWithdrawals(string,uint256)":"32f82f6d","approveWithdraw(uint256)":"ec4673d1","balanceOf(address)":"70a08231","changeOwner(address,address)":"f00d4b5d","changeSuperAdmin(address)":"41858c4b","currentYear()":"0b5a006b","decimals()":"313ce567","foreignTokenRecover(address,address,uint256)":"775ef854","isOwner(address)":"2f54bf6e","lockedSupply()":"ca5c7b91","name()":"06fdde03","owners(uint256)":"025e7c27","pause()":"8456cb59","paused()":"5c975abb","releasePercentage()":"165e5934","releaseTokens()":"a96f8668","superAdmin()":"29575f6a","symbol()":"95d89b41","totalSupply()":"18160ddd","transfer(address,uint256)":"a9059cbb","transferFrom(address,address,uint256)":"23b872dd","unpause()":"3f4ba83a","unwrap(uint256)":"de0e9a3e","wrap()":"d46eb119"}}}}}